:020000040800F2
:1000000080080020ED010008813200086527000803
:10001000AD30000889160008833700080000000092
:100020000000000000000000000000008532000811
:100030008B160008000000008332000867330008B8
:10004000070200080702000807020008070200086C
:10005000070200080702000807020008070200085C
:10006000070200080702000807020008070200084C
:10007000070200080702000807020008070200083C
:10008000070200080702000807020008070200082C
:10009000070200080702000807020008070200081C
:1000A000070200080702000807020008070200080C
:1000B00007020008070200080702000807020008FC
:1000C00007020008070200080702000807020008EC
:1000D00007020008070200080702000807020008DC
:1000E00007020008070200080702000807020008CC
:1000F00007020008070200080702000807020008BC
:1001000007020008070200080702000807020008AB
:10011000070200080702000807020008070200089B
:10012000070200080702000807020008070200088B
:1001300000F002F800F04AF80AA090E8000C8244AF
:100140008344AAF10107DA4501D100F03FF8AFF28C
:10015000090EBAE80F0013F0010F18BFFB1A43F0A5
:1001600001031847D07C0000F07C0000103A24BF47
:1001700078C878C1FAD8520724BF30C830C144BF0C
:1001800004680C607047000000230024002500264E
:10019000103A28BF78C1FBD8520728BF30C148BFEA
:1001A0000B607047662906F07886642900F0988015
:1001B000002070471FB500F011FD04000020002151
:1001C00005F0FAFDE0601FBD10B510BD00F026FE81
:1001D0001146FFF7EFFF04F0C3FE00F044FE03B446
:1001E000FFF7F2FF03BC03F060FB00000948804703
:1001F00009480047FEE7FEE7FEE7FEE7FEE7FEE709
:10020000FEE7FEE7FEE7FEE704480549054A064B20
:1002100070470000C9330008310100088002002047
:10022000800800208004002080040020704710B562
:100230004C1084EA530404D54042C1F1000138BF98
:10024000491E1B4204D55242C3F1000338BF5B1E56
:1002500000F0A5F914F0804F04D04042C1F1000134
:1002600038BF491E14F0004F04D05242C3F10003BE
:1002700038BF5B1E10BD00000FB4044910B503AABF
:10028000029800F077FC10BC5DF814FB3C000020E5
:1002900070B5044685690068C10601D5302600E0C6
:1002A0002026C00707D070BDD4E901213046904711
:1002B000206A401C20626D1EF6D570BD70B50446E4
:1002C00085690078C00707D170BDD4E901212020DD
:1002D0009047206A401C20626D1EF6D570BD00005C
:1002E0002DE9F0410646002410687529314616A50F
:1002F00010D0AFF30080002802DA404213A507E0D7
:1003000031688A0701D512A502E0490704D511A575
:10031000012401E0AFF3008000210A2206F1240746
:1003200009E0B0FBF2FCB0FBF2F302FB1C00303042
:1003300078541846491C0028F3D123462A463046F3
:10034000BDE8F04100F0ADB9000000002D00000054
:100350002B000000200000002DE9F05F89460446D4
:100360004FF0000ADFF874B1FB44C0F820A020462B
:10037000E1688847002874D0252806D0D4E90121F7
:100380009047206A401C2062F1E700265F46204625
:10039000E16888472028054607DB312D05D278190A
:1003A00010F8200C08B10643F1E7B00701D526F09C
:1003B0000406C4F81CA00027C4F818A02A2D09D0F0
:1003C000284603F06BFA38B304EB8708303DC8F8D1
:1003D000185019E059F8041B204604EB870291617C
:1003E000E1688847012F054618D1E069002820DA26
:1003F00026F020061DE0D8F8180000EB800005EB81
:1004000040003038C8F818002046E16888470546A3
:1004100003F044FA0028EED1012F0AD02E2D08D186
:100420002046E16888477F1C0546022F46F02006DB
:10043000C4DBA069002803DA404246F00106A0614F
:10044000F00701D026F010066C2D0BD0682D09D0D6
:100450004C2D39D06A2D35D0742D35D07A2D33D02E
:1004600016E038E0E1682F4620468847B842054646
:1004700009D16C2F26D04FF48060E16806432046F6
:100480008847054604E06C2F1AD04FF4807006436D
:100490000DB3A5F14100192802D8203546F40066B5
:1004A0004A462946204626604E46FFF77BFE80B12D
:1004B00001280BD0F61D26F0070000F1080956E7C9
:1004C0004020E4E78020D8E70020D6E706F10409C1
:1004D0004DE7284652E7206ABDE8F09FE07800002B
:1004E00040EA010310B59B070FD1042A0DD310C8B1
:1004F00008C9121F9C42F8D020BA19BA884201D903
:10050000012010BD4FF0FF3010BD1AB1D30703D04A
:10051000521C07E0002010BD10F8013B11F8014B00
:100520001B1B07D110F8013B11F8014B1B1B01D11C
:10053000921EF1D1184610BD02F0FF0343EA0322D8
:1005400042EA024200F02ABB4FF0000200B5134617
:1005500094469646203922BFA0E80C50A0E80C50E3
:10056000B1F12001BFF4F7AF090728BFA0E80C5094
:1005700048BF0CC05DF804EB890028BF40F8042B8D
:1005800008BF704748BF20F8022B11F0804F18BFFA
:1005900000F8012B7047704770477047704753EA67
:1005A000020C00F069802DE9F04B4FF00006002BA3
:1005B0001FBFB3FA83F503FA05F424FA05F65E408B
:1005C00012BF1643B2FA82F502FA05F4C5F120050E
:1005D0001EBF22FA05FC44EA0C04203556EA044CFE
:1005E0004FEA144418BF641C4FF000084FF0000994
:1005F000904271EB030C39D3002919BFB1FA81F78E
:1006000001FA07F6B0FA80F700FA07F6C7F12007FB
:100610001EBF20FA07FC46EA0C062037B6FBF4FCA6
:10062000A7EB0507103F07F01F0BCBF120060CFAD4
:100630000BFB2CFA06F644BFB3460026202FA4BFBE
:100640005E464FF0000B5BEA060C08BF4FF0010B53
:1006500019EB0B09ABFB027C48EB0608C01B06FB41
:1006600002CC0BFB03CC71EB0C01C1E70B4602463D
:1006700041464846BDE8F08B13B54FF000004FF0FF
:100680000001AFF30080BDE81C40704710B500F0DA
:10069000A9FA006810BD10B5044600F0A3FA046082
:1006A00010BD2DE9F0470D4699469246044600F1EB
:1006B00024080168880604D5E06921F01001216052
:1006C00000E00120A84201DD471B00E00027A169EE
:1006D0007A1902EB0900081AA0612078C00602D43A
:1006E0002046FFF7D5FD002608E0D4E901211AF8DD
:1006F00006009047206A401C761C20624E45F4DBC1
:100700002078C0060AD52046FFF7C2FD06E0D4E9EE
:10071000012130209047206A401C2062381EA7F13A
:100720000107F4DC07E0D4E9012118F8050090473F
:10073000206A401C2062281EA5F10105F3DC20463A
:10074000FFF7BCFD2078000602D50220BDE8F08747
:100750000120FBE770472DE9FF4F0C461E464FF086
:10076000FF378BB0D2E90001DDF860800A908A463D
:10077000C1F30A5505B93D46002108464FF0000077
:10078000BAF1000F00F4400005DA00EB80004FF4EE
:10079000400101EA50004FEA9059B9F1010F00DD24
:1007A000B9460A9850EA4A000ED044F61050A5F215
:1007B000FF3545432F14B8F1000F1ED07542291E96
:1007C0001EDDC9F100021CE0B8F1010F4FF000007E
:1007D00001D0302103E0F24305E02154401CB04237
:1007E000FBDB30460022002121540B99C1F8088020
:1007F000C1E900200FB0BDE8F08FBD1B6D1CDEE726
:100800004A4600DA694206A800F08EFA06AB93E881
:10081000070003AB83E8070050460A9900F06CFB21
:100820008DE80700A0F500501F3800900398002DB8
:100830000ADD42F21F014A460844002303A903903F
:10084000684600F0D5FD09E0A0F500504A461F3883
:10085000002303A90390684600F0DFFD8DE8070040
:100860000004000C03D04FF0FF30410800E01046B8
:10087000B8F1000F03D00022009215461EE0751E4D
:1008800005D400F0B3F9303262556D1EF9D5B34688
:100890000122084302D000227F1C04E02078302887
:1008A00001D100227F1E002A099784D01DE0112D5E
:1008B00007DA00F09BF9303262556D1C50EA0102F4
:1008C000F5D1084302D00098C8B10EE00021681E9F
:1008D00005E0235C625C63542254401E491C814243
:1008E000F7DBAB46A81B401E0990002004F80B0064
:1008F0000B98099AC0F80880C0E9002B7AE7112606
:100900004FF0000857E72DE9F04F88460446D21D06
:1009100022F0070191B0D1E90001CDE90A0102F00E
:1009200031FF02460B98C00F01D02D2007E0206850
:10093000810701D52B2002E0202101EAC000032A13
:10094000099001D0072A05DB03464146204600F006
:10095000ABF90BE12078800601D5E06900E00620C4
:10096000B8F1650F814606D0B8F1660F18D0B8F11E
:10097000670F70D131E00020B9F1110F009001DB59
:10098000112301E009F101030AAA01A90CA8FFF74C
:10099000E2FEDDE90C70002609F10105834647E01F
:1009A00001204B4600904FF000470AAA01A90CA86D
:1009B000FFF7D1FEDDE90DB00C995D46002610B9B8
:1009C00009F101000D18B9EB050003D4C0F1FF36A1
:1009D00009F10105A5EB09002BE0B9F1010F01DADE
:1009E0004FF001090020B9F1110F0090484601DDD8
:1009F000112300E003460AAA01A90CA8FFF7ABFEE9
:100A0000DDE90C704D4600268346207800070AD4A5
:100A1000AB4500DA5D4601A8012D04DD411911F84E
:100A2000011C302907D04F4502DA17F1040F04DA10
:100A3000012082460FE06D1EEEE7002F02DCED1B69
:100A40003E4403E0781CA84200DD7D1CB81B00F189
:100A5000010A4FF000472078000703D4AA4501DBC4
:100A60004FF0FF3A0021B7F1004F0DF143088DF828
:100A7000431024D002202B23002F01DA7F422D23A4
:100A80000A21021EA0F1010000DC5FB197FBF1FC1E
:100A900097FBF1F201FB1C7C17460CF1300C08F8B7
:100AA00001CDEEE7A8F1010003702188090501D509
:100AB000452100E06521A0F1010800F8011C09981A
:100AC0000FA9A1EB0807FF1D00B10120411901EB9F
:100AD000EA70A1693844081A401EA0612078C00657
:100AE00002D42046FFF7D4FB099828B1D4E90121AC
:100AF0009047206A401C20622078C00622D52046FC
:100B0000FFF7C6FB1EE0002E04DBB34502DD01A8A3
:100B1000805D00E03020D4E901219047206A401C2C
:100B20002062761CAAF101005FEA000A0AD100F0F7
:100B300055F8C0680168405CD4E901219047206AFB
:100B4000401C2062281EA5F10105DCDC07E0D4E989
:100B5000012118F8010B9047206A401C2062381EC2
:100B6000A7F10107F3DC2046FFF7A8FB032011B033
:100B700041E60000074B70B50D467B4400F081F85C
:100B80000446284600F042F910B14FF0FF3070BD26
:100B9000204670BD2B3D00004FF000020429C0F03C
:100BA000128010F0030C3FF4D1ACCCF1040CBCF17A
:100BB000020F18BF00F8012BA8BF20F8022BA1EBF1
:100BC0000C01FFF7C3BC5FEAC17C24BF00F8012B16
:100BD00000F8012B48BF00F8012B70470048704710
:100BE0003C020020004870471C02002030B5B0F1E4
:100BF0000A024FEA900E71F100034EEA817EB0EBDB
:100C00000E0061EB91014FEA101E4EEA017E10EBDF
:100C10000E0041EB11114FEA102E4EEA016E10EB5F
:100C20000E0041EB11214FEA104E4EEA014E10EB3F
:100C30000E0041EB1141401841F100014FEAD00094
:100C400040EA41704FEAD10110EB80054FEA810480
:100C500044EA907444EB01046D1944EB0404521B04
:100C6000A3414FF0000348BF0A3200D530BD401CFD
:100C700041F1000130BD000001694A1C02610878A1
:100C8000704700B58FB0CDE90131002105910549CC
:100C90007944CDE9031011466846FFF75DFB0FB0BC
:100CA00000BD0000E5FFFFFF2DE9F0411F460446AF
:100CB00003260168072A01F4006004DB08B116A5C9
:100CC00005E016A503E008B115A500E015A521F083
:100CD00010002060A069C01EA0610FB1401EA0617D
:100CE0002046FFF7D5FA4FB1D4E9012138469047A5
:100CF000206A401C2062C01C206206E0206AFAE7DD
:100D0000D4E9012115F8010B9047761EF8D2204650
:100D1000FFF7D4FABDE8F0814E414E006E616E00DF
:100D2000494E4600696E66002DE9F0478146164639
:100D30008AB0354878440DC88DE80D0032487844B3
:100D4000801C03AC0DC884E80D0041F69B300844BC
:100D5000372190FBF1F290FBF1F5A5F1800501FB45
:100D600012041B3C02D56442012000E00020DFF8A1
:100D700098A080460027FA44AAF1BE0A0EE0E007D8
:100D80000AD03246684607EB470101230AEB81018E
:100D900000F043FB8DE8070064107F1C002CEED1AF
:100DA000194F7F44AE3F19E0E80715D007EB041058
:100DB0000DF1180A90E80E008AE80E00C068F042B3
:100DC00001D1981908903246012306A903A800F022
:100DD00024FB03AB83E807006D10641C002DE3D1F6
:100DE0004FF0010332466946B8F1000F03A802D064
:100DF00000F0FEFA01E000F010FBC9E90001C9F8BB
:100E000008200AB0BDE8F08794700000007B00F075
:100E100080007047004870471C0200207546FFF7AD
:100E2000F9FFAE4605006946534620F007008546A7
:100E300018B020B5FFF7E8F9BDE820404FF00006F4
:100E40004FF000074FF000084FF0000B21F00701B2
:100E5000AC46ACE8C009ACE8C009ACE8C009ACE8F5
:100E6000C0098D46704710B50446AFF30080204698
:100E7000BDE81040FFF7B3B94FF0013C50F8042B28
:100E800051F8043B9A4221D1A2EB0C03934313EA9D
:100E9000CC1317D150F8042B51F8043B9A4215D1CA
:100EA000A2EB0C03934313EACC130BD150F8042BA1
:100EB00051F8043B9A4209D1A2EB0C03934313EA85
:100EC000CC13DBD04FF00000704700BFD01A01BA3E
:100ED000B1FA81F101F0180122FA01F0CB40C1F121
:100EE0002001DBB2C0B2C01A2CFA01F3D11A91432F
:100EF00011EAC311E6D170475FEA400C08BF91F0D8
:100F0000000F4FEA8C234FEAC12243EA51514FEAC6
:100F10001C5018BF00F5F0404FEA300018BF41F0F8
:100F200000415FEA6C5C00F02980BCF1FF3F08BF24
:100F300040F080407047130C06BF12044FF0100CB5
:100F40004FF0000C130E04BF12020CF1080C130F2B
:100F500004BF12010CF1040C930F04BF92000CF1BA
:100F6000020CD30F04BF52000CF1010C11464FF0DC
:100F70000002A0F11F00A0EB0C00704711F0004F21
:100F800008BF704731F000413FF4D5AF0B0C06BFEE
:100F900009044FF0100C4FF0000C0B0E04BF0902B7
:100FA0000CF1080C0B0F04BF09010CF1040C8B0FA2
:100FB00004BF89000CF1020CCB0F04BF49000CF1F7
:100FC000010CCCF12003A0EB0C0022FA03F302FA8F
:100FD0000CF241EA030100F10100704720F07F4C60
:100FE00080EA030023F07F47ACEB070303F57C5353
:100FF00000F0004003F1FF032DE980494FEA154B53
:1010000009B44FEA144325EA0B4E24EA03480FF2D1
:10101000042606EB132749083E785FEA320203FBF9
:101020000667C7F5000707FB06F64FEA54374FEA95
:10103000D64606F1020607FB066CCCF1005C4FEACF
:101040001C472CEA074C07FB06F40CFB06F504EBE7
:1010500015464FEA961634BF00204FF000404FEA85
:10106000D13706FB07FC4FEA1C4C0CFB0BF7D21BDD
:1010700003FB0CF761EB07010CFB0EF7B0EB07402D
:1010800072EB17420CFB08F734BFA2EB0742B2EB3E
:10109000074261EB17414FEA0C444FEA910706FB08
:1010A00007FC4FEA1C4C0CFB0BF7B0EBC74072EB94
:1010B000573203FB0CF734BFA2EBC742B2EBC74277
:1010C00061EB57310CFB0EF7B0EBC70072EB5772B8
:1010D0000CFB08F734BFA2EBC702B2EBC70261EB0F
:1010E0005771039F4FEA816141EA921104EBCC04EE
:1010F0004FEAD1374FEA826206FB07FC42EA9012C0
:101100004FEA80604FEA1C4C0CFB0BF7D21B03FB31
:101110000CF761EB07010CFB0EF7B0EB074072EB2D
:1011200017420CFB08F734BFA2EB0742B2EB0742B1
:1011300061EB17414FEA8C554FEA910704EB9C2471
:1011400006FB07FC4FEA1C4C0CFB0BF7B0EBC7404F
:1011500072EB573203FB0CF734BFA2EBC742B2EB82
:10116000C74261EB57310CFB0EF7B0EBC70072EBD7
:1011700057720CFB08F734BFA2EBC702B2EBC702F1
:1011800061EB577115EB4C254FEA816141EA9211F1
:101190004FEA82624FEAD13742EA901206FB07FC1F
:1011A00044F100044FEA80604FEA1C4C0CFB0BF743
:1011B000D21B03FB0CF761EB07010CFB0EF7B0EB46
:1011C000074072EB17420CFB08F734BFA2EB074253
:1011D000B2EB074261EB174115EB1C154FEA813169
:1011E00041EA92414FEA823242EA90424FEA80302D
:1011F0004FEA0C7644F1000448EA03434EEA0B48F8
:101200004FF0000EB2EB080C71EB030724BF6246EF
:1012100039464EEB0E0E4FF0000B0018524149417B
:101220004BEB0B0BB2EB080C71EB03077BF1000BE4
:1012300024BF624639464EEB0E0E4FF0000B0018ED
:10124000524149414BEB0B0BB2EB080C71EB03071E
:101250007BF1000B24BF624639464EEB0E0E51EA7D
:10126000020718BF46F0010616EB0E7655F1000294
:1012700054F1000103D5BDE88901BDE80088BDE84F
:101280008901BDE80048B619524141EB0101A3F1C3
:101290000103704780807F7E7D7C7B7A79787776CA
:1012A00076757473727171706F6E6E6D6C6C6B6A43
:1012B0006A696868676666656464636362616160E1
:1012C000605F5F5E5E5D5D5C5C5B5B5A5A5959585E
:1012D00058575756565555555454535352525251C8
:1012E000515050504F4F4F4E4E4D4D4D4C4C4C4B1E
:1012F0004B4B4A4A4A494949484848474747474665
:1013000046464545454444444443434343424242A0
:1013100042414141002B9C4630D477002BD01CB574
:101320004FEA370703B44FF010004FF01001BAF145
:10133000000F06D0BCF1000FDCBF40F0080040F009
:1013400008014FF000000FBCBDE810400BF1010B8D
:10135000BBF1010F08BF5FEA170722BF12F10102BC
:1013600011F101014FF0004143F1000300F0004092
:1013700043EA00007047F9D35708D0E746EA06462B
:1013800013F1400F4FEA16461FDD13F1200FDFBFA8
:1013900016430A46002120335B42BED0C3F120072A
:1013A00046EA064602FA07F74FEA164646EA0706F5
:1013B000C3F1200722FA03F201FA07F721FA03F139
:1013C0004FF0000342EA0702A7E746EA020646EAB0
:1013D00006464FEA164646EA0106BCBF46EA0646FE
:1013E000360C4FF000034FF000024FF0000194E77D
:1013F0002DE9804C9A46934670B491E8380007C8AE
:1014000031EA400C48BF34EA430C03D5FFF7E6FD50
:10141000FFF780FFF0BCBDE8008C2DE9804C9A46B8
:10142000934670B491E8380007C810F0804F08BFA9
:1014300013F0804F03D100F005F8FFF76BFFF0BC0D
:10144000BDE8008C20F07F4780EA030023F07F4C4A
:1014500007EB0C03A3F57C5300F00040A3F1FE035F
:1014600092F0000F00F0B38095F0000F00F077804D
:101470002DE901494FEA11404FEA144621EA00489C
:1014800000FB06FC24EA064708FB06F607FB08F803
:1014900000FB07F718EB06484CEB164C4FEA124BD3
:1014A00018EB07484FEA15464CEB174022EA0B4E63
:1014B0000BFB06FC25EA06470EFB06F607FB0EFEB5
:1014C0000BFB07F71EEB064E4CEB164C4FF00006DD
:1014D0001EEB074E4CEB174B18EB0B0840F10000CE
:1014E00018EB0E0B58EB000840F100008F1A4FF07C
:1014F00000013CBFC943661B14BFB5EB040C0021BF
:101500003CBFC943F61B4FEA17444EEA8E0E27EA4A
:1015100004454FEA1C4704FB07622CEA074C05FB15
:1015200007F70CFB05F604FB0CFC16EB074642EB39
:10153000174216EB0C4642EB1C421BEB060658EB1F
:101540000202414146EA9E0601D5BDE80189B6196D
:10155000524141EB0101A3F10103BDE801894FEACA
:1015600014454FEA114724EA054621EA074C05FBDA
:1015700007F406FB07F70CFB06F105FB0CFC11EB6F
:10158000074144EB17444FEA124711EB0C4144EB7F
:101590001C4422EA074C05FB07F206FB07F70CFB8D
:1015A00006F605FB0CFC16EB074642EB174216EB62
:1015B0000C4642EB1C456A1854F1000148BF7047C5
:1015C000B619524141EB0101A3F10103704795F0B7
:1015D000000F37D04FEA11424FEA144721EA024682
:1015E00024EA074C02FB07F106FB07F70CFB06F4A5
:1015F00002FB0CFC14EB074441EB17414FEA154783
:1016000014EB0C4441EB1C4125EA074C02FB07F5A7
:1016100006FB07F70CFB06F602FB0CFC16EB074675
:1016200045EB174516EB0C4645EB1C42121951F1E0
:10163000000148BF7047B619524141EB0101A3F1C7
:10164000010370474FEA14454FEA114724EA054663
:1016500021EA074C05FB07F106FB07F70CFB06F236
:101660004FF0000605FB0CFC12EB074241EB174163
:1016700012EB0C4251EB1C4148BF7047921841EBF2
:101680000101A3F101037047FEE770472DE9F04126
:101690000E4607460021144608461D46091BA84170
:1016A00002DB0020BDE8F081002E4FF002024FF077
:1016B00000032046294604DBFEF7B9FDC01971413D
:1016C00004E0FEF7B4FD381A66EB010122462B4612
:1016D000FEF7ADFDE6E700000148C0687047000076
:1016E0000C0000200148C068704700002400002062
:1016F00010B5074800F09BF8064800F098F800F095
:101700007BF8BDE810404EF6602103A0FEF7B4BDA3
:10171000FC00002044010020656E636F6465722048
:10172000696E6974206F6B2C206370723D256C6448
:101730000D0A000010B5040003D508A0FEF79CFDBB
:101740006442642094FBF0F100FB114294FBF0F141
:10175000BDE8104002A0FEF78FBD00002D00000084
:10176000256C642E2530326C6400000010B5104CDE
:1017700010A0A168FEF780FD2069FFF7DBFF13A032
:10178000FEF77AFDE068FFF7D5FF183411A0A168D5
:10179000FEF772FD2069FFF7CDFF0CA0FEF76CFD90
:1017A000E068FFF7C7FFBDE8104011A0FEF764BD79
:1017B0000C000020656E63206C65667420636E7497
:1017C0003D256C642072706D3D000000206C696ED8
:1017D000653D00006D6D2F732C2072696768742061
:1017E000636E743D256C642072706D3D00000000D6
:1017F0006D6D2F730D0A000010B5074800F00EF84C
:101800000548183000F00AF800F08AF90249083952
:101810000860486010BD00000C00002001680968E5
:10182000496A818000218160C1600161704710B503
:101830003C2100F05BFD002803D0BDE8104000F023
:1018400055B810BD70B500F06BF9114E0446306804
:10185000251AB5F57A7F03D9BDE87040FFF7CCBFF4
:101860000A2D14D30A4829460830346000F012F8D3
:1018700007482946203000F00DF87068201AB0F5AE
:10188000FA7F04D37460BDE87040FFF76FBF70BD8E
:10189000040000202DE9F041074600680A46006870
:1018A000406AB988B880411A387D0CB208B16042EC
:1018B00004B2B8684EF660232044B8600948A2FB21
:1018C000032384FB000115461E46FFF7DFFEF86088
:1018D00005482A4684FB00013346FFF7D7FE3861EE
:1018E000BDE8F081B06C3C01808D5B0072B6FEE714
:1018F00070B5044600F014F90546601C02D0044897
:101900000078044400F00CF9401BA042FAD370BDEB
:10191000A40000202DE9F84FDFF8C8910024A9F1B8
:10192000040B23460F2709F1040AABF1040ED1E0A2
:101930000125A54006EA0502AA4276D1DFF8A8C132
:101940004E68A6EB0C0866452BD00DDC032E34D078
:1019500005DC36B3012E19D0022E2FD11BE0112E3B
:1019600016D0122E2AD119E0B8F5881F19D006DC3E
:10197000B8F5803F15D0B8F5801F1FD111E0B8F53C
:10198000001F0ED0B8F5041F18D10AE0CB6815E08F
:10199000CB681B1D12E0CB6808330FE0CB680C331B
:1019A0000CE08B682BB1012B4FF0080303D045618D
:1019B00004E0042302E0056100E00023FF2A01D8CF
:1019C000064601E000F104064FEA840501D9A5F1BD
:1019D0002005D6F8008007FA05FC28EA0C0803FA6F
:1019E00005F548EA0508C6F800804D68ED0070D599
:1019F0003E4DAE6946F00106AE61AD6924F00306C6
:101A000005F0010500953A4D06EB050CDCF8085091
:101A1000A607360F07FA06F825EA0805DFF8D4808E
:101A2000404503D14FF0000825E052E0DFF8C880C0
:101A3000404502D14FF001081DE0DFF8C08040456D
:101A400002D14FF0020816E0DFF8B480404502D121
:101A50004FF003080FE0DFF8AC80404502D14FF0B3
:101A6000040808E0DFF8A080404502D14FF00508E7
:101A700001E04FF0060808FA06F848EA0508CCF835
:101A800008804D68D9F80060ED024D4601D5164337
:101A900000E096432E604D68DAF80060AD025546CE
:101AA00001D5164300E096432E604D68DBF80060D8
:101AB000AD035D4601D5164300E096432E604D68A8
:101AC000DEF80060ED03754601D5164300E096434D
:101AD0002E60641C0A681646E2407FF429AFBDE818
:101AE000F88F0000080401400000111000100240AF
:101AF0000000014000080140000C014000100140BE
:101B00000014014000180140001C0140806808409A
:101B100000D0012070470AB1016170470904FBE75A
:101B20000148806870470000A400002002488168D6
:101B30000278114481607047A4000020074810B566
:101B4000016841F010010160032000F067F80F20E8
:101B500000F006F800F024F8002010BD002002403C
:101B600070B50D4D04464FF47A712878B1FBF0F052
:101B70000A490968B1FBF0F000F0CEFA48B9102C20
:101B800007D200222146501E00F028F800206C6089
:101B900070BD012070BD0000A4000020B000002036
:101BA0000C4808B5816941F001018161816901F04A
:101BB00001010091C16941F08051C161C06900F02B
:101BC000805000900448416821F0E06141F00071CC
:101BD000416008BD0010024000000140F0B40E4B0F
:101BE0001B680C46C3F30223C3F10705042D00D97B
:101BF0000425191D072901D2002300E0DB1E012660
:101C000006FA05F1491E214099409E40761E164075
:101C10003143F0BC01F0CABD0CED00E0064900F014
:101C2000070208684FF6FF03184040EA0220034A03
:101C300010430860704700000CED00E00000FA055A
:101C40002DE9F0470F46050061D0434E306800F0A3
:101C50000700B84209D2306820F0070038433060EE
:101C6000306800F00700B84251D128683B4C81072A
:101C700012D5400703D5606840F4E06060602878C2
:101C8000000703D5606840F4605060606068A96830
:101C900020F0F000084360602878C00728D068680A
:101CA000012810D02168022810D0890700292EDAD7
:101CB000616821F0030101436160FFF731FF804655
:101CC00041F288390DE021688903EFE78901EDE7EA
:101CD000FFF726FFA0EB0801494502D90320BDE824
:101CE000F0876068696800F00C00B0EB810FEFD1FD
:101CF000306800F00700B8420BD9306820F00700C8
:101D000038433060306800F00700B84201D001204D
:101D1000E5E72878400705D56068E96820F4E060C9
:101D2000084360602878000706D56068296920F4B8
:101D3000605040EAC100606000F038F86168084A0D
:101D4000C1F30311515CC8400649086006480068A9
:101D5000FFF706FF0020C2E700200240001002400B
:101D6000347C0008B0000020A80000200448054989
:101D700000684968044AC1F30221515CC8407047B9
:101D8000B000002000100240447C000804480549CF
:101D900000684968044AC1F3C221515CC8407047D9
:101DA000B000002000100240447C00080E4A516838
:101DB0000E4801F00C03042B11D0082B0FD10C4856
:101DC000C1F38343C903C05C0AD55168084AC1F313
:101DD0004041921E515C054A5043B0FBF1F0704700
:101DE00004494843704700000010024000127A0086
:101DF000247C000800093D002DE9F84F040070D054
:101E00002078C04DC00749D06868C0F38100012820
:101E100007D06868C0F38100022809D16868C00350
:101E200006D52868800339D560680028E7D035E0FA
:101E30006068B0F5803F0BD010B1B0F5A02F11D085
:101E4000286820F480302860286820F4802002E090
:101E5000286840F480302860606890B1FFF760FE29
:101E600006460AE0286840F480202860F0E700BFBA
:101E7000FFF756FE801B642873D828688003F7D5C7
:101E80000CE0FFF74DFE064605E000BFFFF748FEF9
:101E9000801B6428F0D828688003F7D420789A4EF5
:101EA00080074FF001094FF0000839D5686810F03D
:101EB0000C0F07D06868C0F38100022809D1686858
:101EC000C00306D42868800714D52069012808D1EA
:101ED00010E02069B0B1C6F80090FFF721FE074678
:101EE00005E00AE1FFF71CFEC01B0228C4D82868E1
:101EF0008007F7D52868616920F0F80040EAC10042
:101F000028600DE0C6F80080FFF70AFE074604E0EF
:101F1000FFF706FEC01B022823D828688007F7D4E5
:101F2000207800072CD57948A169D9B1C0F8009074
:101F3000FFF7F6FD074604E0FFF7F2FDC01B02289D
:101F40000FD8686A8007F7D571484FF4FA510068D6
:101F5000B0FBF1F0009000BF0098411E0091FAD252
:101F60000EE080E0C0F80080FFF7DAFD074604E0ED
:101F7000FFF7D6FDC01B022875D8686A8007F7D422
:101F80002078400760D5E8690027C00008D4E869D8
:101F900040F08050E861E869012700F0805000902F
:101FA0005C480168C90513D40168834641F4807117
:101FB0000160FFF7B5FD824606E000BFFFF7B0FD08
:101FC000A0EB0A0064284ED8DBF80000C005F5D568
:101FD000E06801280AD008B1052813D0286A20F04B
:101FE00001002862286A20F0040002E0286A40F01C
:101FF00001002862E06841F2883B98B1FFF790FD4C
:1020000082460BE0286A40F004002862EEE700BF39
:10201000FFF786FDA0EB0A0159455AD8286A8007C8
:10202000F6D50CE0FFF77CFD824605E0FFF778FD72
:10203000A0EB0A0159454CD8286A8007F6D41FB195
:10204000E86920F08050E861E06988B36968C1F30D
:102050008101022944D00228C6F8608004D0FFF72D
:102060005FFD044638E034E0FFF75AFD074604E020
:10207000FFF756FDC01B02282BD828688001F7D433
:10208000206AB0F5803F05D16868A16820F400306F
:1020900008436860D4E908010843696821F47411B1
:1020A00008436860C6F86090FFF73AFD044606E012
:1020B00025E000BFFFF734FD001B022809D828687F
:1020C0008001F7D51BE000BFFFF72AFD001B0228A7
:1020D00002D90320BDE8F88F28688001F4D40EE00F
:1020E0000128F7D06868226A00F48031914204D157
:1020F000616A00F47010884201D00120EAE70020F4
:10210000E8E7000000100240000042428004424222
:10211000B00000200070004010B5401EB0F1807F7C
:1021200001D3012010BD4FF0E02460610F21601742
:1021300001F03CFB0020A06107202061002010BDC1
:1021400070B590F83C20012A2CD0012480F83C4046
:10215000022280F83D2003685A689D6822F07006CC
:102160000A6832435A60104B02689A420ED00F4BF5
:102170009A420BD0B2F1804F08D00D4B9A4205D055
:102180000C4B9A4202D00C4B9A4204D1496825F07C
:1021900080031943916080F83D40002180F83C1095
:1021A000084670BD022070BD002C01400034014083
:1021B0000004004000080040000C00402DE9F04100
:1021C0000D46040003D094F83D0018B108E001204A
:1021D000BDE8F081002084F83C00204600F040F883
:1021E000022084F83D002068816844F20702914390
:1021F0008160211D206801F0E9F8226890689169EA
:10220000166A2B68AF69034340F20330814341EA09
:102210000721A868EF6908434FF6FC418843E96845
:1022200040EA0720014328692F6A000140EA07308D
:10223000084369686D6926F0220646EA05152943B8
:1022400093602268906154F8460B0162012004F803
:102250001F09E0752076E0762077A0750020B7E7AB
:1022600000B585B0002100910191029103911A4BB4
:1022700002681A48C0219A4213D1C26942F004028E
:10228000C261C26902F004020492826942F008024B
:1022900082618069009100F008000490694610484E
:1022A00015E0104B9A4214D1826942F400528261C7
:1022B000826902F400520492826942F01002826143
:1022C0008069009100F01000049069460648FFF70D
:1022D00021FB05B000BD00000008004000100240D6
:1022E000000C0140003401400010014070B590F82E
:1022F0003E60044690F83F5090F8423090F84320FA
:10230000022021B104290ED0012E1BD114E0012E90
:1023100018D1012B16D184F83E0084F84200012226
:102320000021206820E0012D0CD1012A0AD184F877
:102330003F0084F8430014E0012D03D1012B01D1AB
:10234000012A01D0012070BD84F83E0084F83F00CE
:1023500084F8420084F8430001220021206801F043
:1023600083F801220421206801F07EF820680168CA
:1023700041F001010160002070BD000010B586B081
:102380000021009101910291039100681349884254
:1023900021D11348816941F004018161816901F013
:1023A00004010491816941F008018161806902247E
:1023B00000F008000490C020CDE9000469460948F7
:1023C0000394FFF7A7FA0320CDE900046946064805
:1023D0000394FFF79FFA06B010BD00000004004010
:1023E0000010024000080140000C014070B5044696
:1023F00090F83C0000260D4601280FD0012084F8FB
:102400003C006AB1042A1DD0082A2FD00C2A3FD0E4
:102410000126002084F83C00304670BD022070BDCB
:10242000206801F02FF82068816941F0080181617E
:102430002068816921F004018161206881692A692D
:10244000114311E0206801F04DF82068816941F4E2
:10245000006181612068816921F480618161206867
:1024600081692A6941EA02218161D2E7206801F08D
:102470006FF82068C16941F00801C1612068C16935
:1024800021F00401C1612068C1692A69114311E08A
:10249000206801F091F82068C16941F40061C161D0
:1024A0002068C16921F48061C1612068C1692A691D
:1024B00041EA0221C161ACE710B5040003D094F8F1
:1024C0003D0010B107E0012010BD002084F83C0061
:1024D000204600F01FF8022084F83D00211D2068EE
:1024E00000F074FF012084F8460084F83E0084F870
:1024F0003F0084F8400084F8410084F8420084F8EA
:10250000430084F8440084F8450084F83D0000202E
:1025100010BD000008B500680649884208D1064889
:10252000C16941F00201C161C06900F00200009080
:1025300008BD0000000400400010024010B5044631
:10254000022249B104290ED0082913D094F8410081
:10255000012816D0012010BD94F83E000128F9D1C1
:1025600084F83E200FE094F83F000128F2D184F86F
:102570003F2008E094F840000128EBD184F8402087
:1025800001E084F841200122206800F06DFF13492A
:102590002068134A884201D0904203D1436C43F42F
:1025A00000434364206888420DD090420BD0B0F1C4
:1025B000804F08D00B49884205D00B49884202D091
:1025C0000A49884204D1816801F00701062903D035
:1025D000016841F001010160002010BD002C0140A4
:1025E000003401400004004000080040000C00409E
:1025F00070B5040004D094F84100002510B106E045
:10260000012070BD84F84050204600F023F82420BB
:1026100084F841002068C16821F40051C16020465F
:1026200001F01AF82068016921F4904101612068E5
:10263000416921F02A0141612068C16841F40051DB
:10264000C1606564202084F8410084F8420065631D
:10265000002070BD30B585B0002400940194029430
:10266000039400681449884224D11448816941F4D4
:1026700080418161816901F480410491816941F067
:102680000401816180690E4D00F0040004904FF454
:1026900000700090022001900320039069462846B4
:1026A000FFF738F92815CDE9000469462846029459
:1026B000FFF730F905B030BD00380140001002408E
:1026C000000801402DE9F843044690F8410098467F
:1026D00016460D46202802D00220BDE8F88385B1B9
:1026E0007EB100206064212084F84100FFF718FAD1
:1026F000A6848146E684A0682027B0F5805F02D0DA
:1027000003E00120E9E7206910B12E4600250EE024
:1027100000260CE08021204600F0FAFFA8B9C6B1DF
:1027200016F8010B21684860E08C401EE084E08CC4
:102730004B464FF00002CDF800800028EAD14FF060
:102740004001204600F0E4FF40B184F841700320CE
:10275000C3E735F8020BC0F30800E3E784F84170E3
:102760000020BAE7FEE700002DE9F0410824054605
:102770004FF40048E602134F18E000BFFFF7CBF913
:1027800000F0A4F8280601D5012200E0002241460D
:102790003846FFF7C0F96806050E00F097F80122E9
:1027A00031463846FFF7B7F900F090F8641EE4B2FE
:1027B0004FF0000231463846E0D2BDE8F041FFF765
:1027C000AAB90000000C014070B50122144DD403D9
:1027D00021462846FFF79FF9012291032846FFF77B
:1027E0009AF900F073F821462846FFF78FF9002880
:1027F0000CD0002221462846FFF78DF900F066F83C
:1028000021462846FFF782F908B1002070BD00225A
:1028100021462846FFF77FF900F058F8012070BDE7
:10282000000C014070B5114D4FF480440022214648
:102830002846FFF770F900F049F86600002231469B
:102840002846FFF768F900F041F8012221462846A2
:10285000FFF761F900F03AF8012231462846FFF708
:102860005AF9BDE8704000F031B80000000C01409A
:1028700070B5154C4FF48045002229462046FFF7DD
:102880004AF900F023F80122D60331462046FFF72B
:1028900042F900F01BF8012229462046FFF73BF9D8
:1028A00000F014F831462046FFF730F900284FF0C9
:1028B00000022946204603D0FFF72DF9002070BD05
:1028C000FFF729F9012070BD000C014008B50A206E
:1028D0000090401E0090FCD108BD00002DE9F04F93
:1028E0008DB00CA906A8CDE9000100250BAB07AA05
:1028F00004A902A801F080FC18B100200DB0BDE8C9
:10290000F08FBDF818006F4CC0057DD5079804F016
:1029100057F96FF01D05294604F021FB0746E060DA
:10292000089804F04DF9294604F019FB804620610F
:10293000099804F045F9294604F011FB0646606148
:102940000A9804F03DF9294604F009FB0546A06108
:102950000121384604F003FB314604F05DF90646D8
:102960004FF040473946404604F056F9294604F0F6
:1029700053F9314603F0BEFF03F090FF00F0D6FF9D
:10298000DFF844914FF0663842464B4603F0ACFC0A
:1029900003F028FAE06160690121054604F0DFFADE
:1029A0008246294604F038F905462069394607462B
:1029B00004F032F9394604F02FF9294604F0F8F909
:1029C0004FF07E5103F096FF03F068FF05460E4678
:1029D0000121E06804F0C3FA394604F01DF9074606
:1029E0005046A16904F018F9394603F083FF03F05B
:1029F00055FF2A46334601F0E1F942464B4603F0C3
:102A000073FC03F0EFF900E041E02062A16901915D
:102A1000084604F001F9616907460846009104F090
:102A2000FBF8216906468B46584604F0F5F8E16844
:102A300005468A46504604F0EFF8294603F05AFF4F
:102A4000314604F0B5F9394604F0B2F903F026FF37
:102A500005460E465046019904F0DEF807465846F2
:102A6000009904F0D9F8394603F044FF012104F03D
:102A700076FA03F013FF2A46334601F09FF94246E7
:102A80004B4603F031FC03F0ADF960620125BDF95E
:102A9000180010F0700F08D0BDF80810E180BDF8E4
:102AA0000A102181BDF80C106181000708D5BDF81E
:102AB00010002080BDF812006080BDF81400A080D6
:102AC00028461BE74400002066A64C4070B502F083
:102AD00039FB08B1002070BD2FA0FDF7CDFB782099
:102AE00003F02AF808B135A04EE03FA0FDF7C4FB83
:102AF000782002F059FA08B143A045E04EA0FDF756
:102B0000BBFB322002F0D8FF08B154A03CE05CA02F
:102B1000FDF7B2FB01F066FB08B163A034E071A0E1
:102B2000FDF7AAFB7C48044602F0F6F90546E01CD6
:102B300002F0F2F945EAC005A01D02F0EDF945EA00
:102B4000801080B201F00CFD08B174A01CE07FA0E1
:102B5000FDF792FB40F2731001F01CFA08B185A05A
:102B600012E090A0FDF788FB322001F061FC08B173
:102B700095A009E09FA0FDF77FFB03F063F801201B
:102B800002F0C0FE18B1A4A0FDF776FBA2E7ADA04D
:102B9000FDF772FB012070BD6D707520696E697460
:102BA00069616C697A6174696F6E20636F6D706CB6
:102BB0006574652E2E2E2E2E2E0A00006D70755F08
:102BC0007365745F73656E736F7220636F6D6520DC
:102BD0006163726F7373206572726F72202E2E2E76
:102BE0002E2E2E0A000000006D70755F7365745FF5
:102BF00073656E736F7220636F6D706C65746520A2
:102C00002E2E2E2E2E2E0A006D70755F636F6E664F
:102C100069677572655F6669666F20636F6D6520B1
:102C20006163726F7373206572726F72202E2E2E25
:102C30002E2E2E0A000000006D70755F636F6E66A9
:102C400069677572655F6669666F20636F6D706C2A
:102C5000657465202E2E2E2E2E2E0A006D70755F47
:102C60007365745F73616D706C655F72617465200C
:102C70006572726F72202E2E2E2E2E2E0A000000EC
:102C80006D70755F7365745F73616D706C655F7295
:102C900061746520636F6D706C657465202E2E2ED7
:102CA0002E2E2E0A00000000646D705F6C6F616450
:102CB0005F6D6F74696F6E5F6472697665725F666F
:102CC00069726D7761726520636F6D6520616372F3
:102CD0006F7373206572726F72202E2E2E2E2E2E21
:102CE0000A000000646D705F6C6F61645F6D6F74EB
:102CF000696F6E5F6472697665725F6669726D771F
:102D000061726520636F6D706C657465202E2E2E68
:102D10002E2E2E0A000000006C000020646D705FF3
:102D20007365745F6F7269656E746174696F6E202C
:102D3000636F6D65206163726F7373206572726F6C
:102D400072202E2E2E2E2E2E0A000000646D705F33
:102D50007365745F6F7269656E746174696F6E20FC
:102D6000636F6D706C657465202E2E2E2E2E2E0ACC
:102D700000000000646D705F656E61626C655F6687
:102D800065617475726520636F6D65206163726F34
:102D90007373206572726F72202E2E2E2E2E2E0AC5
:102DA00000000000646D705F656E61626C655F6657
:102DB00065617475726520636F6D706C65746520F4
:102DC0002E2E2E2E2E2E0A00646D705F7365745F9A
:102DD0006669666F5F7261746520636F6D652061FF
:102DE00063726F7373206572726F72202E2E2E2E97
:102DF0002E2E0A00646D705F7365745F6669666F7E
:102E00005F7261746520636F6D706C657465202EF0
:102E10002E2E2E2E2E0A00006D70755F7365745F66
:102E2000646D705F737461746520636F6D6520619C
:102E300063726F7373206572726F72202E2E2E2E46
:102E40002E2E0A006D70755F7365745F646D705F20
:102E5000737461746520636F6D706C657465202E8A
:102E60002E2E2E2E2E0A000030B585B000242048CC
:102E70000094019402940394816941F020018161DE
:102E8000816901F020010491816941F010018161A3
:102E9000816901F010010491816941F004018161AF
:102EA000816901F004010491816941F008018161A7
:102EB0008069104D00F00800049000220C21284683
:102EC000FEF729FE0C2000900120CDE9010402202C
:102ED000039069462846FEF71DFD6815CDE90004FC
:102EE000694605480294FEF715FD05B030BD0000A7
:102EF0000010024000100140000C014010B58AB0E3
:102F0000002407941C2168460894FDF71DFB224805
:102F10002049C0E9001440F60F61C0E90241046194
:102F20008461FFF7C9FA08B1FEF7E0FC079407A92E
:102F300019480894FFF704F908B1FEF7D7FC6020A0
:102F4000CDE9000402940022694613480494FFF777
:102F50004DFA08B1FEF7CAFC042269460E48FFF795
:102F600045FA08B1FEF7C2FC082269460A48FFF795
:102F70003DFA08B1FEF7BAFC0C2269460648FFF795
:102F800035FA08B1FEF7B2FC0348FFF7F7F90AB0CB
:102F900010BD000000040040B400002010B58CB04B
:102FA00024216846FDF7D0FA0024164809941449F4
:102FB0000A94C0E900144FF6FF71C0E902410461B0
:102FC00084610320CDE900040120CDE902040494CA
:102FD000CDE90540079469460A480894FFF7EEF8E2
:102FE00008B1FEF783FC099409A906480A94FFF783
:102FF000A7F8002801D0FEF779FC0CB010BD000046
:1030000000080040FC00002010B58CB02421684668
:10301000FDF79AFA00241648099414490A94C0E965
:1030200000144FF6FF71C0E90241046144618461FC
:103030000320CDE900040120CDE902040494CDE988
:103040000540079469460A480894FFF7B7F808B1A5
:10305000FEF74CFC099409A905480A94FFF770F89B
:10306000002801D0FEF742FC0CB010BD0034014036
:10307000440100200C4810B50A4901604FF4E131C9
:103080004160002181600C22C160C0E904128161AD
:10309000C161FFF7ADFA002803D0BDE81040FEF78C
:1030A00025BC10BD003801408C010020FEE7000067
:1030B000642800D964200549C9684A1C4243642039
:1030C000B2FBF0F0884200D908467047B4000020F7
:1030D00010B500F063F8002000F05AF8002811D174
:1030E000042000F055F800280CD1082000F050F81A
:1030F000002807D10C2000F04BF8002802D100F086
:103100004DF8002010BD642801DD642070476FF089
:1031100063018842FADA08467047000070B50E462F
:10312000FFF7F1FF0025194C002805DD80B2FFF7FD
:10313000BFFF216848630CE009DAC0F1000080B2EB
:10314000FFF7B6FF21684D632168886303E02068BC
:103150004563206885633046FFF7D5FF002807DD0B
:1031600080B2FFF7A5FF2168CD632168086470BDB8
:1031700007DAC0F1000080B2FFF79AFF2168C86348
:1031800001E02068C5632068056470BDB4000020BC
:1031900001460148FFF7D2B9B400002005480021DC
:1031A00002685163026891630268D1630068016438
:1031B00070470000B400002010B501F0CFFD64207E
:1031C000FEF796FBFFF782FC20B105A0FDF754F84F
:1031D000012010BD07A0FDF74FF8002010BD000032
:1031E00070697463682C726F6C6C2C7961770D0A4E
:1031F000000000006D707520646D7020696E697448
:10320000206661696C65640D0A0000002DE9FF41CC
:10321000FEF786FC11490A68821A052A1BD308604A
:10322000FFF75CFB002816D00D48006803F036FB62
:1032300006460C480F46006803F030FB04460A4877
:103240000D46006803F02AFB8DE8F00002460B46AD
:1032500006A0FDF711F8BDE8FF8100000000002086
:10326000680000206000002064000020252E3266E7
:103270002C252E32662C252E32660D0A0000000009
:10328000FEE770477047000010B5064800F042F8AE
:1032900004481C3000F03EF8FEF742FC024908608A
:1032A00010BD0000D40100204000002064225043E3
:1032B000034A10606420414302F11C000160704722
:1032C000D401002010B5FEF72BFC10490A68821AC1
:1032D0000A2A19D30860FEF7FFF901460C4800F0EE
:1032E00024F80446FEF7FEF9014609481C3000F0B8
:1032F0001CF8642290FBF2F001B294FBF2F0BDE8FE
:10330000104000B2FFF70ABF10BD000040000020CF
:10331000D40100200021016041608160C160016131
:103320001421416102218161704741600268521A93
:103330008260C1684369511A5943836903FB0211D2
:103340004FF47A7391FBF3F10369194442F210735D
:103350000161994202DC5B42994200DA1946C0E9F8
:10336000032108467047FEF7E1BB30B58FB0282136
:103370006846FDF7E9F814210AA8FDF7E5F80121F0
:103380000804CDE900100024029402250491CDE93F
:1033900007504FF4E01009906846FEF72DFD08B184
:1033A00072B6FEE70F20CDE90A054FF48060CDE943
:1033B0000C4002210AA80E94FEF742FC002801D01E
:1033C00072B6FEE70FB030BD70470000F0B502687E
:1033D000204C214D214E224F224B4FF0804CA042D9
:1033E00009D0984207D0604505D0A84203D0B0422A
:1033F00001D0B84204D122F0700E4A6842EA0E02AF
:10340000A04209D0984207D0604505D0A84203D019
:10341000B04201D0B84203D122F44075CA682A43B1
:103420004D6922F080022A4302608A68C2620A68FB
:103430008262A04201D0984201D109690163012151
:1034400041610169C90703D0016921F001010161EE
:10345000F0BD0000002C01400004004000080040C6
:10346000000C00400034014010B501F01F030121A1
:10347000046A99408C430462016A9A4011430162D4
:1034800010BD0000F0B5036A026A22F00102026278
:1034900042688469124E24F073050C682C4323F0B3
:1034A00002058B682B430D4DA84201D0B04205D1D7
:1034B00023F00807CB683B4323F00403A84201D064
:1034C000B04205D14D6922F4407215438A692A43FE
:1034D00042608461496841630362F0BD002C014091
:1034E00000340140F0B5026A036A23F0100303625E
:1034F000436884690D6824F4E64444EA05248D6831
:1035000022F0200242EA05120F4D104EA84201D0CF
:10351000B04206D1CF6822F0800242EA071222F0C0
:103520004002A84201D0B04207D14D6923F4406364
:1035300043EA85038D6943EA8503436084614968F2
:1035400081630262F0BD0000002C014000340140A4
:10355000F0B5026A036A23F4807303624368C469A6
:1035600022F4007224F073050C68124E2C438D680F
:1035700042EA05220E4DA84201D0B04206D1CF68E2
:1035800022F4006242EA072222F48062A84201D0BB
:10359000B04207D14D6923F4405343EA05138D69C6
:1035A00043EA05134360C4614968C1630262F0BD28
:1035B000002C01400034014030B5046A026A22F454
:1035C000805202624268C3690D6823F4E64343EA0D
:1035D00005238D6824F4005444EA0534084DA842BC
:1035E00002D0084DA84204D14D6922F4804242EA3B
:1035F00085124260C36149680164046230BD000005
:10360000002C01400034014001680C3151E8002FCA
:1036100022F4907241E80023002BF5D101681431A7
:1036200051E8002F22F0010241E80023002BF5D1E0
:10363000016B012909D101680C3151E8002F22F0FA
:10364000100241E80023002BF5D1202180F8421020
:10365000002101637047000070B5044600680169ED
:10366000E26821F44051114301612169A0680843D7
:10367000616908432168CA6841F20C639A430243B6
:10368000CA6020684169A26921F440711143416117
:103690001E492068884202D1FEF778FB01E0FEF760
:1036A00065FB00EBC00101EB001260686421800043
:1036B000B2FBF0F3B3FBF1F36FF018067343B2FB08
:1036C000F0F5B2FBF0F605EB8305322303EB0515AD
:1036D000B5FBF1F5B6FBF1F605F0F00505EB0615C7
:1036E000B2FBF0F6B2FBF0F0B0FBF1F06FF01802B5
:1036F000504306EB800003EB0010B0FBF1F02168B3
:1037000000F00F002844886070BD000000380140C0
:103710002DE9F843984617460D460446089E24E0D6
:10372000701C22D0FEF7FCF9A0EB0800B0421AD8BA
:10373000CEB12068C168490717D5802D15D0402D1E
:1037400013D00168C94309070FD4016800254068F8
:1037500000902046FFF758FF0820606484F840502E
:103760000120BDE8F8830320FBE72068006835EA04
:10377000000004D00020B842D2D00020F1E70120A0
:10378000F9E7FEE7490050EAC12018BF04204A0DBE
:1037900018BF40F0010040F2FF72B2EB515F08BF6A
:1037A00040F00200012808BF052070470907090EF4
:1037B000002804DB00F1E02080F80014704700F0DE
:1037C0000F0000F1E02080F8141D70472DE9F04152
:1037D0004F1E00EBC7010446D1E9000115461E4605
:1037E00037F006020DD02A46334602F07DFD7F1EDB
:1037F00004EBC703D3E9002302F026FB37F00602EF
:10380000F1D1022F25D0042F13D0062F18BFBDE809
:10381000F0812A46334602F067FDD4E90A2302F01C
:1038200013FB2A46334602F05FFDD4E9082302F079
:103830000BFB2A46334602F057FDD4E9062302F07B
:1038400003FB2A46334602F04FFDD4E9042302F07D
:10385000FBFA2A46334602F047FDD4E9022302F080
:10386000F3FA2A46334602F03FFDD4E90023BDE8CF
:10387000F04102F0E9BA012203F043BB02F0E4BADE
:10388000002213461046114602F09ABB024A00205D
:10389000110703F036BB000001FDFFFF30380A2896
:1038A00001D2012070470020704770472DE9FE4F7C
:1038B00007460E460025684601F006F800246FF022
:1038C0000F0AE8464FF0010957F8240056F8241073
:1038D000401A00D5404203F073F9514603F03FFB14
:1038E00058F8241011F0FF4F0BD003F06BF84FF095
:1038F0007E5103F05DFA0A4920F00040884205DC61
:1039000007E0084908440849884202D309FA04F04C
:103910000543641C032CD7DB2846BDE8FE8F00005E
:10392000295C0F3E666666C19A99D9002DE9F04D73
:103930008D4F21F0004A86B005460C46BA452ADB79
:10394000AAEB070028430AD08848824501DC1AD137
:10395000CDB106B02846BDE8F04DFFF78CBF844AD4
:10396000844B284602F0C0FC07460E46824A834B31
:103970002846214602F0B8FC06B03A463346BDE878
:10398000F04D02F061BA0120FCF785FE06B0BDE8FB
:10399000F04DFFF775BF7A48824542DABAF1795F98
:1039A0000BDA2846FFF7EEFE042808BFFFF76EFF8C
:1039B000284606B02146BDE8F08D2A460B46104643
:1039C00002F092FC834602466E480E460B460621E4
:1039D0007844FFF7FBFE5A46334602F085FC8046EA
:1039E00069488A465A46334604217844FFF7EEFE7A
:1039F0005A46334602F078FC00223B4602F024FA95
:103A000002460B464046514602F0DAFA2A46234661
:103A100002F06AFC06B02A462346BDE8F04D02F0EB
:103A200013BA284624F0004100223D463B4602F0EE
:103A300059FD4FF0FF3203F064FA06460246534840
:103A40000F460B4606217844FFF7C0FE32463B4640
:103A500002F04AFCCDE900014D4832463B460421C4
:103A60007844FFF7B3FE32463B4602F03DFC0022AD
:103A70002B4602F0E9F9834602913046394602F0BE
:103A800075F9804643480D46504517DCDDE90001D5
:103A90005A46029B02F094FA42462B4602F024FC5E
:103AA00042462B4602F0D0F9012203F02AFA304AAE
:103AB000304B02F009FE304A304B4CE04FF0000A28
:103AC00052460B46404602F0BFF9CDE9031052467C
:103AD0002B461046194602F007FC32463B4602F0E0
:103AE00001FDDDE9033202F06BFA06460F46DDE91F
:103AF00000015A46029B02F063FA834600910122BC
:103B00003046394603F0FDF9194A1A4B02F0EAFC37
:103B100006460F4601224046294603F0F2F95A466E
:103B2000009B02F0E1FB32463B4602F0CDFD06462B
:103B30000F4601225046294603F0E3F90E4DDFF807
:103B400058802A46434602F0CDFC32463B4602F0FE
:103B5000C9FC2A46434602F0C5FC002CD8BF81F0C0
:103B6000004106B0BDE8F08D0000F03F0000F07F9E
:103B7000075C143326A6913C182D4454FB21F93FD1
:103B80000000E03F8C420000A2420000164200000C
:103B90002C4200003333EF3FFB21E93F2DE9F84F82
:103BA00004460D4621F0004000917349814211DC2A
:103BB0007249884201DC06D12CB120462946BDE875
:103BC000F84FFFF758BE6E48002DCCBF6D496E49C7
:103BD000BDE8F88F6D49814211DD6D498142D8BF42
:103BE0004FF0FF366DDD20462946FFF7CBFD042858
:103BF00008BFFFF74BFE20462946BDE8F88F654910
:103C0000654F25F00045814233DD6449814219DD6D
:103C1000002632464FF080432046294602F014F930
:103C200080468A4601222046294603F06AF900228E
:103C30003B4602F049FD4246534602F0C1F90446B4
:103C40000D463EE001260022BA463B462046294664
:103C500002F0FAF880460F460022534620462946D5
:103C600002F032FD42463B4602F0AAF904460D46F8
:103C700027E04B4981421BDDDFF828A10226002204
:103C800053462046294602F02FFB00223B4602F015
:103C9000DBF880460F46002253462046294602F0B4
:103CA00013FD42463B4602F08BF904460D4608E000
:103CB000032622462B4600203B4902F081F90446A8
:103CC0000D4622462B461046194602F00DFB8B4648
:103CD000824602460B4602F007FB0746024633487F
:103CE00088460B4606217844FFF770FD52465B4636
:103CF00002F0FAFA82462E488B463A4643460521A0
:103D00007844FFF763FD3A46434602F0EDFA024677
:103D10000B46002E504659460CDA02F095F8224622
:103D20002B4602F0E1FA01B022462B46BDE8F04FE7
:103D300002F0D8BB02F088F822462B4602F0D4FAF3
:103D40001C4A7A4402EBC603D3E9002302F0BCFC10
:103D500022462B4602F0B8FC174A7A4402EBC6030F
:103D6000D3E9002302F0BEFB009A002AB8BF81F01D
:103D70000041BDE8F88F0000000010440000F07F13
:103D8000182D4454FB21F93FFB21F9BF0000DC3F13
:103D90000000203E0000F33F0000F03F0000E63F3F
:103DA000008003400000F83F0000F0BF2E400000FC
:103DB000EC3F00008A3F0000523F00002DE9F04D2B
:103DC0009446CCF1000423F000464CEA0404594F19
:103DD00046EAD4749A46884621F00042BC4206D88E
:103DE000454240EA050442EAD474BC4204D9BDE825
:103DF000F04D6246FFF742BDAAF14055A5F17F653F
:103E000055EA0C040BD0022404EAAA744A4DDFF8E8
:103E10002CE144EAD87452EA000B04D00CE0BDE86F
:103E2000F04DFFF7BBBE002C14BF012CBDE8F08D98
:103E3000022C30D0032C32D056EA0C0B0AD0BE42F2
:103E400020D1BA4209D126F0804622F08042334682
:103E5000114617E000291ADB25E0DFF8E4B0FB4447
:103E6000002C04BFDBE90001BDE8F08D012C02BF8E
:103E7000DBE9000181F00041BDE8F08D022C0AD0A1
:103E8000032C0CD0BA4212D1B8F1000F0BDA2A4839
:103E90002C49BDE8F08D28462B49BDE8F08D284619
:103EA0007146BDE8F08D24482849BDE8F08D921B8D
:103EB00012153C2AC4BF204F244E10DCBAF1000F6B
:103EC000BEBF12F13C0F00273E4608DB624602F0FF
:103ED00077F821F00041FFF761FE07460E4694B1E6
:103EE000012C08BF86F000460DD0194A194B022C50
:103EF0003846314615D002F0E7FB2A46BDE8F04DC2
:103F0000114B02F0E1BB002213463846314602F065
:103F1000AFF904BF0220FCF7BEFB38463146BDE8CE
:103F2000F08D02F0D1FB2A46BDE8F04D064B02F0C1
:103F3000D9BA00000000F07F182D4454FB2109C0BD
:103F4000E63E0000FB21F9BFFB210940FB21F93FC0
:103F5000075C143326A6A13C08B560B120208DF87B
:103F6000000028208DF8010030208DF80200382054
:103F70008DF8030004E0A32204216846FCF7DCFA74
:103F80006A46042140F69E2001F032FE01F0F0FA6C
:103F900008BD00003EB5044602208DF80000CA208E
:103FA0008DF80100E3208DF8020009208DF8030050
:103FB0006A460421682001F01BFEA3208DF8000052
:103FC000610609D5C0218DF80110C8218DF80210B5
:103FD000C2218DF8031005E08DF801008DF8020074
:103FE0008DF8030014F4C07F09D0C4218DF80410AB
:103FF000CC218DF80510C6218DF8061005E08DF84E
:1040000004008DF805008DF806008DF808008DF885
:1040100007008DF809006A460A2140F6A72001F042
:10402000E7FDA0074FF0D80503D020208DF8000051
:1040300001E08DF800506A46012140F6B62001F0FB
:10404000D7FDA00601D5012000E0002000F08EF889
:1040500014F4C07F1ED0E0050AD5B2208DF8000010
:104060008B208DF80100B6208DF802009B2009E01E
:10407000B0208DF8000080208DF80100B4208DF86C
:10408000020090208DF803006A46042140F6A22029
:1040900001F0AEFDE1074FF40B6022D0F8218DF85E
:1040A00000106A46012101F0A3FDFA21072000F06B
:1040B00047FB072000F012FB012000F02FFB6420DB
:1040C00000F0D2FB4FF4FA7000F0DEFBC821254867
:1040D00000F0CCFA282000F0E1FA0A2000F0EEFA15
:1040E00005E08DF800506A46012101F081FDA0072E
:1040F00003D5D9208DF8000001E08DF800506A4604
:10410000012140F23D7001F073FD600701D50120EF
:1041100000E0002000F048F8E00601D5012000E0B2
:104120000020FFF719FF104D44F00800688101F0EE
:104130001FFA0020A873600601D50620A87314F4A6
:10414000C07F02D0A87B801DA87314F0140F02D08A
:10415000A87B1030A873A00702D0A87B001DA8730D
:1041600000203EBD09E3CA020C0200200EB54FF448
:10417000976310B106A107C901E008A207CA8DE83C
:1041800007006A460921184601F032FD0EBD000005
:10419000B8AAB38DB4980D355D000000B8AAAAAADC
:1041A000B088C3C5C700000008B560B1C0208DF855
:1041B0000000C2208DF80100C4208DF80200C62046
:1041C0008DF8030004E08B2204216846FCF7B4F963
:1041D0006A46042140F6982001F00AFD01F0C8F972
:1041E00008BD0000C8234FF48062024940F6F63053
:1041F00001F0A0B82C7000082DE9F04F89B01746E7
:10420000DDE912520024534E884681462C80A24696
:10421000B07B694601F03AF94FF0FF3B18B15846C0
:1042200009B0BDE8F08F708910F0140F4CD0BDF8C4
:1042300000109DF8022049BA090441EA02239DF8C2
:1042400003100B433B60BDF804109DF8062049BAEB
:10425000090441EA02229DF807101B140A437A6000
:10426000BDF808109DF80A4049BA090441EA042142
:104270009DF80B4012142143B960BDF80C409DF825
:104280000EC064BA240444EA0C2C9DF80F400914B3
:104290004CEA040CC7F80CC04FEA2C475B43494377
:1042A00002FB023207FB071111441024A1F17061D7
:1042B000B1F1007F04D901F05BF9A5F800A0AEE7E9
:1042C000298841F4807129804206694611D50A196E
:1042D000A41D13885BBAA8F8003053885BBAA8F80D
:1042E0000230928852BAA8F804202A8842F00802C4
:1042F0002A8010F4C07F11D00A19A41D13885BBA5C
:10430000A9F8003053885BBAA9F80230928852BAF3
:10431000A9F804202A8842F070022A80800716D06B
:104320000C44E07800F0C00500F03F016078C00761
:1043300006D0C80801F007013268491C02B1904755
:104340006078000703D5716809B1A8098847002083
:1043500066E700000C0200202DE9FF41044603A897
:1043600000F06AFEBDF80C00410CC3032F48008921
:1043700000F0030254F82250420700D56D42C0F30A
:10438000C102860654F8222000D55242C0F381169D
:10439000C00554F8264000D56442A5FB0367E81722
:1043A00000FB037005FB0100850045EA9670A2FB47
:1043B0000367D51705FB037502FB0152950045EA1B
:1043C0009672A4FB0367E51705FB037304FB013139
:1043D0008B0043EA9671030E8DF80030030C8DF8C4
:1043E0000130030A8DF802308DF80300100E8DF8AD
:1043F0000400100C8DF80500100A8DF80600080E58
:104400008DF80800080C8DF80900080A8DF80A00DC
:104410008DF807208DF80B106A460C214FF425709B
:1044200001F0E6FB04B0BDE8F08100000C020020C2
:1044300030B5044613A285B007CA8DE807004FF0D7
:10444000FF35C82C16D8C820B0FBF4F1491E080A65
:104450008DF80C008DF80D1003AA022140F21620F1
:1044600001F0C6FB30B96A460C2140F6C12001F0CC
:10447000BFFB10B1284605B030BD0548848100203F
:10448000F9E70000FEF2ABC4AAF1DFDFBBAFDFDF6C
:104490000C020020F8B53049098901F0030250F8F8
:1044A00022404A0700D56442C1F3C1028B0650F88E
:1044B000222000D55242C1F3811350F82330C805A1
:1044C00000D55B42254984FB0140850045EA947094
:1044D00082FB0142A40F44EA820483FB0121950F71
:1044E00045EA8105010E8DF80010010C8DF80110D0
:1044F000010A8DF802108DF803006A4604214FF47A
:10450000747001F075FB4FF0FF3688B9200E8DF8FE
:104510000000200C8DF80100200A8DF802008DF8B3
:1045200003406A4604214FF4757001F061FB08B145
:104530003046F8BD280E8DF80000280C8DF80100DB
:10454000280A8DF802008DF803506A4604214FF4C2
:10455000767001F04DFBF8BD0C02002009E3CA02A1
:104560002DE9FF4104463CA004F0030300680290DB
:104570003AA0006803903AA006683AA0056802A82D
:10458000C15C8DF80010C4F3C101425C8DF80120BC
:10459000C4F38112805C8DF8020003A8C35C8DF81F
:1045A0000430415C8DF80510805C8DF806006A4689
:1045B000032140F2264001F01BFB4FF0FF37E0BB28
:1045C00001AA032140F22A4001F012FBA8BBCDE969
:1045D000006560070BD59DF8000040F001008DF8E4
:1045E00000009DF8040040F001008DF80400A006D2
:1045F0000BD59DF8010040F001008DF801009DF8F9
:10460000050040F001008DF80500E0050BD59DF890
:10461000020040F001008DF802009DF8060040F015
:1046200001008DF806006A4603214FF4886001F00E
:10463000DFFA10B901AA032100E004E040F23140A2
:1046400001F0D6FA18B1384604B0BDE8F08106484A
:1046500004810020F8E700004CCD6C000CC92C0050
:1046600036567600264666000C0200204FF47A7219
:1046700090FBF2F008B54843010E8DF80010010CD4
:104680008DF80110010A8DF802108DF803006A46BA
:1046900004214FF4AE7001F0ABFA08BD0521B0FB68
:1046A000F1F008B5010A8DF800108DF801006A4696
:1046B00002214FF4AD7001F09BFA08BD0521B0FB5B
:1046C000F1F008B5010A8DF800108DF801006A4676
:1046D00002214FF4AC7001F08BFA08BD08B500213F
:1046E0008DF80010C10702D030218DF8001081072D
:1046F00005D59DF8001041F00C018DF80010400721
:1047000005D59DF8000040F003008DF800006A46D2
:1047100001214FF4A47001F06BFA08BD08B560B137
:10472000042800D90420401E8DF800006A460121AB
:1047300040F24F1001F05CFA08BD0120F3E70000E1
:104740002DE9FC41054640074FF0FF367CD0B1F51E
:10475000C86F79D8084602F04BFA3E4902F032F9A8
:10476000074601A800F04AFC9DF80400022806D084
:1047700004280DD008282ED0102865D134E00E2151
:10478000384602F0ECFB02F0FBF984B2324907E054
:104790000D21384602F0E3FB02F0F2F92F4984B212
:1047A000384602F039FA02F0EBF9210A8DF80010D0
:1047B00080B28DF80140010A8DF802108DF80300D7
:1047C000E8076C4620D0224602214FF4EA7001F03F
:1047D0000FFAC8BB11E00C21384602F0C0FB02F012
:1047E000CFF984B21E49DBE70B21384602F0B7FB54
:1047F00002F0C6F984B21B49D2E7A21C02214FF491
:10480000927001F0F5F9F8B9A8070DD56A460221B2
:104810004FF4EC7001F0ECF9B0B9A21C02214FF496
:10482000947001F0E5F978B9680710D56A4602215D
:104830004FF4EE7001F0DCF930B9A21C02214FF404
:10484000967001F0D5F910B13046BDE8FC8100202A
:10485000FBE7000000004843000040460000C04560
:10486000000040450000C0440521B0FBF1F008B550
:10487000010A8DF800108DF801006A4602214FF4FC
:10488000EF7001F0B5F908BD0521B0FBF1F008B5F6
:10489000010A8DF800108DF801006A4602214FF4DC
:1048A000ED7001F0A5F908BD38B504468DF800009B
:1048B0004FF0FF33012269460248FDF703FF20460F
:1048C00038BD00008C0100202DE9FE430646264835
:1048D00001AB042240680D21007800F00BFB10B101
:1048E0000720BDE8FE839DF804101C2000EAD102D9
:1048F0009DF80710DFF87490C1F301131A438DF887
:1049000000209DF80520C1F3810300EAD2021A437A
:104910008DF801209DF8062001F0030100EAD20085
:1049200008430024124F8DF80200A0466D46285D12
:1049300010B146F824900AE046F824800DE000BF4C
:1049400056F82400394602F067F946F82400285D3D
:10495000401E10F0FF002855F2D1641CE4B2032C75
:10496000E5D30020BDE70000780000207B14AE3EB8
:104970001D5A843F2DE9FE4F05460120C14E8DF89A
:1049800000004FF000088DF8018030680C46174693
:10499000817C70686B460222007800F0B4FA4FF018
:1049A000FF3A00287AD1C820FCF7A2FF8DF80080DA
:1049B00030686B460122C17B7068007800F0A3FA72
:1049C0000028EFD130686B46012241797068007889
:1049D00000F099FA0028E5D130686B460122817C0D
:1049E0007068007800F08FFA0028DBD130686B46E1
:1049F0000122C17D7068007800F085FA0028D1D1CD
:104A000030686B46012201797068007800F07BFA0B
:104A10000028C7D14FF00C098DF8009030686B4624
:104A2000012201797068007800F06DFA002835D114
:104A30000F20FCF75DFFB06A6B460122407A8DF8CB
:104A40000000306881787068007800F05CFA002817
:104A500024D1B06A6B460122007A8DF800003068DC
:104A600041787068007800F04EFA002873D1B06A7F
:104A7000807A0FB140F0E0008DF8000030686B469E
:104A8000012281797068007800F03DFA002862D137
:104A90002FB1B06AC07A40F0E00001E04AE018208F
:104AA0008DF8000030686B460122C179706800788B
:104AB00000F029FAF0BB17B1C820FCF719FF40201D
:104AC0008DF8000030686B4601220179706800782B
:104AD00000F019FA70BB78208DF8000030686B4642
:104AE000012241797068007800F00DFA10BB322085
:104AF000FCF7FEFE8DF80080306847466B46417932
:104B000070680122007800F0FEF998B93168706889
:104B1000B046897A00786B46022200F0EBF948B97A
:104B2000BDF80000AF6040BAB0FBF9F06F60C6B2EC
:104B30002F6000E00FE0A76067602760002739E082
:104B4000D8F80010D8F804006B46C97A00780C2217
:104B500000F0D0F910B15046BDE8FE8FBDF800005E
:104B6000236840BA02B2BDF80200BDF804101A442E
:104B7000226040BA626800B21044606049BAA0681E
:104B800009B20844A060BDF806002B6840BA01B223
:104B9000BDF80800BDF80A201944296040BA6968C8
:104BA00000B20844686052BAA86812B210447F1C70
:104BB000FFB2A860B742C3D328688322C117090493
:104BC00041EA104100040023FBF731FB3246002389
:104BD000FBF72DFB286068688322C117090441EAAE
:104BE000104100040023FBF722FB32460023FBF7B1
:104BF0001EFB6860A8688322C117090441EA1041BE
:104C000000040023FBF713FB32460023FBF70FFBE6
:104C1000A86020684FF40065C117090441EA1041FB
:104C200000042A460023FBF702FB32460023FBF771
:104C3000FEFA206060682A46C117090441EA104163
:104C400000040023FBF7F3FA32460023FBF7EFFAE8
:104C50006060A0682A46C117090441EA10410004B7
:104C60000023FBF7E4FA32460023FBF7E0FAA060EA
:104C7000002802DDA0F5803001E000F58030A06062
:104C8000002069E7780000202DE9F84F81462E4882
:104C90008846002540686B46032200780D2100F00D
:104CA00029F910B10720BDE8F88F9DF80000002415
:104CB00000F01F008DF800009DF801006FF00F0B51
:104CC00000F01F008DF801009DF802006E4600F014
:104CD0001F008DF802004FF0010A00BF59F82410A0
:104CE00058F82400081A00D5404201F069FF5946DF
:104CF00002F035F90746305DC0B1144802E01449AE
:104D000001F08AFF315D491E11F0FF013155F6D1E6
:104D10000146384601F056FE4FF07E5102F048F849
:104D20000C4920F00040884205DC07E00A4838447E
:104D3000B0F1D97F02D90AFA04F00543641C032CB0
:104D4000CCDB2846AFE70000780000200000C84117
:104D500054E3853F295C0F3E0000E0BE1FB54FF4D1
:104D600040400121009003911120CDE90101084C40
:104D700069462046FCF7CEFD012291032046FCF750
:104D8000CAFE0122D1032046FCF7C5FE1FBD00006C
:104D9000000C01402DE9F047994616460D460446A1
:104DA000FDF712FD00281ED06006000EFDF7DCFCAA
:104DB000FDF75EFDA0B12846FDF7D6FCFDF758FDD6
:104DC000FDF702FD012000EB4400C0B2FDF7CCFC72
:104DD000FDF74EFD4FF4004A304D4FF4804850E04F
:104DE000FDF720FD0020BDE8F08700240122514698
:104DF0002846FCF790FE07276006040E0022414675
:104E00002846FCF788FEFDF761FD01224146284651
:104E1000FCF781FEFDF75AFD51462846FCF776FE69
:104E200008B144F001047F1EFFB2E5D200224746DC
:104E300041462846FCF76FFE89F80040012E4FF0EE
:104E400000023946284622D0FCF765FEFDF73EFDFC
:104E5000002251462846FCF75EFEFDF737FD012291
:104E600039462846FCF757FEFDF730FD002239464B
:104E70002846FCF750FEFDF729FD761E09F10109D1
:104E8000F6B2002EB1D1FDF7CDFC0120ABE7FCF767
:104E900042FEFDF71BFD0122DBE70000000C014094
:104EA0002DE9F0411E4615460F460446FDF78CFCE1
:104EB000002819D06006000EFDF756FCFDF7D8FC5F
:104EC000A0B13846FDF750FCFDF7D2FC002406E007
:104ED000305DFDF749FCFDF7CBFC38B1641CAC42FA
:104EE000F6DBFDF79FFC0120BDE8F081FDF79AFCA1
:104EF0000020F9E710B5FFF74DFF08B1002010BD05
:104F00004FF0FF3010BD10B5FFF7CAFF08B1002009
:104F100010BD4FF0FF3010BD90F90010002902DDE8
:104F20004FF00000704702DA4FF00400704790F92C
:104F30000110002902DD4FF00100704702DA4FF046
:104F40000500704790F90200002802DD4FF00200D2
:104F5000704702DA4FF0060070474FF007007047C5
:104F6000FCF7ECFDFEF701FAFDF77EFFFDF7C6FF4B
:104F7000FEF714F8FEF748F8FEF77CF8FEF7A8F8FD
:104F8000FCF7B6FBFEF780F9C8210846FEF78EF95C
:104F9000FEF712F9FCF756FCFEF794F9FEF736F926
:104FA0000120FCF7A5FCF5E72DE9F041124C20F0BB
:104FB0000101002594F8240010B10020BDE8F08123
:104FC000A07A4FF0FF3668B10840277C20748842F1
:104FD00000D0354641B1012000F09CFE00F0C8FA37
:104FE00038B127743046E9E7207D00B1012000F098
:104FF00091FE2846E2E70000780000200D494A7A39
:1050000042B1012A08D0022A0FD0032A0FD04FF054
:10501000FF307047022200E004220270C97C11B107
:105020001106C90D0170002070470822F5E7102213
:10503000F3E70000780000200F494A7A42B1012AC4
:1050400009D0022A11D0032A12D04FF0FF30704746
:105050004FF4804201E04FF400520280C97C11B14C
:10506000C2F34E010180002070474FF48052F4E7F4
:105070004FF40062F1E70000780000200B49097A44
:1050800039B1012907D002290AD003290BD0002108
:1050900003E0FA2101E04FF4FA710180002070472B
:1050A0004FF47A71F9E74FF4FA61F6E778000020DF
:1050B0000A49097A41B1012908D002290AD00329F5
:1050C0000AD04FF0FF307047054900E00549016004
:1050D000002070470449FAE70449F8E77800002007
:1050E00000000343000083423333034233338341E0
:1050F0000C49C97A072913D2DFE801F01204060A25
:105100000C0E1000BC2100E06221018000207047DD
:105110002A21FAE71421F8E70A21F6E70521F4E746
:105120000021F2E778000020054991F8242012B10F
:105130004FF0FF307047C9890180002070470000A0
:10514000780000202DE9FC41544C80208DF80000AF
:1051500020686B460122817C60680078FFF7D3FEEF
:105160004FF0FF3708B14EA00FE0C820FCF7C0FB9E
:1051700000258DF8005020686B460122817C606814
:105180000078FFF7C0FE18B147A0FBF775F824E0E0
:10519000C820FCF7ADFB20686B460622817D606865
:1051A0000078FFF7A7FEC0B99DF805009DF8031031
:1051B000C007400F01F0010140EA41019DF80100E4
:1051C0004FF0010600F0010001430BD0012907D088
:1051D000022919D036A0FBF74FF83846BDE8FC810C
:1051E000E67412E020686B460122C178606800789E
:1051F000FFF780FE08B138A0C7E79DF8000010F067
:105200000F0021D0042821D0E574FF2004F80A0FF4
:105210004FF6FF7104F8020C04F8010C6070A180D5
:10522000A0712072A67026766576E572A572E5609B
:1052300025616561A576E576A5834FF4FA6000F0F7
:105240009DFB38B126A0A0E727489EE727A0FBF7E3
:1052500013F8C5E7022000F0B3FA08B12BA094E7D9
:105260002A2000F0F3FB08B12AA08EE7322000F0DC
:1052700023FC08B129A088E70020FFF795FE08B1BC
:1052800028A082E7002000F0CFFA08B127A07CE731
:10529000002000F051FC0020A0E700007800002072
:1052A0003738310A000000003739300A00000000AA
:1052B000556E737570706F7274656420736F667469
:1052C000776172652070726F6475637420726576A1
:1052D0002025642E0A0000003831340A0000000046
:1052E0003837310A00000000E47D000848616C6630
:1052F0002073656E73697469766974792070617260
:105300007420666F756E642E0A0000003837360A06
:10531000000000003838310A000000003838360A32
:10532000000000003839310A000000003930360A28
:10533000000000002DE9FF4FDFF89480064685B09D
:1053400098F8250015460F464FF0FF39B0BBAFB3B4
:10535000002420E0301B102800DD102080B283469E
:105360003A1901469246204600F042FC30BB6A469C
:105370005946204600F0D2F800BB50465A466946CE
:10538000FBF7AEF820B16FF0010009B0BDE8F08F77
:1053900004EB0B0084B2B442DCD3280A8DF8100071
:1053A0008DF81150D8F80000444604AB817ED8F83F
:1053B000040002220078FFF7A6FD08B14846E4E7A2
:1053C000012084F825000898E0840020DDE7000033
:1053D000780000202DE9F84305464FF0FF392828D2
:1053E00044D80727284C00267DB1012000F0FCFAA4
:1053F00020208DF800004FF00108012D17D0052D59
:1054000018D88DF8018005201FE0002000F0ECFA8C
:105410008DF800608DF8017020686B460222817C57
:1054200060680078FFF76FFD00BB267529E08DF8F6
:105430000160E8E7142D04D802208DF801000A204D
:1054400003E003208DF80100142000F0FFFA9DF81E
:1054500001006B4607EB80108DF8010020680222E6
:10546000817C60680078FFF74EFD10B14846BDE8CA
:10547000F8830820A072267384F814800020FFF7B8
:1054800093FD0020F3E70000780000202DE9F843A9
:10549000214C0646174694F8240089464FF0FF3801
:1054A00090B3A07A80B320686B460222817A60684C
:1054B0000078FFF71FFD38BBBDF8000045BAB542C4
:1054C00002D2002038701FE060684188B5EB510FB0
:1054D00011D9216800786B46497C0122FFF70AFD4B
:1054E00090B99DF80000C00605D500F041F86FF0B6
:1054F0000100BDE8F8832068F2B24B46C17A6068CB
:105500000078FFF7F7FC08B14046F2E7B5FBF6F08C
:10551000401E38700020ECE778000020F8B5160037
:105520000D464FF0FF371FD0104CA17AE1B1010AB0
:105530008DF80010C0B28DF80100411960684289F1
:10554000914211D8216800786B46097E0222FFF74C
:10555000DAFC48B92068EAB23346417D60680078D9
:10556000FFF7C8FC002800D03846F8BD78000020BE
:10557000F8B5564C4FF0FF36A07A00287DD00025B4
:105580008DF8005020686B460122C17B606800786E
:10559000FFF7B9FC002870D120686B4601224179E1
:1055A00060680078FFF7AFFC002866D120686B4682
:1055B0000122017960680078FFF7A5FC00285CD122
:1055C00094F82400E0B30C208DF8000020686B46AE
:1055D0000122017960680078FFF795FC002872D1FC
:1055E0003220FCF785F9C0208DF80000A07AC007B2
:1055F00002D0E0208DF8000020686B46012201797E
:1056000060680078FFF77FFC00285CD1607C18B1EF
:1056100002208DF8000001E08DF8005020686B46F4
:105620000122C17B60680078FFF76DFC28BB8DF814
:10563000005020686B4601224179606800783EE0A6
:10564000FFE704208DF8000020686B4601220179F5
:1056500060680078FFF757FC78B9A07C90B9A07A11
:10566000C0070FD05FF060008DF8000020686B4627
:10567000012201796068007800E024E0FFF743FC34
:1056800008BB01E04020EFE73220FCF731F9607CF5
:1056900018B101208DF8000001E08DF8005020685D
:1056A0006B460122C17B60680078FFF72CFC50B983
:1056B0002068064B01224179606810330078FFF7BB
:1056C00022FC002800D03046F8BD00007800002001
:1056D0002DE9F047394C82468AB094F82400894677
:1056E00020B1002000F00EF9012600E0002607A8F6
:1056F000FFF7C4FC06A8FFF781FC09A8FFF7F8FC38
:1057000008A8FFF711FD94F80A80277C00250022E5
:1057100049465046FFF72EF910B16D1C022DF6DBFD
:10572000022D1AD00025012203A96846FFF722F9AD
:1057300010B16D1C022DF6DB022D0ED003A94846D8
:10574000FEF7B4F8C5B269465046FFF79DFA10F06F
:10575000FF0F4FF0000002D002E0002505E001201D
:105760000DB940F0020040F00405FF202072607285
:10577000E0724FF6FF71E181A07220740120207366
:10578000BDF81C0000F0FAF89DF8180000F018F8B9
:10579000BDF8240000F05AF9BDF8200000F08CF9A3
:1057A000404600F0C9F93846FFF7FEFB16B101206C
:1057B00000F0A8F80AB02846BDE8F087780000207D
:1057C00038B5184C4FF0FF35A17A19B3022806D02E
:1057D000042806D008280ED010281BD10DE0002088
:1057E00000E008208DF80000607A9DF80010B0EB12
:1057F000D10F04D005E01020F4E71820F2E70020D4
:1058000038BD20686B460122C17960680078FFF7D7
:105810007AFB08B1284638BD9DF80000C0086072C8
:10582000EDE7000078000020F8B5354C0546A07C77
:10583000A84201D10020F8BD31484FF0FF366B4639
:10584000D0E900104FF001020979007835B3FFF775
:1058500051FB70BB9DF800006B4620F020008DF8D6
:10586000000020680122017960680078FFF74BFB97
:10587000F8B90320FCF73CF802208DF8000094F8FA
:10588000220078B382202BE020686B460122017D44
:1058900060680078FFF737FB58B92EE0FFF72AFB66
:1058A00038B9A07AC0079DF8000003D040F020006E
:1058B00002E00CE020F020008DF8000020686B462C
:1058C0000122017960680078FFF71DFB08B13046BE
:1058D000F8BD0320FCF70CF894F8220000B18020FA
:1058E0008DF8000094F823000028CDD09DF800002A
:1058F00040F030008DF80000C6E7A5749AE700007C
:105900007800002038B51C4C94F8241081421DD03A
:10591000002500B394F82500D0B1002000F0FAF97A
:105920000020FFF781FFE08C00F0C6F88DF80050F2
:1059300060686B46012200782321FFF7E4FA01201A
:1059400084F8240000F0E6F9FFF712FE002038BDCD
:105950004FF0FF3038BD002000F0DCF9207C8DF8DE
:10596000000060686B46012200782321FFF7CBFA24
:1059700084F82450E8E700007800002038B5194C7E
:105980004FF0FF35A17A31B3FA2809D0B0F5FA7F8C
:1059900008D0B0F57A7F0FD0B0F5FA6F1BD10DE0CB
:1059A000002000E008208DF80000207A9DF800100B
:1059B000B0EBD10F04D005E01020F4E71820F2E797
:1059C000002038BD20686B4601228179606800782C
:1059D000FFF799FA08B1284638BD9DF80000C008C5
:1059E0002072EDE77800002038B5174C054694F892
:1059F0002300A84201D1002038BD0DB1302000E0C5
:105A000000208DF80000A07C28B19DF8000040F037
:105A100002008DF8000094F8220028B19DF80000E3
:105A200040F080008DF8000020686B460122017D67
:105A300060680078FFF767FA10B14FF0FF3038BDAB
:105A400084F82350D7E700007800002038B5194CBF
:105A50004FF0FF35A17A31B3BC2801D3012010E00B
:105A6000622801D302200CE02A2801D3032008E099
:105A7000142801D3042004E00A2801D3052000E003
:105A800006208DF80000E07A9DF80010884201D1D0
:105A9000002038BD20686B4601228178606800785C
:105AA000FFF731FA08B1284638BD9DF80000E072D2
:105AB000EEE7000078000020F8B51E4D04464FF0D8
:105AC000FF37A87A48B395F8240030BB287D4FF4FF
:105AD0007A7648B164B1282C03D8E0B2FFF77AFC9B
