:020000040800F2
:1000000060080020ED010008912E0008412700083B
:100010001D2C0008DD150008AF33000800000000AB
:10002000000000000000000000000000B32E0008E7
:100030006916000800000000932E0008932F0008A6
:10004000070200080702000807020008070200086C
:10005000070200080702000807020008070200085C
:10006000070200080702000807020008070200084C
:10007000070200080702000807020008070200083C
:10008000070200080702000807020008070200082C
:10009000070200080702000807020008070200081C
:1000A000070200080702000807020008070200080C
:1000B00007020008070200080702000807020008FC
:1000C00007020008070200080702000807020008EC
:1000D00007020008070200080702000807020008DC
:1000E00007020008070200080702000807020008CC
:1000F00007020008070200080702000807020008BC
:1001000007020008070200080702000807020008AB
:10011000070200080702000807020008070200089B
:10012000070200080702000807020008070200088B
:1001300000F002F800F04AF80AA090E8000C8244AF
:100140008344AAF10107DA4501D100F03FF8AFF28C
:10015000090EBAE80F0013F0010F18BFFB1A43F0A5
:10016000010318475C4900007C490000103A24BF95
:1001700078C878C1FAD8520724BF30C830C144BF0C
:1001800004680C607047000000230024002500264E
:10019000103A28BF78C1FBD8520728BF30C148BFEA
:1001A0000B607047662904F06083642900F0988032
:1001B000002070471FB500F0BBFC040000200021A8
:1001C00004F06AF8E0601FBD10B510BD00F0D0FD6E
:1001D0001146FFF7EFFF03F071FB00F0EEFD03B4F3
:1001E000FFF7F2FF03BC03F028F90000094880473D
:1001F00009480047FEE7FEE7FEE7FEE7FEE7FEE709
:10020000FEE7FEE7FEE7FEE704480549054A064B20
:1002100070470000F52F000831010008600200203F
:10022000600800206004002060040020704710B5C2
:100230004C1084EA530404D54042C1F1000138BF98
:10024000491E1B4204D55242C3F1000338BF5B1E56
:1002500000F071F914F0804F04D04042C1F1000168
:1002600038BF491E14F0004F04D05242C3F10003BE
:1002700038BF5B1E10BD00000FB4044910B503AABF
:10028000029800F043FC10BC5DF814FB60000020F5
:1002900070B5044685690068C10601D5302600E0C6
:1002A0002026C00707D070BDD4E901213046904711
:1002B000206A401C20626D1EF6D570BD70B50446E4
:1002C00085690078C00707D170BDD4E901212020DD
:1002D0009047206A401C20626D1EF6D570BD00005C
:1002E0002DE9F0410646002410687529314616A50F
:1002F00010D0AFF30080002802DA404213A507E0D7
:1003000031688A0701D512A502E0490704D511A575
:10031000012401E0AFF3008000210A2206F1240746
:1003200009E0B0FBF2FCB0FBF2F302FB1C00303042
:1003300078541846491C0028F3D123462A463046F3
:10034000BDE8F04100F079B9000000002D00000088
:100350002B000000200000002DE9F05F89460446D4
:100360004FF0000ADFF874B1FB44C0F820A020462B
:10037000E1688847002874D0252806D0D4E90121F7
:100380009047206A401C2062F1E700265F46204625
:10039000E16888472028054607DB312D05D278190A
:1003A00010F8200C08B10643F1E7B00701D526F09C
:1003B0000406C4F81CA00027C4F818A02A2D09D0F0
:1003C000284603F033F838B304EB8708303DC8F80B
:1003D000185019E059F8041B204604EB870291617C
:1003E000E1688847012F054618D1E069002820DA26
:1003F00026F020061DE0D8F8180000EB800005EB81
:1004000040003038C8F818002046E16888470546A3
:1004100003F00CF80028EED1012F0AD02E2D08D1C0
:100420002046E16888477F1C0546022F46F02006DB
:10043000C4DBA069002803DA404246F00106A0614F
:10044000F00701D026F010066C2D0BD0682D09D0D6
:100450004C2D39D06A2D35D0742D35D07A2D33D02E
:1004600016E038E0E1682F4620468847B842054646
:1004700009D16C2F26D04FF48060E16806432046F6
:100480008847054604E06C2F1AD04FF4807006436D
:100490000DB3A5F14100192802D8203546F40066B5
:1004A0004A462946204626604E46FFF77BFE80B12D
:1004B00001280BD0F61D26F0070000F1080956E7C9
:1004C0004020E4E78020D8E70020D6E706F10409C1
:1004D0004DE7284652E7206ABDE8F09F5E460000DF
:1004E0004FF0000200B5134694469646203922BFCD
:1004F000A0E80C50A0E80C50B1F12001BFF4F7AF18
:10050000090728BFA0E80C5048BF0CC05DF804EBF9
:10051000890028BF40F8042B08BF704748BF20F867
:10052000022B11F0804F18BF00F8012B7047704765
:1005300070477047704753EA020C00F069802DE95C
:10054000F04B4FF00006002B1FBFB3FA83F503FA00
:1005500005F424FA05F65E4012BF1643B2FA82F59E
:1005600002FA05F4C5F120051EBF22FA05FC44EA93
:100570000C04203556EA044C4FEA144418BF641C9E
:100580004FF000084FF00009904271EB030C39D393
:10059000002919BFB1FA81F701FA07F6B0FA80F71E
:1005A00000FA07F6C7F120071EBF20FA07FC46EA4B
:1005B0000C062037B6FBF4FCA7EB0507103F07F04D
:1005C0001F0BCBF120060CFA0BFB2CFA06F644BFEE
:1005D000B3460026202FA4BF5E464FF0000B5BEA17
:1005E000060C08BF4FF0010B19EB0B09ABFB027CAB
:1005F00048EB0608C01B06FB02CC0BFB03CC71EBDF
:100600000C01C1E70B46024641464846BDE8F08B67
:1006100013B54FF000004FF00001AFF30080BDE8CC
:100620001C40704710B500F087FA006810BD10B587
:10063000044600F081FA046010BD2DE9F0470D4634
:1006400099469246044600F124080168880604D5BC
:10065000E06921F01001216000E00120A84201DDE5
:10066000471B00E00027A1697A1902EB0900081A6C
:10067000A0612078C00602D42046FFF709FE0026BC
:1006800008E0D4E901211AF806009047206A401CCE
:10069000761C20624E45F4DB2078C0060AD5204641
:1006A000FFF7F6FD06E0D4E9012130209047206AEB
:1006B000401C2062381EA7F10107F4DC07E0D4E9F2
:1006C000012118F805009047206A401C2062281E6E
:1006D000A5F10105F3DC2046FFF7F0FD20780006C8
:1006E00002D50220BDE8F0870120FBE770472DE925
:1006F000FF4F0C461E464FF0FF378BB0D2E900018A
:10070000DDF860800A908A46C1F30A5505B93D4676
:10071000002108464FF00000BAF1000F00F440003D
:1007200005DA00EB80004FF4400101EA50004FEA87
:100730009059B9F1010F00DDB9460A9850EA4A0014
:100740000ED044F61050A5F2FF3545432F14B8F1F2
:10075000000F1ED07542291E1EDDC9F100021CE0EB
:10076000B8F1010F4FF0000001D0302103E0F24357
:1007700005E02154401CB042FBDB30460022002142
:1007800021540B99C1F80880C1E900200FB0BDE8E1
:10079000F08FBD1B6D1CDEE74A4600DA694206A8F1
:1007A00000F06CFA06AB93E8070003AB83E80700A0
:1007B00050460A9900F04AFB8DE80700A0F500506A
:1007C0001F3800900398002D0ADD42F21F014A46AF
:1007D0000844002303A90390684600F0B3FD09E034
:1007E000A0F500504A461F38002303A9039068462D
:1007F00000F0BDFD8DE807000004000C03D04FF0B1
:10080000FF30410800E01046B8F1000F03D000228D
:10081000009215461EE0751E05D400F091F93032A5
:1008200062556D1EF9D5B3460122084302D000225D
:100830007F1C04E02078302801D100227F1E002A8E
:10084000099784D01DE0112D07DA00F079F93032D4
:1008500062556D1C50EA0102F5D1084302D00098A0
:10086000C8B10EE00021681E05E0235C625C6354A1
:100870002254401E491C8142F7DBAB46A81B401E98
:100880000990002004F80B000B98099AC0F8088022
:10089000C0E9002B7AE711264FF0000857E72DE951
:1008A000F04F88460446D21D22F0070191B0D1E9ED
:1008B0000001CDE90A0102F07BFD02460B98C00F52
:1008C00001D02D2007E02068810701D52B2002E010
:1008D000202101EAC000032A099001D0072A05DB84
:1008E00003464146204600F089F90BE12078800656
:1008F00001D5E06900E00620B8F1650F814606D019
:10090000B8F1660F18D0B8F1670F70D131E0002050
:10091000B9F1110F009001DB112301E009F101038E
:100920000AAA01A90CA8FFF7E2FEDDE90C70002677
:1009300009F10105834647E001204B4600904FF046
:1009400000470AAA01A90CA8FFF7D1FEDDE90DB006
:100950000C995D46002610B909F101000D18B9EB9C
:10096000050003D4C0F1FF3609F10105A5EB09002C
:100970002BE0B9F1010F01DA4FF001090020B9F1C4
:10098000110F0090484601DD112300E003460AAA3A
:1009900001A90CA8FFF7ABFEDDE90C704D4600265F
:1009A0008346207800070AD4AB4500DA5D4601A8EB
:1009B000012D04DD411911F8011C302907D04F45E4
:1009C00002DA17F1040F04DA012082460FE06D1EEF
:1009D000EEE7002F02DCED1B3E4403E0781CA8424A
:1009E00000DD7D1CB81B00F1010A4FF000472078A4
:1009F000000703D4AA4501DB4FF0FF3A0021B7F10D
:100A0000004F0DF143088DF8431024D002202B2312
:100A1000002F01DA7F422D230A21021EA0F10100DE
:100A200000DC5FB197FBF1FC97FBF1F201FB1C7C52
:100A300017460CF1300C08F801CDEEE7A8F10100E3
:100A400003702188090501D5452100E06521A0F149
:100A5000010800F8011C09980FA9A1EB0807FF1D68
:100A600000B10120411901EBEA70A1693844081A6C
:100A7000401EA0612078C00602D42046FFF708FC83
:100A8000099828B1D4E901219047206A401C2062CE
:100A90002078C00622D52046FFF7FAFB1EE0002E84
:100AA00004DBB34502DD01A8805D00E03020D4E91D
:100AB00001219047206A401C2062761CAAF10100A7
:100AC0005FEA000A0AD100F033F8C0680168405CB0
:100AD000D4E901219047206A401C2062281EA5F11C
:100AE0000105DCDC07E0D4E9012118F8010B90478F
:100AF000206A401C2062381EA7F10107F3DC204663
:100B0000FFF7DCFB032011B041E60000074B70B596
:100B10000D467B4400F05FF80446284600F020F9BB
:100B200010B14FF0FF3070BD204670BDCB2B0000E0
:100B3000004870471C02002000487047FC0100205C
:100B400030B5B0F10A024FEA900E71F100034EEA9F
:100B5000817EB0EB0E0061EB91014FEA101E4EEA70
:100B6000017E10EB0E0041EB11114FEA102E4EEA00
:100B7000016E10EB0E0041EB11214FEA104E4EEAD0
:100B8000014E10EB0E0041EB1141401841F1000104
:100B90004FEAD00040EA41704FEAD10110EB8005E6
:100BA0004FEA810444EA907444EB01046D1944EB6C
:100BB0000404521BA3414FF0000348BF0A3200D582
:100BC00030BD401C41F1000130BD000001694A1CEC
:100BD00002610878704700B58FB0CDE9013100217E
:100BE000059105497944CDE9031011466846FFF7A0
:100BF000B3FB0FB000BD0000E5FFFFFF2DE9F041A2
:100C00001F46044603260168072A01F4006004DB3E
:100C100008B116A505E016A503E008B115A500E08A
:100C200015A521F010002060A069C01EA0610FB1C1
:100C3000401EA0612046FFF72BFB4FB1D4E90121F4
:100C400038469047206A401C2062C01C206206E0A3
:100C5000206AFAE7D4E9012115F8010B9047761EC6
:100C6000F8D22046FFF72AFBBDE8F0814E414E0046
:100C70006E616E00494E4600696E66002DE9F047D0
:100C8000814616468AB0354878440DC88DE80D0077
:100C900032487844801C03AC0DC884E80D0041F64E
:100CA0009B300844372190FBF1F290FBF1F5A5F160
:100CB000800501FB12041B3C02D56442012000E0C8
:100CC0000020DFF898A080460027FA44AAF1BE0A67
:100CD0000EE0E0070AD03246684607EB47010123E1
:100CE0000AEB810100F043FB8DE8070064107F1CD4
:100CF000002CEED1194F7F44AE3F19E0E80715D024
:100D000007EB04100DF1180A90E80E008AE80E00B7
:100D1000C068F04201D1981908903246012306A913
:100D200003A800F024FB03AB83E807006D10641CEC
:100D3000002DE3D14FF0010332466946B8F1000FB0
:100D400003A802D000F0FEFA01E000F010FBC9E9B0
:100D50000001C9F808200AB0BDE8F087CC3D0000CA
:100D6000007B00F08000704700487047FC010020C5
:100D70007546FFF7F9FFAE4605006946534620F079
:100D80000700854618B020B5FFF73EFABDE82040C1
:100D90004FF000064FF000074FF000084FF0000B37
:100DA00021F00701AC46ACE8C009ACE8C009ACE8EA
:100DB000C009ACE8C0098D46704710B50446AFF3D2
:100DC00000802046BDE81040FFF709BA4FF0013C13
:100DD00050F8042B51F8043B9A4221D1A2EB0C03AA
:100DE000934313EACC1317D150F8042B51F8043B6A
:100DF0009A4215D1A2EB0C03934313EACC130BD107
:100E000050F8042B51F8043B9A4209D1A2EB0C0391
:100E1000934313EACC13DBD04FF00000704700BFC0
:100E2000D01A01BAB1FA81F101F0180122FA01F0E9
:100E3000CB40C1F12001DBB2C0B2C01A2CFA01F3E1
:100E4000D11A914311EAC311E6D170475FEA400C11
:100E500008BF91F0000F4FEA8C234FEAC12243EA0A
:100E600051514FEA1C5018BF00F5F0404FEA3000D6
:100E700018BF41F000415FEA6C5C00F02980BCF1D2
:100E8000FF3F08BF40F080407047130C06BF1204BC
:100E90004FF0100C4FF0000C130E04BF12020CF1B7
:100EA000080C130F04BF12010CF1040C930F04BFC4
:100EB00092000CF1020CD30F04BF52000CF1010C94
:100EC00011464FF00002A0F11F00A0EB0C0070478C
:100ED00011F0004F08BF704731F000413FF4D5AF2B
:100EE0000B0C06BF09044FF0100C4FF0000C0B0E5A
:100EF00004BF09020CF1080C0B0F04BF09010CF12F
:100F0000040C8B0F04BF89000CF1020CCB0F04BF43
:100F100049000CF1010CCCF12003A0EB0C0022FAEB
:100F200003F302FA0CF241EA030100F101007047F9
:100F300020F07F4C80EA030023F07F47ACEB0703EF
:100F400003F57C5300F0004003F1FF032DE98049D5
:100F50004FEA154B09B44FEA144325EA0B4E24EA35
:100F600003480FF2042606EB132749083E785FEA90
:100F7000320203FB0667C7F5000707FB06F64FEAD8
:100F800054374FEAD64606F1020607FB066CCCF151
:100F9000005C4FEA1C472CEA074C07FB06F40CFBED
:100FA00006F504EB15464FEA961634BF00204FF0C5
:100FB00000404FEAD13706FB07FC4FEA1C4C0CFB04
:100FC0000BF7D21B03FB0CF761EB07010CFB0EF7D1
:100FD000B0EB074072EB17420CFB08F734BFA2EBF3
:100FE0000742B2EB074261EB17414FEA0C444FEA6C
:100FF000910706FB07FC4FEA1C4C0CFB0BF7B0EB10
:10100000C74072EB573203FB0CF734BFA2EBC74269
:10101000B2EBC74261EB57310CFB0EF7B0EBC700E8
:1010200072EB57720CFB08F734BFA2EBC702B2EBAE
:10103000C70261EB5771039F4FEA816141EA921148
:1010400004EBCC044FEAD1374FEA826206FB07FC7F
:1010500042EA90124FEA80604FEA1C4C0CFB0BF7FF
:10106000D21B03FB0CF761EB07010CFB0EF7B0EB97
:10107000074072EB17420CFB08F734BFA2EB0742A4
:10108000B2EB074261EB17414FEA8C554FEA9107EB
:1010900004EB9C2406FB07FC4FEA1C4C0CFB0BF7F3
:1010A000B0EBC74072EB573203FB0CF734BFA2EB37
:1010B000C742B2EBC74261EB57310CFB0EF7B0EB06
:1010C000C70072EB57720CFB08F734BFA2EBC702E4
:1010D000B2EBC70261EB577115EB4C254FEA81610A
:1010E00041EA92114FEA82624FEAD13742EA901206
:1010F00006FB07FC44F100044FEA80604FEA1C4CF9
:101100000CFB0BF7D21B03FB0CF761EB07010CFB8D
:101110000EF7B0EB074072EB17420CFB08F734BF39
:10112000A2EB0742B2EB074261EB174115EB1C152E
:101130004FEA813141EA92414FEA823242EA9042DB
:101140004FEA80304FEA0C7644F1000448EA03434A
:101150004EEA0B484FF0000EB2EB080C71EB0307A0
:1011600024BF624639464EEB0E0E4FF0000B0018BE
:10117000524149414BEB0B0BB2EB080C71EB0307EF
:101180007BF1000B24BF624639464EEB0E0E4FF04A
:10119000000B0018524149414BEB0B0BB2EB080C12
:1011A00071EB03077BF1000B24BF624639464EEB1F
:1011B0000E0E51EA020718BF46F0010616EB0E7636
:1011C00055F1000254F1000103D5BDE88901BDE8E5
:1011D0000088BDE88901BDE80048B619524141EBDD
:1011E0000101A3F10103704780807F7E7D7C7B7AC3
:1011F0007978777676757473727171706F6E6E6DC3
:101200006C6C6B6A6A696868676666656464636368
:1012100062616160605F5F5E5E5D5D5C5C5B5B5AEE
:101220005A5959585857575656555555545453535B
:1012300052525251515050504F4F4F4E4E4D4D4DB6
:101240004C4C4C4B4B4B4A4A4A4949494848484701
:10125000474747464646454545444444444343433F
:101260004342424242414141002B9C4630D47700E8
:101270002BD01CB54FEA370703B44FF010004FF0E6
:101280001001BAF1000F06D0BCF1000FDCBF40F036
:10129000080040F008014FF000000FBCBDE810400E
:1012A0000BF1010BBBF1010F08BF5FEA170722BF6B
:1012B00012F1010211F101014FF0004143F100036D
:1012C00000F0004043EA00007047F9D35708D0E728
:1012D00046EA064613F1400F4FEA16461FDD13F1AA
:1012E000200FDFBF16430A46002120335B42BED0E9
:1012F000C3F1200746EA064602FA07F74FEA164608
:1013000046EA0706C3F1200722FA03F201FA07F7BB
:1013100021FA03F14FF0000342EA0702A7E746EA89
:10132000020646EA06464FEA164646EA0106BCBFF2
:1013300046EA0646360C4FF000034FF000024FF02D
:10134000000194E72DE9804C9A46934670B491E8E9
:10135000380007C831EA400C48BF34EA430C03D5D3
:10136000FFF7E6FDFFF780FFF0BCBDE8008C2DE93C
:10137000804C9A46934670B491E8380007C810F044
:10138000804F08BF13F0804F03D100F005F8FFF73E
:101390006BFFF0BCBDE8008C20F07F4780EA0300C3
:1013A00023F07F4C07EB0C03A3F57C5300F00040C7
:1013B000A3F1FE0392F0000F00F0B38095F0000F50
:1013C00000F077802DE901494FEA11404FEA1446B9
:1013D00021EA004800FB06FC24EA064708FB06F663
:1013E00007FB08F800FB07F718EB06484CEB164C18
:1013F0004FEA124B18EB07484FEA15464CEB1740E3
:1014000022EA0B4E0BFB06FC25EA06470EFB06F60E
:1014100007FB0EFE0BFB07F71EEB064E4CEB164CC4
:101420004FF000061EEB074E4CEB174B18EB0B086A
:1014300040F1000018EB0E0B58EB000840F10000E3
:101440008F1A4FF000013CBFC943661B14BFB5EBB8
:10145000040C00213CBFC943F61B4FEA17444EEA77
:101460008E0E27EA04454FEA1C4704FB07622CEA6C
:10147000074C05FB07F70CFB05F604FB0CFC16EB11
:10148000074642EB174216EB0C4642EB1C421BEBA5
:10149000060658EB0202414146EA9E0601D5BDE828
:1014A0000189B619524141EB0101A3F10103BDE8E5
:1014B00001894FEA14454FEA114724EA054621EA1B
:1014C000074C05FB07F406FB07F70CFB06F105FBD1
:1014D0000CFC11EB074144EB17444FEA124711EBA8
:1014E0000C4144EB1C4422EA074C05FB07F206FBC7
:1014F00007F70CFB06F605FB0CFC16EB074642EB68
:10150000174216EB0C4642EB1C456A1854F10001D9
:1015100048BF7047B619524141EB0101A3F10103E5
:10152000704795F0000F37D04FEA11424FEA144749
:1015300021EA024624EA074C02FB07F106FB07F703
:101540000CFB06F402FB0CFC14EB074441EB1741C7
:101550004FEA154714EB0C4441EB1C4125EA074CBC
:1015600002FB07F506FB07F70CFB06F602FB0CFC7B
:1015700016EB074645EB174516EB0C4645EB1C42B0
:10158000121951F1000148BF7047B619524141EBA1
:101590000101A3F1010370474FEA14454FEA1147D7
:1015A00024EA054621EA074C05FB07F106FB07F78D
:1015B0000CFB06F24FF0000605FB0CFC12EB074299
:1015C00041EB174112EB0C4251EB1C4148BF7047F5
:1015D000921841EB0101A3F101037047FEE70000FF
:1015E0007CB5002514A0FEF747FE002400216846C4
:1015F00002F0FCF90028F9D1BDF9020002F0BEFFAB
:10160000294602F091FE0546052000F05FF9641CB2
:10161000642CEBD30C49284602F0EEFE0B4C6168BB
:1016200002F0EAFEA06002F053FE02460B4608A05C
:10163000FEF722FE7CBD00006779726F2063616C4B
:1016400069622E2E2E0D0A000000C8420000002004
:101650006779726F20626961733D252E326620645E
:1016600065672F730D0A000070472DE9F0410E46A3
:1016700007460021144608461D46091BA84102DB07
:101680000020BDE8F081002E4FF002024FF0000371
:101690002046294604DBFEF7CAFDC019714104E06B
:1016A000FEF7C5FD381A66EB010122462B46FEF710
:1016B000BEFDE6E70148C06870470000300000202A
:1016C0000148C068704700004800002010B5074876
:1016D00000F09BF8064800F098F800F07BF8BDE8B1
:1016E00010404EF6602103A0FEF7C6BDEC000020BE
:1016F00034010020656E636F64657220696E6974E1
:10170000206F6B2C206370723D256C640D0A000005
:1017100010B5040003D508A0FEF7AEFD64426420B6
:1017200094FBF0F100FB114294FBF0F1BDE8104096
:1017300002A0FEF7A1BD00002D000000256C642E64
:101740002530326C6400000010B5104C10A0A16868
:10175000FEF792FD2069FFF7DBFF13A0FEF78CFD7B
:10176000E068FFF7D5FF183411A0A168FEF784FDEB
:101770002069FFF7CDFF0CA0FEF77EFDE068FFF7C4
:10178000C7FFBDE8104011A0FEF776BD3000002075
:10179000656E63206C65667420636E743D256C64B1
:1017A0002072706D3D000000206C696E653D000088
:1017B0006D6D2F732C20726967687420636E743DA1
:1017C000256C642072706D3D000000006D6D2F73FC
:1017D0000D0A000010B5074800F00EF80548183053
:1017E00000F00AF800F08AF90249083908604860F8
:1017F00010BD00003000002001680968496A81803E
:1018000000218160C1600161704710B53C2100F08A
:101810005BFD002803D0BDE8104000F055B810BDB6
:1018200070B500F06BF9114E04463068251AB5F515
:101830007A7F03D9BDE87040FFF7CCBF0A2D14D3DF
:101840000A4829460830346000F012F80748294653
:10185000203000F00DF87068201AB0F5FA7F04D33C
:101860007460BDE87040FFF76FBF70BD28000020B6
:101870002DE9F041074600680A460068406AB988C9
:10188000B880411A387D0CB208B1604204B2B86821
:101890004EF660232044B8600948A2FB032384FB72
:1018A000000115461E46FFF7E0FEF86005482A468F
:1018B00084FB00013346FFF7D8FE3861BDE8F081B4
:1018C000B06C3C01808D5B0072B6FEE770B50446DB
:1018D00000F014F90546601C02D004480078044466
:1018E00000F00CF9401BA042FAD370BD9400002018
:1018F0002DE9F84FDFF8C8910024A9F1040B234625
:101900000F2709F1040AABF1040ED1E00125A5402F
:1019100006EA0502AA4276D1DFF8A8C14E68A6EB16
:101920000C0866452BD00DDC032E34D005DC36B315
:10193000012E19D0022E2FD11BE0112E16D0122EFF
:101940002AD119E0B8F5881F19D006DCB8F5803F18
:1019500015D0B8F5801F1FD111E0B8F5001F0ED0CB
:10196000B8F5041F18D10AE0CB6815E0CB681B1D41
:1019700012E0CB6808330FE0CB680C330CE08B68C7
:101980002BB1012B4FF0080303D0456104E0042381
:1019900002E0056100E00023FF2A01D8064601E0CD
:1019A00000F104064FEA840501D9A5F12005D6F817
:1019B000008007FA05FC28EA0C0803FA05F548EA56
:1019C0000508C6F800804D68ED0070D53E4DAE6943
:1019D00046F00106AE61AD6924F0030605F001058D
:1019E00000953A4D06EB050CDCF80850A607360FBB
:1019F00007FA06F825EA0805DFF8D480404503D148
:101A00004FF0000825E052E0DFF8C880404502D1E1
:101A10004FF001081DE0DFF8C080404502D14FF0D3
:101A2000020816E0DFF8B480404502D14FF0030809
:101A30000FE0DFF8AC80404502D14FF0040808E029
:101A4000DFF8A080404502D14FF0050801E04FF0DB
:101A5000060808FA06F848EA0508CCF808804D6838
:101A6000D9F80060ED024D4601D5164300E09643DB
:101A70002E604D68DAF80060AD02554601D5164378
:101A800000E096432E604D68DBF80060AD035D46D4
:101A900001D5164300E096432E604D68DEF80060E5
:101AA000ED03754601D5164300E096432E60641C95
:101AB0000A681646E2407FF429AFBDE8F88F0000BF
:101AC0000804014000001110001002400000014015
:101AD00000080140000C01400010014000140140CA
:101AE00000180140001C01408068084000D001201F
:101AF00070470AB1016170470904FBE7014880683B
:101B00007047000094000020024881680278114468
:101B10008160704794000020074810B5016841F0CB
:101B200010010160032000F067F80F2000F006F8B4
:101B300000F024F8002010BD0020024070B50D4DCB
:101B400004464FF47A712878B1FBF0F00A4909682D
:101B5000B1FBF0F000F0CEFA48B9102C07D2002209
:101B60002146501E00F028F800206C6070BD012056
:101B700070BD000094000020A00000200C4808B5B3
:101B8000816941F001018161816901F001010091E8
:101B9000C16941F08051C161C06900F0805000907E
:101BA0000448416821F0E06141F00071416008BDE6
:101BB0000010024000000140F0B40E4B1B680C46C0
:101BC000C3F30223C3F10705042D00D90425191D11
:101BD000072901D2002300E0DB1E012606FA05F1E9
:101BE000491E214099409E40761E16403143F0BC6C
:101BF00001F005BC0CED00E0064900F007020868A2
:101C00004FF6FF03184040EA0220034A10430860E1
:101C1000704700000CED00E00000FA052DE9F047E8
:101C20000F46050061D0434E306800F00700B8420F
:101C300009D2306820F0070038433060306800F087
:101C40000700B84251D128683B4C810712D54007A4
:101C500003D5606840F4E06060602878000703D531
:101C6000606840F4605060606068A96820F0F0002F
:101C7000084360602878C00728D06868012810D021
:101C80002168022810D0890700292EDA616821F026
:101C9000030101436160FFF731FF804641F288395B
:101CA0000DE021688903EFE78901EDE7FFF726FFE3
:101CB000A0EB0801494502D90320BDE8F087606820
:101CC000696800F00C00B0EB810FEFD1306800F0D4
:101CD0000700B8420BD9306820F007003843306065
:101CE000306800F00700B84201D00120E5E728780D
:101CF000400705D56068E96820F4E060084360604B
:101D00002878000706D56068296920F4605040EA09
:101D1000C100606000F038F86168084AC1F303113F
:101D2000515CC8400649086006480068FFF706FF96
:101D30000020C2E70020024000100240B249000823
:101D4000A000002098000020044805490068496868
:101D5000044AC1F30221515CC8407047A000002032
:101D600000100240C249000804480549006849685B
:101D7000044AC1F3C221515CC8407047A000002052
:101D800000100240C24900080E4A51680E4801F096
:101D90000C03042B11D0082B0FD10C48C1F3834343
:101DA000C903C05C0AD55168084AC1F34041921E7C
:101DB000515C054A5043B0FBF1F070470449484379
:101DC000704700000010024000127A00A24900088B
:101DD00000093D002DE9F84F040070D02078C04D77
:101DE000C00749D06868C0F38100012807D068683F
:101DF000C0F38100022809D16868C00306D52868AD
:101E0000800339D560680028E7D035E06068B0F518
:101E1000803F0BD010B1B0F5A02F11D0286820F46E
:101E200080302860286820F4802002E0286840F490
:101E300080302860606890B1FFF760FE06460AE0D7
:101E4000286840F480202860F0E700BFFFF756FEC6
:101E5000801B642873D828688003F7D50CE0FFF74F
:101E60004DFE064605E000BFFFF748FE801B6428D4
:101E7000F0D828688003F7D420789A4E80074FF076
:101E800001094FF0000839D5686810F00C0F07D031
:101E90006868C0F38100022809D16868C00306D4CD
:101EA0002868800714D52069012808D110E020692E
:101EB000B0B1C6F80090FFF721FE074605E00AE141
:101EC000FFF71CFEC01B0228C4D828688007F7D57E
:101ED0002868616920F0F80040EAC10028600DE040
:101EE000C6F80080FFF70AFE074604E0FFF706FE8B
:101EF000C01B022823D828688007F7D42078000761
:101F00002CD57948A169D9B1C0F80090FFF7F6FD4A
:101F1000074604E0FFF7F2FDC01B02280FD8686AED
:101F20008007F7D571484FF4FA510068B0FBF1F023
:101F3000009000BF0098411E0091FAD20EE080E0B0
:101F4000C0F80080FFF7DAFD074604E0FFF7D6FD92
:101F5000C01B022875D8686A8007F7D4207840072C
:101F600060D5E8690027C00008D4E86940F08050D7
:101F7000E861E869012700F0805000905C48016842
:101F8000C90513D40168834641F480710160FFF7ED
:101F9000B5FD824606E000BFFFF7B0FDA0EB0A00EA
:101FA00064284ED8DBF80000C005F5D5E0680128AC
:101FB0000AD008B1052813D0286A20F00100286251
:101FC000286A20F0040002E0286A40F0010028623C
:101FD000E06841F2883B98B1FFF790FD82460BE044
:101FE000286A40F004002862EEE700BFFFF786FD94
:101FF000A0EB0A0159455AD8286A8007F6D50CE0AB
:10200000FFF77CFD824605E0FFF778FDA0EB0A01B3
:1020100059454CD8286A8007F6D41FB1E86920F0EA
:102020008050E861E06988B36968C1F381010229E1
:1020300044D00228C6F8608004D0FFF75FFD044654
:1020400038E034E0FFF75AFD074604E0FFF756FD9D
:10205000C01B02282BD828688001F7D4206AB0F56D
:10206000803F05D16868A16820F4003008436860AB
:10207000D4E908010843696821F4741108436860D1
:10208000C6F86090FFF73AFD044606E025E000BF81
:10209000FFF734FD001B022809D828688001F7D516
:1020A0001BE000BFFFF72AFD001B022802D9032016
:1020B000BDE8F88F28688001F4D40EE00128F7D03D
:1020C0006868226A00F48031914204D1616A00F4A8
:1020D0007010884201D00120EAE70020E8E7000004
:1020E000001002400000424280044242A000002052
:1020F0000070004010B5401EB0F1807F01D3012078
:1021000010BD4FF0E02460610F21601701F077F9F6
:102110000020A06107202061002010BD70B590F85C
:102120003C20012A2CD0012480F83C40022280F877
:102130003D2003685A689D6822F070060A683243A1
:102140005A60104B02689A420ED00F4B9A420BD045
:10215000B2F1804F08D00D4B9A4205D00C4B9A42F9
:1021600002D00C4B9A4204D1496825F080031943F0
:10217000916080F83D40002180F83C10084670BD19
:10218000022070BD002C01400034014000040040DA
:1021900000080040000C00402DE9F0410D4604000D
:1021A00003D094F83D0018B108E00120BDE8F081AB
:1021B000002084F83C00204600F040F8022084F81B
:1021C0003D002068816844F2070291438160211D2F
:1021D000206800F011FF226890689169166A2B68E8
:1021E000AF69034340F20330814341EA0721A86805
:1021F000EF6908434FF6FC418843E96840EA07204D
:10220000014328692F6A000140EA073008436968E2
:102210006D6926F0220646EA051529439360226877
:10222000906154F8460B0162012004F81F09E07523
:102230002076E0762077A0750020B7E700B585B05E
:10224000002100910191029103911A4B02681A48F2
:10225000C0219A4213D1C26942F00402C261C2692C
:1022600002F004020492826942F0080282618069ED
:10227000009100F0080004906946104815E0104BEA
:102280009A4214D1826942F400528261826902F456
:1022900000520492826942F01002826180690091CA
:1022A00000F01000049069460648FFF721FB05B0D6
:1022B00000BD00000008004000100240000C01407A
:1022C000003401400010014070B590F83E600446B3
:1022D00090F83F5090F8423090F84320022021B10E
:1022E00004290ED0012E1BD114E0012E18D1012B90
:1022F00016D184F83E0084F84200012200212068B3
:1023000020E0012D0CD1012A0AD184F83F0084F885
:10231000430014E0012D03D1012B01D1012A01D08A
:10232000012070BD84F83E0084F83F0084F842002C
:1023300084F8430001220021206800F0ABFE012256
:102340000421206800F0A6FE2068016841F0010128
:102350000160002070BD000010B586B00021009122
:1023600001910291039100681349884221D11348D9
:10237000816941F004018161816901F004010491E6
:10238000816941F0080181618069022400F0080040
:102390000490C020CDE90004694609480394FFF782
:1023A000A7FA0320CDE90004694606480394FFF725
:1023B0009FFA06B010BD000000040040001002406B
:1023C00000080140000C014070B5044690F83C0044
:1023D00000260D4601280FD0012084F83C006AB188
:1023E000042A1DD0082A2FD00C2A3FD00126002015
:1023F00084F83C00304670BD022070BD206800F0BB
:1024000057FE2068816941F0080181612068816977
:1024100021F004018161206881692A69114311E07A
:10242000206800F075FE2068816941F400618161D7
:102430002068816921F480618161206881692A694D
:1024400041EA02218161D2E7206800F097FE20680E
:10245000C16941F00801C1612068C16921F004012E
:10246000C1612068C1692A69114311E0206800F048
:10247000B9FE2068C16941F40061C1612068C16989
:1024800021F48061C1612068C1692A6941EA0221A1
:10249000C161ACE710B5040003D094F83D0010B161
:1024A00007E0012010BD002084F83C00204600F029
:1024B0001FF8022084F83D00211D206800F09CFDDB
:1024C000012084F8460084F83E0084F83F0084F838
:1024D000400084F8410084F8420084F8430084F806
:1024E000440084F8450084F83D00002010BD000041
:1024F00008B500680649884208D10648C16941F01C
:102500000201C161C06900F00200009008BD000036
:10251000000400400010024010B50446022249B1F8
:1025200004290ED0082913D094F84100012816D0B0
:10253000012010BD94F83E000128F9D184F83E2016
:102540000FE094F83F000128F2D184F83F2008E022
:1025500094F840000128EBD184F8402001E084F891
:1025600041200122206800F095FD13492068134A9C
:10257000884201D0904203D1436C43F4004343644A
:10258000206888420DD090420BD0B0F1804F08D027
:102590000B49884205D00B49884202D00A4988423B
:1025A00004D1816801F00701062903D0016841F0D8
:1025B00001010160002010BD002C014000340140E9
:1025C0000004004000080040000C004070B504000A
:1025D00004D094F84100002510B106E0012070BD40
:1025E00084F84050204600F023F8242084F841006D
:1025F0002068C16821F40051C160204600F042FE0D
:102600002068016921F4904101612068416921F04D
:102610002A0141612068C16841F40051C1606564CC
:10262000202084F8410084F842006563002070BDDA
:1026300030B585B00024009401940294039400689E
:102640001449884224D11448816941F48041816150
:10265000816901F480410491816941F00401816143
:1026600080690E4D00F0040004904FF4007000905B
:10267000022001900320039069462846FFF738F9AD
:102680002815CDE90004694628460294FFF730F981
:1026900005B030BD00380140001002400008014084
:1026A0002DE9F843044690F84100984616460D4639
:1026B000202802D00220BDE8F88385B17EB1002039
:1026C0006064212084F84100FFF718FAA68481464F
:1026D000E684A0682027B0F5805F02D003E00120E7
:1026E000E9E7206910B12E4600250EE000260CE037
:1026F0008021204600F022FEA8B9C6B116F8010BD1
:1027000021684860E08C401EE084E08C4B464FF02E
:102710000002CDF800800028EAD14FF040012046A9
:1027200000F00CFE40B184F841700320C3E735F897
:10273000020BC0F30800E3E784F841700020BAE719
:10274000FEE700002DE9F041082405464FF400485B
:10275000E602134F18E000BFFFF7CBF900F0A4F832
:10276000280601D5012200E0002241463846FFF745
:10277000C0F96806050E00F097F801223146384688
:10278000FFF7B7F900F090F8641EE4B24FF00002D2
:1027900031463846E0D2BDE8F041FFF7AAB9000063
:1027A000000C014070B50122144DD4032146284687
:1027B000FFF79FF9012291032846FFF79AF900F0ED
:1027C00073F821462846FFF78FF900280CD0002225
:1027D00021462846FFF78DF900F066F82146284685
:1027E000FFF782F908B1002070BD0022214628467B
:1027F000FFF77FF900F058F8012070BD000C014090
:1028000070B5114D4FF48044002221462846FFF751
:1028100070F900F049F86600002231462846FFF7BB
:1028200068F900F041F8012221462846FFF761F9D6
:1028300000F03AF8012231462846FFF75AF9BDE880
:10284000704000F031B80000000C014070B5154C2C
:102850004FF48045002229462046FFF74AF900F050
:1028600023F80122D60331462046FFF742F900F053
:102870001BF8012229462046FFF73BF900F014F827
:1028800031462046FFF730F900284FF00002294674
:10289000204603D0FFF72DF9002070BDFFF729F97E
:1028A000012070BD000C014008B50A200090401EB8
:1028B0000090FCD108BD00002DE9F74F424D84B0D7
:1028C0002969039101F05CFF069901F083FEE96834
:1028D00001F02AFD05F118040746E0680090014662
:1028E000069801F077FE66688246314601F048FF9F
:1028F000D4F80880414601F043FF344901F014FD4B
:10290000069901F067FE216801F00EFD83465046EE
:10291000314601F02BFF81465046414601F026FF2B
:1029200082462B49069801F055FE009901F0FCFC07
:1029300006463946059801F023FF00902549584680
:1029400001F0F2FC80460146584601F055FD029028
:102950004146504601F050FD01900099029801F067
:1029600039FE394601F0E0FC8046E860DDE9001000
:1029700001F030FE039901F0D7FC28615946029816
:1029800001F028FE594601F0F1FE07462060494655
:10299000029801F01FFE494601F0E8FE054660601E
:1029A0003946019801F016FE514601F0DFFEA060A5
:1029B0002946019801F00EFE314601F0D7FEE06095
:1029C00007B04046BDE8F08F000000206F12833A48
:1029D000A69B443BCDCC4C3D30B585B0002420486F
:1029E0000094019402940394816941F02001816173
:1029F000816901F020010491816941F01001816138
:102A0000816901F010010491816941F00401816143
:102A1000816901F004010491816941F0080181613B
:102A20008069104D00F00800049000220C21284617
:102A3000FFF75FF80C2000900120CDE9010402208F
:102A4000039069462846FEF753FF6815CDE9000458
:102A5000694605480294FEF74BFF05B030BD000003
:102A60000010024000100140000C014010B58AB077
:102A7000002407941C2168460894FDF731FD224884
:102A80002049C0E9001440F60F61C0E90241046129
:102A90008461FFF7FFFC08B1FEF716FF079407A952
:102AA00019480894FFF73AFB08B1FEF70DFF6020C4
:102AB000CDE9000402940022694613480494FFF70C
:102AC00083FC08B1FEF700FF042269460E48FFF7B9
:102AD0007BFC08B1FEF7F8FE082269460A48FFF7BA
:102AE00073FC08B1FEF7F0FE0C2269460648FFF7BA
:102AF0006BFC08B1FEF7E8FE0348FFF72DFC0AB0B7
:102B000010BD000000040040A400002010B58CB0EF
:102B100024216846FDF7E4FC002416480994144972
:102B20000A94C0E900144FF6FF71C0E90241046144
:102B300084610320CDE900040120CDE9020404945E
:102B4000CDE90540079469460A480894FFF724FB3D
:102B500008B1FEF7B9FE099409A906480A94FFF7DF
:102B6000DDFA002801D0FEF7AFFE0CB010BD00006A
:102B700000080040EC00002010B58CB0242168460D
:102B8000FDF7AEFC00241648099414490A94C0E9E4
:102B900000144FF6FF71C0E9024104614461846191
:102BA0000320CDE900040120CDE902040494CDE91D
:102BB0000540079469460A480894FFF7EDFA08B102
:102BC000FEF782FE099409A905480A94FFF7A6FAC0
:102BD000002801D0FEF778FE0CB010BD0034014093
:102BE000340100200C4810B50A4901604FF4E1316E
:102BF0004160002181600C22C160C0E90412816142
:102C0000C161FFF7E3FC002803D0BDE81040FEF7E8
:102C10005BBE10BD003801407C010020FEE70000D3
:102C2000642800D964200549C9684A1C42436420CD
:102C3000B2FBF0F0884200D908467047A40000209B
:102C400010B500F063F8002000F05AF8002811D108
:102C5000042000F055F800280CD1082000F050F8AE
:102C6000002807D10C2000F04BF8002802D100F01A
:102C70004DF8002010BD642801DD642070476FF01E
:102C800063018842FADA08467047000070B50E46C4
:102C9000FFF7F1FF0025194C002805DD80B2FFF792
:102CA000BFFF216848630CE009DAC0F1000080B280
:102CB000FFF7B6FF21684D632168886303E0206851
:102CC0004563206885633046FFF7D5FF002807DDA0
:102CD00080B2FFF7A5FF2168CD632168086470BD4D
:102CE00007DAC0F1000080B2FFF79AFF2168C863DD
:102CF00001E02068C5632068056470BDA400002061
:102D000001460148FFF708BCA40000200548002147
:102D100002685163026891630268D16300680164CC
:102D200070470000A400002010B500F0E9FC64200A
:102D3000FEF7CCFD00F0A4FE08B110A004E078205E
:102D400001F022FA20B112A0FDF796FA002010BD82
:102D5000C82001F0D9F9154800F072FE1348001F91
:102D600000F022FEFEF73CFCFEF7C8FE0F49091FEB
:102D700048610FA0FDF780FA012010BD6D7075202D
:102D8000696E6974206661696C65640D0A000000F3
:102D90006D7075207365742073656E736F72732028
:102DA0006661696C65640D0A000000000400002083
:102DB0006B616C6D616E2C616363656C5F706974CF
:102DC00063682C6779726F5F726174650D0A000029
:102DD0002DE9F04188B0FEF791FE254C054660696B
:102DE000281A052841D301F0E1FB224901F004FB38
:102DF000064606A904A8656100F04CF8002834D006
:102E0000BDF9120001F0BAFB616801F0F5FAA168A2
:102E100001F0B6FC0546BDF91C0001F0AFFB04460D
:102E2000BDF91A0001F0AAFB214600F007FB124988
:102E300001F0D0FB0446014632462846FFF73CFD30
:102E40008046284601F044FA06460F46204601F027
:102E50003FFA04460D46404601F03AFA8DE8F0008C
:102E600002460B4605A0FDF707FA08B0BDE8F08161
:102E70000000002000007A44E12E6542252E3266D3
:102E80002C252E32662C252E32660D0A00000000FD
:102E9000FEE7704710B50C46002100F0A7FD20B9F1
:102EA0000021204600F058FD08B1002010BD01208F
:102EB00010BD704710B5064800F042F804481C30B9
:102EC00000F03EF8FEF71AFE0249086010BD00004F
:102ED000C40100206400002064225043034A1060B3
:102EE0006420414302F11C0001607047C4010020CE
:102EF00010B5FEF703FE10490A68821A0A2A19D390
:102F00000860FEF7D7FB01460C4800F024F80446A1
:102F1000FEF7D6FB014609481C3000F01CF864227D
:102F200090FBF2F001B294FBF2F0BDE8104000B269
:102F3000FFF7ACBE10BD000064000020C4010020FB
:102F40000021016041608160C16001611421416123
:102F500002218161704741600268521A8260C16833
:102F60004369511A5943836903FB02114FF47A7381
:102F700091FBF3F10369194442F210730161994224
:102F800002DC5B42994200DA1946C0E90321084697
:102F90007047FEF7B9BD30B58FB028216846FDF700
:102FA0009FFA14210AA8FDF79BFA01210804CDE934
:102FB00000100024029402250491CDE907504FF43B
:102FC000E01009906846FEF705FF08B172B6FEE70B
:102FD0000F20CDE90A054FF48060CDE90C400221B5
:102FE0000AA80E94FEF71AFE002801D072B6FEE77A
:102FF0000FB030BD70470000F0B50268204C214D85
:10300000214E224F224B4FF0804CA04209D09842D3
:1030100007D0604505D0A84203D0B04201D0B842E5
:1030200004D122F0700E4A6842EA0E02A04209D092
:10303000984207D0604505D0A84203D0B04201D0E5
:10304000B84203D122F44075CA682A434D6922F080
:1030500080022A4302608A68C2620A688262A042D1
:1030600001D0984201D109690163012141610169DF
:10307000C90703D0016921F001010161F0BD000021
:10308000002C01400004004000080040000C0040FB
:103090000034014010B501F01F030121046A99407A
:1030A0008C430462016A9A401143016210BD000022
:1030B000F0B5036A026A22F0010202624268846982
:1030C000124E24F073050C682C4323F002058B6824
:1030D0002B430D4DA84201D0B04205D123F0080783
:1030E000CB683B4323F00403A84201D0B04205D192
:1030F0004D6922F4407215438A692A434260846113
:10310000496841630362F0BD002C01400034014076
:10311000F0B5026A036A23F010030362436884690E
:103120000D6824F4E64444EA05248D6822F0200268
:1031300042EA05120F4D104EA84201D0B04206D10E
:10314000CF6822F0800242EA071222F04002A84231
:1031500001D0B04207D14D6923F4406343EA8503AF
:103160008D6943EA85034360846149688163026233
:10317000F0BD0000002C014000340140F0B5026AAF
:10318000036A23F4807303624368C46922F4007203
:1031900024F073050C68124E2C438D6842EA052218
:1031A0000E4DA84201D0B04206D1CF6822F4006291
:1031B00042EA072222F48062A84201D0B04207D13D
:1031C0004D6923F4405343EA05138D6943EA05131F
:1031D0004360C4614968C1630262F0BD002C0140D4
:1031E0000034014030B5046A026A22F4805202625F
:1031F0004268C3690D6823F4E64343EA05238D68FA
:1032000024F4005444EA0534084DA84202D0084D85
:10321000A84204D14D6922F4804242EA85124260FC
:10322000C36149680164046230BD0000002C0140A4
:103230000034014001680C3151E8002F22F49072F3
:1032400041E80023002BF5D10168143151E8002F2B
:1032500022F0010241E80023002BF5D1016B012986
:1032600009D101680C3151E8002F22F0100241E829
:103270000023002BF5D1202180F8421000210163AA
:103280007047000070B5044600680169E26821F4E7
:103290004051114301612169A068084361690843F5
:1032A0002168CA6841F20C639A430243CA602068ED
:1032B0004169A26921F44071114341611E492068AE
:1032C000884202D1FEF750FD01E0FEF73DFD00EB24
:1032D000C00101EB0012606864218000B2FBF0F3D2
:1032E000B3FBF1F36FF018067343B2FBF0F5B2FBDA
:1032F000F0F605EB8305322303EB0515B5FBF1F57D
:10330000B6FBF1F605F0F00505EB0615B2FBF0F69D
:10331000B2FBF0F0B0FBF1F06FF01802504306EB97
:10332000800003EB0010B0FBF1F0216800F00F000B
:103330002844886070BD0000003801402DE9F84342
:10334000984617460D460446089E24E0701C22D07D
:10335000FEF7D4FBA0EB0800B0421AD8CEB120682B
:10336000C168490717D5802D15D0402D13D00168AD
:10337000C94309070FD40168002540680090204622
:10338000FFF758FF0820606484F840500120BDE832
:10339000F8830320FBE72068006835EA000004D0CA
:1033A0000020B842D2D00020F1E70120F9E7FEE783
:1033B000490050EAC12018BF04204A0D18BF40F050
:1033C000010040F2FF72B2EB515F08BF40F0020013
:1033D000012808BF052070474100080218BF0420DB
:1033E0000A0E18BF40F001004FF07F4232EA01019F
:1033F00008BF40F00200012808BF052070470907F8
:10340000090E002804DB00F1E02080F8001470476A
:1034100000F00F0000F1E02080F8141D704700F06C
:1034200083BF6FF05E01080701F053BA30380A28F5
:1034300001D2012070470020704770472DE9F04706
:103440004FF0684202EB40030C460546B3F1654F6E
:103450003CBF02EB4102B2F1654F80F0CD8000BF6E
:10346000C0F3C752C1F3C753D21A1B2A06DD10F0AE
:10347000004F14BF87488848BDE8F08712F11A0F43
:103480002FDA11F0004F06D010F0004F0CBF834828
:103490008348BDE8F0872146284600F0ADFF064688
:1034A000FFF79AFF042808BFFFF7BBFF2846FFF786
:1034B00093FF05462046FFF78FFF04463046FFF78F
:1034C0008BFF042D18BF052D08D1042C18BF052C27
:1034D00004D1002804BF0220FDF7A9F83046BDE85A
:1034E000F0874200B2EB410F25D910F0004F19BF11
:1034F0006C4F6D4E6D4F6E4E224685F00044154662
:103500000A4680F0004110460A1A5200B2F1807F4C
:103510003ED248406749DFF8A0A110F0004F18D014
:103520004FF03F48384601F02BF9074651463046E8
:1035300001F026F917E011F0004F04BF00263746CE
:10354000E2D010F0004F19BF5C4F5D4E5D4F5E4EF4
:10355000DAE74FF07C58384600F0E6FE0746514661
:10356000304600F0E1FE06464146284601F032F8BA
:10357000214600F0D9FE82462146404601F02AF855
:10358000294601F0F3F8514600F036FF044604E006
:103590002146284600F030FF0446014601F01AF8A3
:1035A00080464A4901F016F8494900F0BDFE4146FF
:1035B00001F010F8474900F0B7FE414601F00AF863
:1035C000454900F0B1FE414601F004F8434900F0DE
:1035D000ABFE05464146204600F0FCFF294600F0C0
:1035E000F9FF314600F0A0FE214600F09DFE39466D
:1035F000BDE8F04700F098BE4FF07F42B2EB400FBD
:1036000028BFB2EB410F03D2BDE8F047FFF707BF79
:1036100040EA01035B0008BF44F0FF410AD0B2EB6F
:10362000400F08BFB2EB410F06D125F0804024F0D7
:10363000804105460C4613E7B2EB400F12BF5FEA2C
:10364000410345F0FF4004F000413FF409AFB2EB05
:10365000410F12BF5FEA400205F0004044F0FF4115
:103660003FF4FEAE4A0092EA40033FF5F9AE002A6D
:10367000ACBF4FF09F464FF03E56314600F0AAFFD8
:1036800005463146204600F0A5FF0446284621465F
:10369000E6E60000DB0FC9BFDB0FC93FDB0F494087
:1036A000DB0F49C00000C9BF22AAFDB90000C93F15
:1036B00022AAFD390060ED3EC30ACE37000049C0A2
:1036C00022AA7DBA0000494022AA7D3A2DAD65BDEF
:1036D0008FB8D53D0FB511BE61C84C3EA8AAAABE91
:1036E00038B504468DF800004FF0FF3301226946DB
:1036F0000248FEF7D5FF204638BD00007C010020BF
:103700001FB54FF440400121009003911120CDE9F5
:103710000101084C69462046FEF7EAF801229103B0
:103720002046FEF7E6F90122D1032046FEF7E1F933
:103730001FBD0000000C01402DE9F04799461646D8
:103740000D460446FFF72EF800281ED06006000E36
:10375000FEF7F8FFFFF77AF8A0B12846FEF7F2FF70
:10376000FFF774F8FFF71EF8012000EB4400C0B229
:10377000FEF7E8FFFFF76AF84FF4004A304D4FF4C8
:10378000804850E0FFF73CF80020BDE8F0870024B7
:10379000012251462846FEF7ACF907276006040EC1
:1037A000002241462846FEF7A4F9FFF77DF80122E2
:1037B00041462846FEF79DF9FFF776F85146284620
:1037C000FEF792F908B144F001047F1EFFB2E5D282
:1037D0000022474641462846FEF78BF989F800400B
:1037E000012E4FF000023946284622D0FEF781F91B
:1037F000FFF75AF8002251462846FEF77AF9FFF7FC
:1038000053F8012239462846FEF773F9FFF74CF8C2
:10381000002239462846FEF76CF9FFF745F8761E78
:1038200009F10109F6B2002EB1D1FEF7E9FF01203E
:10383000ABE7FEF75EF9FFF737F80122DBE70000A0
:10384000000C01402DE9F0411E4615460F46044686
:10385000FEF7A8FF002819D06006000EFEF772FFE1
:10386000FEF7F4FFA0B13846FEF76CFFFEF7EEFF5F
:10387000002406E0305DFEF765FFFEF7E7FF38B194
:10388000641CAC42F6DBFEF7BBFF0120BDE8F08113
:10389000FEF7B6FF0020F9E710B5FFF74DFF08B1BE
:1038A000002010BD4FF0FF3010BD10B5FFF7CAFF6C
:1038B00008B1002010BD4FF0FF3010BDFEF72CF90D
:1038C000FFF769FBFFF788F8FFF7D0F8FFF71EF95D
:1038D000FFF752F9FFF786F9FFF7B2F9FDF7F6FEA9
:1038E000FFF7E8FAC8210846FFF7F6FAFFF71CFAD7
:1038F000FDF796FFFFF7FCFAFFF76AFA0120FDF7E4
:10390000E5FFF5E72DE9F041124C20F0010100251B
:1039100094F8240010B10020BDE8F081A07A4FF0A7
:10392000FF3668B10840277C2074884200D03546B5
:1039300041B1012000F084FC00F0F6F938B12774A1
:103940003046E9E7207D00B1012000F079FC2846EF
:10395000E2E70000680000207CB5044611480D46EF
:103960004FF0FF36817A090708D5016840686B4639
:10397000497B00780622FFF78FFF08B130467CBDF7
:10398000BDF8000040BA2080BDF8020040BA608057
:10399000BDF8040040BAA08015B1FEF7AFF828606A
:1039A00000207CBD680000200F494A7A42B1012AFC
:1039B00009D0022A11D0032A12D04FF0FF307047ED
:1039C0004FF4804201E04FF400520280C97C11B1F3
:1039D000C2F34E010180002070474FF48052F4E79B
:1039E0004FF40062F1E70000680000207CB5044657
:1039F00012480D464FF0FF36817A11F0700F08D053
:103A0000016840686B46097B00780622FFF744FF97
:103A100008B130467CBDBDF8000040BA2080BDF83A
:103A2000020040BA6080BDF8040040BAA08015B121
:103A3000FEF764F8286000207CBD000068000020CC
:103A40000A49097A41B1012908D002290AD003297B
:103A50000AD04FF0FF307047054900E0054901608A
:103A6000002070470449FAE70449F8E7680000209D
:103A70000000034300008342333303423333834166
:103A80002DE9FC41544C80208DF8000020686B46E5
:103A90000122817C60680078FFF707FF4FF0FF3755
:103AA00008B14EA00FE0C820FDF710FF00258DF8EB
:103AB000005020686B460122817C60680078FFF727
:103AC000F4FE18B147A0FCF7D7FB24E0C820FDF7AF
:103AD000FDFE20686B460622817D60680078FFF756
:103AE000DBFEC0B99DF805009DF80310C007400F2C
:103AF00001F0010140EA41019DF801004FF001068B
:103B000000F0010001430BD0012907D0022919D090
:103B100036A0FCF7B1FB3846BDE8FC81E67412E044
:103B200020686B460122C17860680078FFF7B4FE18
:103B300008B138A0C7E79DF8000010F00F0021D0B1
:103B4000042821D0E574FF2004F80A0F4FF6FF7116
:103B500004F8020C04F8010C6070A180A0712072BE
:103B6000A67026766576E572A572E56025616561C9
:103B7000A576E576A5834FF4FA6000F027FA38B110
:103B800026A0A0E727489EE727A0FCF775FBC5E71E
:103B9000022000F079F908B12BA094E72A2000F068
:103BA0007DFA08B12AA08EE7322000F0ADFA08B104
:103BB00029A088E70020FFF7A5FE08B128A082E72A
:103BC000002000F095F908B127A07CE7002000F064
:103BD000DBFA0020A0E70000680000203738310A37
:103BE000000000003739300A00000000556E737580
:103BF00070706F7274656420736F6674776172653C
:103C00002070726F64756374207265762025642E4F
:103C10000A0000003831340A000000003837310A49
:103C200000000000704A000848616C662073656EF1
:103C30007369746976697479207061727420666F33
:103C4000756E642E0A0000003837360A0000000046
:103C50003838310A000000003838360A0000000009
:103C60003839310A000000003930360A00000000FF
:103C70002DE9F84305464FF0FF39282844D8072797
:103C8000284C00267DB1012000F0D6F920208DF8C7
:103C900000004FF00108012D17D0052D18D88DF820
:103CA000018005201FE0002000F0C6F98DF80060BB
:103CB0008DF8017020686B460222817C6068007874
:103CC000FFF7F3FD00BB267529E08DF80160E8E7FA
:103CD000142D04D802208DF801000A2003E00320EF
:103CE0008DF80100142000F0D9F99DF801006B4611
:103CF00007EB80108DF8010020680222817C60684B
:103D00000078FFF7D2FD10B14846BDE8F8830820DF
:103D1000A072267384F814800020FFF7F3FD0020C2
:103D2000F3E7000068000020F8B5564C4FF0FF366E
:103D3000A07A00287DD000258DF8005020686B46C1
:103D40000122C17B60680078FFF7AFFD002870D1C9
:103D500020686B460122417960680078FFF7A5FD75
:103D6000002866D120686B460122017960680078DE
:103D7000FFF79BFD00285CD194F82400E0B30C20F1
:103D80008DF8000020686B46012201796068007898
:103D9000FFF78BFD002872D13220FDF797FDC02080
:103DA0008DF80000A07AC00702D0E0208DF8000056
:103DB00020686B460122017960680078FFF775FD85
:103DC00000285CD1607C18B102208DF8000001E071
:103DD0008DF8005020686B460122C17B6068007836
:103DE000FFF763FD28BB8DF8005020686B46012269
:103DF0004179606800783EE0FFE704208DF800001C
:103E000020686B460122017960680078FFF74DFD5C
:103E100078B9A07C90B9A07AC0070FD05FF060009D
:103E20008DF8000020686B460122017960680078F7
:103E300000E024E0FFF739FD08BB01E04020EFE798
:103E40003220FDF743FD607C18B101208DF80000A1
:103E500001E08DF8005020686B460122C17B60684C
:103E60000078FFF722FD50B92068064B0122417906
:103E7000606810330078FFF718FD002800D0304646
:103E8000F8BD00006800002038B5184C4FF0FF3531
:103E9000A17A19B3022806D0042806D008280ED02B
:103EA00010281BD10DE0002000E008208DF8000054
:103EB000607A9DF80010B0EBD10F04D005E010201F
:103EC000F4E71820F2E7002038BD20686B46012295
:103ED000C17960680078FFF7E8FC08B1284638BD72
:103EE0009DF80000C0086072EDE700006800002047
:103EF000F8B5354C0546A07CA84201D10020F8BD9C
:103F000031484FF0FF366B46D0E900104FF0010208
:103F10000979007835B3FFF7BFFC70BB9DF800004E
:103F20006B4620F020008DF8000020680122017906
:103F300060680078FFF7B9FCF8B90320FDF7C6FC0C
:103F400002208DF8000094F8220078B382202BE044
:103F500020686B460122017D60680078FFF7A5FCB0
:103F600058B92EE0FFF798FC38B9A07AC0079DF841
:103F7000000003D040F0200002E00CE020F0200020
:103F80008DF8000020686B46012201796068007896
:103F9000FFF78BFC08B13046F8BD0320FDF796FC17
:103FA00094F8220000B180208DF8000094F82300DE
:103FB0000028CDD09DF8000040F030008DF80000C2
:103FC000C6E7A5749AE700006800002038B5194CD0
:103FD0004FF0FF35A17A31B3FA2809D0B0F5FA7F56
:103FE00008D0B0F57A7F0FD0B0F5FA6F1BD10DE095
:103FF000002000E008208DF80000207A9DF80010D5
:10400000B0EBD10F04D005E01020F4E71820F2E760
:10401000002038BD20686B460122817960680078F5
:10402000FFF743FC08B1284638BD9DF80000C008E2
:104030002072EDE76800002038B5174C054694F86B
:104040002300A84201D1002038BD0DB1302000E08E
:1040500000208DF80000A07C28B19DF8000040F001
:1040600002008DF8000094F8220028B19DF80000AD
:1040700040F080008DF8000020686B460122017D31
:1040800060680078FFF711FC10B14FF0FF3038BDC9
:1040900084F82350D7E700006800002038B5194C99
:1040A0004FF0FF35A17A31B3BC2801D3012010E0D5
:1040B000622801D302200CE02A2801D3032008E063
:1040C000142801D3042004E00A2801D3052000E0CD
:1040D00006208DF80000E07A9DF80010884201D19A
:1040E000002038BD20686B46012281786068007826
:1040F000FFF7DBFB08B1284638BD9DF80000E072F1
:10410000EEE7000068000020F8B51E4D04464FF0B1
:10411000FF37A87A48B395F8240030BB287D4FF4C8
:104120007A7648B164B1282C03D8E0B2FFF7A0FD3D
:1041300026E00020FFF79CFD042C05D2042406E0B5
:104140000020FFF795FDF9E7B44200D93446B6FBED
:10415000F4F0401E8DF8000028686B46012241787B
:1041600068680078FFF7A1FB08B13846F8BD9DF8F4
:104170000000401CB6FBF0F0E8814008FFF78EFF1E
:104180000020F8BD68000020F8B5054610F0700F5B
:104190004FF0000601D0012004E015B18DF8006059
:1041A00002E040208DF80000244C6B46012220687C
:1041B000817C60680078FFF778FB4FF0FF3760BBC9
:1041C0009DF8000020F0400020738DF80060680624
:1041D00002D404208DF80000A80605D49DF8000044
:1041E00040F002008DF80000E80605D49DF80000BC
:1041F00040F001008DF80000280705D49DF800006C
:1042000040F038008DF8000020686B460122C17C28
:1042100060680078FFF749FB10B1A6723846F8BD18
:1042200025B1082D02D00020FFF706FFA5722675E4
:104230003220FDF74BFB0020F8BD00006800002095
:10424000F8B5144C0146224694F82460D2E90002E5
:1042500000235D1E56B179B1022111E0C17B1078B7
:104260006B460122FFF721FB68B90EE0A67A56B132
:1042700011B1617C61B902E08DF80030EEE70121F7
:104280008DF80010EAE72846F8BD9DF8000060743C
:104290000020F8BD6800002010B500290AD0087879
:1042A000002807D005487844FCF790FD002801D08D
:1042B000002010BD0248784410BD00003A080000FC
:1042C000320800000808A0F500114FEA31017047DC
:1042D00043004FEAD30C4FEA3C0C43401FBF40075A
:1042E0000CF1605113F0FE4F70471CF0006F03D1CA
:1042F00000200CF0004170470CF0004343EA50707E
:1043000010B540EACC0000F0E6F900BF00000092D2
:104310004FEA0001FFF7D6BF4FF000414FF0000019
:10432000A1F500217047000090EA010F48BF81F01D
:10433000004100F12C82421A3CBF801A89184FEAD2
:10434000D0524FF07F4C1CEA410FA2EBD15318BF63
:104350009CEA026F00F03B804FF0004C4CEA0020DA
:104360004CEA012121FA03FC10EB0C0C1ED202F1E5
:10437000FF325FEA1C2040EBC25038BF70471CF090
:104380007F0F4FEA400C18BFBCF17F4F38BF70471A
:10439000C3F12003994008BF20F00100BCF17F4F1A
:1043A00038BF7047A0F1C04000F0DBB94FEA3C00D5
:1043B000000A40EBC25028BF1CF0FF0F4FEA400C30
:1043C000E6D018BFBCF17F4F38BF7047EAE79CEAE0
:1043D000026F05D010EA5C0F08BF00F00040704784
:1043E00010B500F078F900BF64FBBE3E014800F054
:1043F0003EBA00BF0000C07F4FF47F0C1CEAD01211
:104400001EBF1CEAD11392EA0C0F93EA0C0F00F0C6
:10441000858090EA010F48BF42F4807240F4000C9E
:1044200041F400002CF07F4120F07F4000B5814234
:10443000A2EB03020FF2081CACEB504EC0F10000DF
:104440009EF800E04FEA4E0E00FB0EFC38BF49001C
:104450004FEA2C1C02F5FA020CFB0EF34FEACE1EBB
:104460004FEA112C4FEAC1210EEB635E42EB224270
:104470000EFB0CFC4FEA1C5300FB03114FEA112CFE
:104480004FEA01310EFB0CFC4FEADC4C00FB0C1137
:10449000C14228BF09184CEB03335DF804EB10EB65
:1044A000410143EBC250B2F57C0F38BF704729D5AC
:1044B00012F0F00F1CBF00F1C04000F00040704748
:1044C000008182838485868788898B8C8D8E8F91ED
:1044D0009293959697999A9C9D9FA0A2A3A5A7A811
:1044E000AAACAEB0B2B3B5B7B9BCBEC0C2C5C7C93D
:1044F000CCCED1D4D7D9DCDFE2E6E9ECF0F3F7FAA1
:10450000FE0000004FEA400C0CF1807CBCF17E4FB5
:1045100028BF7047B0F1C04000F023B990EA010F06
:104520000CEAD11348BF42F48072624538BF63453C
:1045300007D213F47F0F16D080EA010000F000408C
:10454000704710B500F0C7F8097EFC3E00F005B8D2
:1045500080EA010000F00040704780EA010000F0AE
:10456000004000F0FEB812F47F0F04BF024870470D
:1045700080EA010000F0F5B80000C07F10F00041B3
:1045800048BF4042B0FA80F310FA03F2C3F19D0332
:104590000BD051EAC35101EB1220530638BF7047CC
:1045A00000F1010008BF20F001007047B0FA80F36D
:1045B00010FA03F2C3F19D030AD0D90501EB1220D2
:1045C000530638BF704700F1010008BF20F001001A
:1045D000704700004FF47F0C1CEAD0121EBF1CEA8B
:1045E000D11392EA0C0F93EA0C0F00F0478090EA87
:1045F000010F48BF42F480724FF0004C4CEA00209B
:104600004CEA012102EB0302A0FB0113A2F5000218
:10461000002918BF43F001035B0028BF4FEA3303B2
:1046200042EB22425FEA132C4CEBC2502EBFBCEB94
:10463000436FB2F57C0F70474FEA036CBCF1004F3B
:1046400008BF20F00100B2F57C0F38BF70470BD5D2
:1046500082F0FF0212F5803FC8BF704700F1C040F2
:10466000D8BF00F00040704700F5000C5FEA4C0C2A
:1046700048BF7047B0F1C04000F073B890EA010F36
:104680000CEAD11348BF42F48072624538BF6345DB
:1046900004D280EA010000F00040704710B500F03D
:1046A0001AF800BF8900013E00F007B800F009B811
:1046B0005FEA410C5FEA1C6C08D080EA010000F060
:1046C00050B85FEA400C5FEA1C6CF6D14FF0004036
:1046D000A0F5800070470EF1020E2EF0030E5EF87A
:1046E000044B244204D44FEA4102B2F17F4F11D867
:1046F0004FEA4003B3F17F4F0CD80ED14FEAD07C84
:10470000B2F17F4F0CEB4C0C0CF1020C08BF4CEBE0
:10471000D17C04E04FF0080C01E04FEAD17C0CEBB7
:104720004C0324FA03F404F00704B4F1040C06D299
:104730000EEB840CBDE810404CF0010C6047DFE844
:104740000CF0070802024FF00040A0F5800010BDF9
:104750000846420018BFD2F1807288BF00F00040C6
:1047600010BDFF2141EAD050C005704780F00040E5
:1047700090EA010F7FF5DFAD81F0004100F007B84E
:1047800090EA010F48BF81F000413FF5D4AD421AD5
:1047900004D882F00042A0EB020011444FEAD0524C
:1047A0004FF07F4C1CEA410FA2EBD15318BF9CEA9B
:1047B000026F4AD04FF0004C4CEA00204CEA012135
:1047C00021FA03FCB0EB0C0C0FD412F0FE0F36D024
:1047D0005FEA4C001DD5001240EBC25038BF704755
:1047E0001CF03F0F18BF70470BE0A2F101025FEA17
:1047F0001C2040EBC25038BF70471CF07F0F18BF21
:104800007047C3F12003994014BF401E20F00100FF
:10481000704780084FEA122308BF7047B0FA80FC47
:10482000A2EB0C02CCF1280C60FA0CF093EA122FE8
:1048300004BF00EBC25070474FEAC3707047130AC1
:104840005FEADC1008BF7047F6E79CEA026F04D00D
:1048500010EA5C0F08BF0020704710B5FFF73BFF60
:1048600040DFF63E81F000407047FCF718B80CF0CE
:104870000F03092B08BF082000F051800A2B0BD032
:10488000082B18BF704708BF1CF0400F0AD04FF02C
:1048900000004FF0000170471CF0400F18BF4FF0B0
:1048A000004070471CF0100F08D020F0704300F05B
:1048B0007F4242EAD3014FEA4370704700F0604004
:1048C00021F07F4242EA000201F07F4040EA72702C
:1048D00070474FF0FF0212EAD0521CBF92F0FF0364
:1048E0008B42C2BFD14200EBC1507047002A0AD0B0
:1048F000002B0BD0002900F00040A4BF40F0FE4088
:1049000040F40000704700F00040704743024FF051
:104910000B0C18BF4CF0806C7FF468AD70471CF432
:10492000801F11D01CF4E02F03D06FEACC31490076
:1049300070474FF04050EFF3008222F0704242EA9D
:10494000000282F3008870474FF000007047680053
:10495000000476005401F7FD000175191A0C6A2352
:104960001B1C1F207274433B4138393A6B6C376F04
:1049700006246D6E70000000830000000008000037
:104980000001001832000500000020410000D24262
:10499000295C0F3E9A99993E3333733F295C0F3E51
:1049A000010202030405060708090A0B0C0D0E0F8D
:1049B00010100000000000000000010203040607C0
:1049C00008090000000001020304040000080000C0
:1049D0000000000000020001000010000240000082
:1049E000000000A00000000005400000000000C81A
:1049F000000000000C4000000000409C000000008F
:104A0000194000000020BCBE00000000344000003F
:104A1000BFC91B8E00000004B5400000504BCFD032
:104A20006607E2CF010000006C4100003E8251AAFF
:104A3000DFEEA73401000000D9420000DCB5A0E29F
:104A40003A301F97FFFFFFFFB4450000FD25A0C8C7
:104A5000E9A3C14FFFFFFFFFFF3F00000000008000
:104A600000000000FF3F0000000000800000000088
:104A700050726F64756374204944207265616420CC
:104A80006173203020696E646963617465732064AA
:104A9000657669636520697320656974686572204D
:104AA000696E636F6D70617469626C65206F7220EE
:104AB000616E204D5055333035302E0A0000000015
:104AC000FC4A000800000020A40000006C0100085F
:104AD000A04B0008A4000020BC07000088010008CB
:104AE0001C00000043000000F8FFFFFF0C00000066
:104AF0000E0000000F0000002E000000004000002B
:104B0000333383410000000000000000000000007B
:104B1000000000000000803F0000000000000000D6
:104B20000000803F0000000000000000EC000020BA
:104B30000000000000000000000000000000000075
:104B40000000000034010020000000000000000010
:104B50000000000000000000010000000000000054
:104B6000000000005A4900084E49000800000000FB
:104B70000000000000000000000000000000000035
:104B8000000000000000000000000000784900085C
:104B900001000000100000000000000000127A0078
:0400000508000131BD
:00000001FF
