:020000040800F2
:10000000180D0020ED01000821390008AB2D000873
:100010004D370008A51800083D4300080000000007
:10002000000000000000000000000000833C000809
:10003000A718000800000000813C0008F73D0008F8
:10004000070200080702000807020008070200086C
:10005000070200080702000807020008070200085C
:10006000070200080702000807020008070200084C
:10007000070200080702000807020008070200083C
:10008000070200080702000807020008070200082C
:10009000070200080702000807020008070200081C
:1000A000070200080702000807020008070200080C
:1000B00007020008070200080702000807020008FC
:1000C00007020008070200080702000807020008EC
:1000D0000702000807020008070200083143000871
:1000E00007020008070200080702000807020008CC
:1000F00007020008070200080702000807020008BC
:1001000007020008070200080702000807020008AB
:10011000070200080702000807020008070200089B
:10012000070200080702000807020008070200088B
:1001300000F002F800F04AF80AA090E8000C8244AF
:100140008344AAF10107DA4501D100F03FF8AFF28C
:10015000090EBAE80F0013F0010F18BFFB1A43F0A5
:10016000010318471094000030940000103A24BF97
:1001700078C878C1FAD8520724BF30C830C144BF0C
:1001800004680C607047000000230024002500264E
:10019000103A28BF78C1FBD8520728BF30C148BFEA
:1001A0000B607047662907F0F084642900F07080C6
:1001B000002070471FB500F0D5FC0400002000218E
:1001C00006F072FCE0601FBD10B510BD00F0EAFD46
:1001D0001146FFF7EFFF05F0A1FC00F008FE03B4A5
:1001E000FFF7F2FF03BC04F03EF900000948804726
:1001F00009480047FEE7FEE7FEE7FEE7FEE7FEE709
:10020000FEE7FEE7FEE7FEE704480549054A064B20
:1002100070470000593E000831010008180700200F
:10022000180D00201809002018090020704710B58B
:100230004C1084EA530404D54042C1F1000138BF98
:10024000491E1B4204D55242C3F1000338BF5B1E56
:1002500000F069F914F0804F04D04042C1F1000170
:1002600038BF491E14F0004F04D05242C3F10003BE
:1002700038BF5B1E10BD00000FB4044910B503AABF
:10028000029800F03BFC10BC5DF814FB5400002009
:100290002DE9F0410646002410687529314616A55F
:1002A00010D0AFF30080002802DA404213A507E027
:1002B00031688A0701D512A502E0490704D511A5C6
:1002C000012401E0AFF3008000210A2206F1240797
:1002D00009E0B0FBF2FCB0FBF2F302FB1C00303093
:1002E00078541846491C0028F3D123462A46304644
:1002F000BDE8F04100F099B9000000002D000000B9
:100300002B000000200000002DE9F0474FF0000A0C
:1003100089460446C0F820A02046E16888470028A6
:1003200076D0252806D0D4E901219047206A401CC8
:100330002062F1E7E168204600268847C4F81CA047
:1003400005460027C4F818A02A2D09D0284604F035
:1003500083F838B304EB8708303DC8F8185019E02B
:1003600059F8041B204604EB87029161E168884735
:10037000012F054618D1E069002820DA26F0200672
:100380001DE0D8F8180000EB800005EB4000303885
:10039000C8F818002046E1688847054604F05CF874
:1003A0000028EED1012F0AD02E2D08D12046E16879
:1003B00088477F1C0546022F46F02006C4DBA06953
:1003C000002803DA404246F00106A061F00701D0A0
:1003D00026F010066C2D0AD0682D08D04C2D39D08F
:1003E0006A2D35D0742D35D07A2D33D016E0E168E2
:1003F0002F4620468847B84205460AD16C2F27D0A1
:100400004FF48060E168064320468847054605E0D2
:1004100027E06C2F1AD04FF4807006430DB3A5F17E
:100420004100192802D8203546F400664A4629467C
:10043000204626604E46FFF7B5FE80B101280BD05E
:10044000F61D26F0070000F1080965E74020E4E703
:100450008020D7E70020D5E706F104095CE72846AD
:1004600061E7206ABDE8F08740EA010310B59B0709
:100470000FD1042A0DD310C808C9121F9C42F8D00E
:1004800020BA19BA884201D9012010BD4FF0FF30BF
:1004900010BD1AB1D30703D0521C07E0002010BDD5
:1004A00010F8013B11F8014B1B1B07D110F8013B61
:1004B00011F8014B1B1B01D1921EF1D1184610BD42
:1004C00002F0FF0343EA032242EA024200F02ABBA1
:1004D0004FF0000200B5134694469646203922BFDD
:1004E000A0E80C50A0E80C50B1F12001BFF4F7AF28
:1004F000090728BFA0E80C5048BF0CC05DF804EB0A
:10050000890028BF40F8042B08BF704748BF20F877
:10051000022B11F0804F18BF00F8012B7047704775
:1005200070477047704753EA020C00F069802DE96C
:10053000F04B4FF00006002B1FBFB3FA83F503FA10
:1005400005F424FA05F65E4012BF1643B2FA82F5AE
:1005500002FA05F4C5F120051EBF22FA05FC44EAA3
:100560000C04203556EA044C4FEA144418BF641CAE
:100570004FF000084FF00009904271EB030C39D3A3
:10058000002919BFB1FA81F701FA07F6B0FA80F72E
:1005900000FA07F6C7F120071EBF20FA07FC46EA5B
:1005A0000C062037B6FBF4FCA7EB0507103F07F05D
:1005B0001F0BCBF120060CFA0BFB2CFA06F644BFFE
:1005C000B3460026202FA4BF5E464FF0000B5BEA27
:1005D000060C08BF4FF0010B19EB0B09ABFB027CBB
:1005E00048EB0608C01B06FB02CC0BFB03CC71EBEF
:1005F0000C01C1E70B46024641464846BDE8F08B78
:1006000013B54FF000004FF00001AFF30080BDE8DC
:100610001C40704710B500F0A9FA006810BD10B575
:10062000044600F0A3FA046010BD2DE9F0470D4622
:1006300099469246044600F124080168880604D5CC
:10064000E06921F01001216000E00120A84201DDF5
:10065000471B00E00027A1697A1902EB0900081A7C
:10066000A0612078C00602D42046AFF300800026A7
:1006700008E0D4E901211AF806009047206A401CDE
:10068000761C20624E45F4DB2078C0060AD5204651
:10069000AFF3008006E0D4E9012130209047206AC2
:1006A000401C2062381EA7F10107F4DC07E0D4E902
:1006B000012118F805009047206A401C2062281E7E
:1006C000A5F10105F3DC2046AFF300802078000699
:1006D00002D50220BDE8F0870120FBE770472DE935
:1006E000FF4F0C461E464FF0FF378BB0D2E900019A
:1006F000DDF860800A908A46C1F30A5505B93D4687
:10070000002108464FF00000BAF1000F00F440004D
:1007100005DA00EB80004FF4400101EA50004FEA97
:100720009059B9F1010F00DDB9460A9850EA4A0024
:100730000ED044F61050A5F2FF3545432F14B8F102
:10074000000F1ED07542291E1EDDC9F100021CE0FB
:10075000B8F1010F4FF0000001D0302103E0F24367
:1007600005E02154401CB042FBDB30460022002152
:1007700021540B99C1F80880C1E900200FB0BDE8F1
:10078000F08FBD1B6D1CDEE74A4600DA694206A801
:1007900000F08EFA06AB93E8070003AB83E807008E
:1007A00050460A9900F06CFB8DE80700A0F5005058
:1007B0001F3800900398002D0ADD42F21F014A46BF
:1007C0000844002303A90390684600F0D5FD09E022
:1007D000A0F500504A461F38002303A9039068463D
:1007E00000F0DFFD8DE807000004000C03D04FF09F
:1007F000FF30410800E01046B8F1000F03D000229E
:10080000009215461EE0751E05D400F0B3F9303293
:1008100062556D1EF9D5B3460122084302D000226D
:100820007F1C04E02078302801D100227F1E002A9E
:10083000099784D01DE0112D07DA00F09BF93032C2
:1008400062556D1C50EA0102F5D1084302D00098B0
:10085000C8B10EE00021681E05E0235C625C6354B1
:100860002254401E491C8142F7DBAB46A81B401EA8
:100870000990002004F80B000B98099AC0F8088032
:10088000C0E9002B7AE711264FF0000857E72DE961
:10089000F04F88460446D21D22F0070191B0D1E9FD
:1008A0000001CDE90A0103F04AFD02460B98C00F92
:1008B00001D02D2007E02068810701D52B2002E020
:1008C000202101EAC000032A099001D0072A05DB94
:1008D00003464146204600F0ABF90BE12078800644
:1008E00001D5E06900E00620B8F1650F814606D029
:1008F000B8F1660F18D0B8F1670F70D131E0002061
:10090000B9F1110F009001DB112301E009F101039E
:100910000AAA01A90CA8FFF7E2FEDDE90C70002687
:1009200009F10105834647E001204B4600904FF056
:1009300000470AAA01A90CA8FFF7D1FEDDE90DB016
:100940000C995D46002610B909F101000D18B9EBAC
:10095000050003D4C0F1FF3609F10105A5EB09003C
:100960002BE0B9F1010F01DA4FF001090020B9F1D4
:10097000110F0090484601DD112300E003460AAA4A
:1009800001A90CA8FFF7ABFEDDE90C704D4600266F
:100990008346207800070AD4AB4500DA5D4601A8FB
:1009A000012D04DD411911F8011C302907D04F45F4
:1009B00002DA17F1040F04DA012082460FE06D1EFF
:1009C000EEE7002F02DCED1B3E4403E0781CA8425A
:1009D00000DD7D1CB81B00F1010A4FF000472078B4
:1009E000000703D4AA4501DB4FF0FF3A0021B7F11D
:1009F000004F0DF143088DF8431024D002202B2323
:100A0000002F01DA7F422D230A21021EA0F10100EE
:100A100000DC5FB197FBF1FC97FBF1F201FB1C7C62
:100A200017460CF1300C08F801CDEEE7A8F10100F3
:100A300003702188090501D5452100E06521A0F159
:100A4000010800F8011C09980FA9A1EB0807FF1D78
:100A500000B10120411901EBEA70A1693844081A7C
:100A6000401EA0612078C00602D42046AFF300806B
:100A7000099828B1D4E901219047206A401C2062DE
:100A80002078C00622D52046AFF300801EE0002E5D
:100A900004DBB34502DD01A8805D00E03020D4E92D
:100AA00001219047206A401C2062761CAAF10100B7
:100AB0005FEA000A0AD100F055F8C0680168405C9E
:100AC000D4E901219047206A401C2062281EA5F12C
:100AD0000105DCDC07E0D4E9012118F8010B90479F
:100AE000206A401C2062381EA7F10107F3DC204673
:100AF000AFF30080032011B041E60000074B70B552
:100B00000D467B4400F081F80446284600F042F987
:100B100010B14FF0FF3070BD204670BD5F4900003E
:100B20004FF000020429C0F0128010F0030C3FF4D3
:100B3000D1ACCCF1040CBCF1020F18BF00F8012BB2
:100B4000A8BF20F8022BA1EB0C01FFF7C3BC5FEAA2
:100B5000C17C24BF00F8012B00F8012B48BF00F82E
:100B6000012B704700487047D806002000487047A6
:100B7000B806002030B5B0F10A024FEA900E71F1CC
:100B800000034EEA817EB0EB0E0061EB91014FEA6B
:100B9000101E4EEA017E10EB0E0041EB11114FEAE0
:100BA000102E4EEA016E10EB0E0041EB11214FEAC0
:100BB000104E4EEA014E10EB0E0041EB1141401871
:100BC00041F100014FEAD00040EA41704FEAD10103
:100BD00010EB80054FEA810444EA907444EB010471
:100BE0006D1944EB0404521BA3414FF0000348BFAE
:100BF0000A3200D530BD401C41F1000130BD00007B
:100C000001694A1C02610878704700B58FB0CDE9D0
:100C100001310021059105497944CDE903101146C0
:100C20006846FFF771FB0FB000BD0000E5FFFFFF56
:100C30002DE9F0411F46044603260168072A01F406
:100C4000006004DB08B116A505E016A503E008B1B5
:100C500015A500E015A521F010002060A069C01EB8
:100C6000A0610FB1401EA0612046AFF300804FB1DC
:100C7000D4E9012138469047206A401C2062C01CFC
:100C8000206206E0206AFAE7D4E9012115F8010B99
:100C90009047761EF8D22046AFF30080BDE8F08181
:100CA0004E414E006E616E00494E4600696E660010
:100CB0002DE9F047814616468AB0354878440DC87C
:100CC0008DE80D0032487844801C03AC0DC884E8E0
:100CD0000D0041F69B300844372190FBF1F290FB68
:100CE000F1F5A5F1800501FB12041B3C02D564421D
:100CF000012000E00020DFF898A080460027FA4499
:100D0000AAF1BE0A0EE0E0070AD03246684607EBB9
:100D1000470101230AEB810100F043FB8DE8070046
:100D200064107F1C002CEED1194F7F44AE3F19E0B8
:100D3000E80715D007EB04100DF1180A90E80E0033
:100D40008AE80E00C068F04201D198190890324636
:100D5000012306A903A800F024FB03AB83E80700E6
:100D60006D10641C002DE3D14FF00103324669463B
:100D7000B8F1000F03A802D000F0FEFA01E000F085
:100D800010FBC9E90001C9F808200AB0BDE8F087E6
:100D90004C880000007B00F08000704700487047DE
:100DA000B80600207546FFF7F9FFAE460500694614
:100DB000534620F00700854618B020B5FFF724FA07
:100DC000BDE820404FF000064FF000074FF000084C
:100DD0004FF0000B21F00701AC46ACE8C009ACE8CD
:100DE000C009ACE8C009ACE8C0098D46704710B531
:100DF0000446AFF300802046BDE81040FFF7EFB98E
:100E00004FF0013C50F8042B51F8043B9A4221D199
:100E1000A2EB0C03934313EACC1317D150F8042B25
:100E200051F8043B9A4215D1A2EB0C03934313EA09
:100E3000CC130BD150F8042B51F8043B9A4209D142
:100E4000A2EB0C03934313EACC13DBD04FF000006A
:100E5000704700BFD01A01BAB1FA81F101F0180150
:100E600022FA01F0CB40C1F12001DBB2C0B2C01ABE
:100E70002CFA01F3D11A914311EAC311E6D170475C
:100E80005FEA400C08BF91F0000F4FEA8C234FEA55
:100E9000C12243EA51514FEA1C5018BF00F5F040FF
:100EA0004FEA300018BF41F000415FEA6C5C00F08F
:100EB0002980BCF1FF3F08BF40F080407047130C11
:100EC00006BF12044FF0100C4FF0000C130E04BFBD
:100ED00012020CF1080C130F04BF12010CF1040CE8
:100EE000930F04BF92000CF1020CD30F04BF520009
:100EF0000CF1010C11464FF00002A0F11F00A0EB15
:100F00000C00704711F0004F08BF704731F00041EE
:100F10003FF4D5AF0B0C06BF09044FF0100C4FF097
:100F2000000C0B0E04BF09020CF1080C0B0F04BFE0
:100F300009010CF1040C8B0F04BF89000CF1020CA9
:100F4000CB0F04BF49000CF1010CCCF12003A0EB46
:100F50000C0022FA03F302FA0CF241EA030100F159
:100F60000100704720F07F4C80EA030023F07F47A8
:100F7000ACEB070303F57C5300F0004003F1FF03E3
:100F80002DE980494FEA154B09B44FEA144325EA8D
:100F90000B4E24EA03480FF2042606EB13274908F8
:100FA0003E785FEA320203FB0667C7F5000707FBDE
:100FB00006F64FEA54374FEAD64606F1020607FB1B
:100FC000066CCCF1005C4FEA1C472CEA074C07FB8F
:100FD00006F40CFB06F504EB15464FEA961634BFF3
:100FE00000204FF000404FEAD13706FB07FC4FEAE4
:100FF0001C4C0CFB0BF7D21B03FB0CF761EB07013E
:101000000CFB0EF7B0EB074072EB17420CFB08F736
:1010100034BFA2EB0742B2EB074261EB17414FEA44
:101020000C444FEA910706FB07FC4FEA1C4C0CFBF3
:101030000BF7B0EBC74072EB573203FB0CF734BF32
:10104000A2EBC742B2EBC74261EB57310CFB0EF784
:10105000B0EBC70072EB57720CFB08F734BFA2EB82
:10106000C702B2EBC70261EB5771039F4FEA816180
:1010700041EA921104EBCC044FEAD1374FEA826285
:1010800006FB07FC42EA90124FEA80604FEA1C4CD4
:101090000CFB0BF7D21B03FB0CF761EB07010CFBFE
:1010A0000EF7B0EB074072EB17420CFB08F734BFAA
:1010B000A2EB0742B2EB074261EB17414FEA8C55B6
:1010C0004FEA910704EB9C2406FB07FC4FEA1C4CFB
:1010D0000CFB0BF7B0EBC74072EB573203FB0CF77E
:1010E00034BFA2EBC742B2EBC74261EB57310CFBF6
:1010F0000EF7B0EBC70072EB57720CFB08F734BF6A
:10110000A2EBC702B2EBC70261EB577115EB4C259E
:101110004FEA816141EA92114FEA82624FEAD13788
:1011200042EA901206FB07FC44F100044FEA80609B
:101130004FEA1C4C0CFB0BF7D21B03FB0CF761EBCB
:1011400007010CFB0EF7B0EB074072EB17420CFBEC
:1011500008F734BFA2EB0742B2EB074261EB17413D
:1011600015EB1C154FEA813141EA92414FEA823278
:1011700042EA90424FEA80304FEA0C7644F1000494
:1011800048EA03434EEA0B484FF0000EB2EB080C5E
:1011900071EB030724BF624639464EEB0E0E4FF04B
:1011A000000B0018524149414BEB0B0BB2EB080C02
:1011B00071EB03077BF1000B24BF624639464EEB0F
:1011C0000E0E4FF0000B0018524149414BEB0B0B38
:1011D000B2EB080C71EB03077BF1000B24BF6246F6
:1011E00039464EEB0E0E51EA020718BF46F00106D3
:1011F00016EB0E7655F1000254F1000103D5BDE85F
:101200008901BDE80088BDE88901BDE80048B6193C
:10121000524141EB0101A3F10103704780807F7EC1
:101220007D7C7B7A7978777676757473727171705C
:101230006F6E6E6D6C6C6B6A6A696868676666650E
:101240006464636362616160605F5F5E5E5D5D5C9C
:101250005C5B5B5A5A59595858575756565555550D
:101260005454535352525251515050504F4F4F4E6D
:101270004E4D4D4D4C4C4C4B4B4B4A4A4A494949BB
:1012800048484847474747464646454545444444FD
:10129000444343434342424242414141002B9C4626
:1012A00030D477002BD01CB54FEA370703B44FF08A
:1012B00010004FF01001BAF1000F06D0BCF1000F82
:1012C000DCBF40F0080040F008014FF000000FBC08
:1012D000BDE810400BF1010BBBF1010F08BF5FEA45
:1012E000170722BF12F1010211F101014FF0004175
:1012F00043F1000300F0004043EA00007047F9D3D7
:101300005708D0E746EA064613F1400F4FEA164663
:101310001FDD13F1200FDFBF16430A4600212033E3
:101320005B42BED0C3F1200746EA064602FA07F741
:101330004FEA164646EA0706C3F1200722FA03F2EF
:1013400001FA07F721FA03F14FF0000342EA07021E
:10135000A7E746EA020646EA06464FEA164646EA86
:101360000106BCBF46EA0646360C4FF000034FF0BC
:1013700000024FF0000194E72DE9804C9A46934615
:1013800070B491E8380007C831EA400C48BF34EA2D
:10139000430C03D5FFF7E6FDFFF780FFF0BCBDE887
:1013A000008C2DE9804C9A46934670B491E8380041
:1013B00007C810F0804F08BF13F0804F03D100F032
:1013C00005F8FFF76BFFF0BCBDE8008C20F07F470D
:1013D00080EA030023F07F4C07EB0C03A3F57C535A
:1013E00000F00040A3F1FE0392F0000F00F0B38084
:1013F00095F0000F00F077802DE901494FEA114088
:101400004FEA144621EA004800FB06FC24EA06479E
:1014100008FB06F607FB08F800FB07F718EB064881
:101420004CEB164C4FEA124B18EB07484FEA1546A7
:101430004CEB174022EA0B4E0BFB06FC25EA064755
:101440000EFB06F607FB0EFE0BFB07F71EEB064E28
:101450004CEB164C4FF000061EEB074E4CEB174BB7
:1014600018EB0B0840F1000018EB0E0B58EB0008CE
:1014700040F100008F1A4FF000013CBFC943661BCA
:1014800014BFB5EB040C00213CBFC943F61B4FEA67
:1014900017444EEA8E0E27EA04454FEA1C4704FB28
:1014A00007622CEA074C05FB07F70CFB05F604FB6B
:1014B0000CFC16EB074642EB174216EB0C4642EBD0
:1014C0001C421BEB060658EB0202414146EA9E060F
:1014D00001D5BDE80189B619524141EB0101A3F1E3
:1014E0000103BDE801894FEA14454FEA114724EA98
:1014F000054621EA074C05FB07F406FB07F70CFB42
:1015000006F105FB0CFC11EB074144EB17444FEAD5
:10151000124711EB0C4144EB1C4422EA074C05FB3B
:1015200007F206FB07F70CFB06F605FB0CFC16EBB7
:10153000074642EB174216EB0C4642EB1C456A1875
:1015400054F1000148BF7047B619524141EB010107
:10155000A3F10103704795F0000F37D04FEA114215
:101560004FEA144721EA024624EA074C02FB07F13E
:1015700006FB07F70CFB06F402FB0CFC14EB07441C
:1015800041EB17414FEA154714EB0C4441EB1C416A
:1015900025EA074C02FB07F506FB07F70CFB06F6EE
:1015A00002FB0CFC16EB074645EB174516EB0C4609
:1015B00045EB1C42121951F1000148BF7047B619A2
:1015C000524141EB0101A3F1010370474FEA144579
:1015D0004FEA114724EA054621EA074C05FB07F1CB
:1015E00006FB07F70CFB06F24FF0000605FB0CFCB0
:1015F00012EB074241EB174112EB0C4251EB1C413D
:1016000048BF7047921841EB0101A3F101037047F5
:101610003838142825D2DFE800F02022242424249E
:101620002424240A0C0E10121416181A1C1E412011
:101630007047422070474320704744207047452040
:101640007047462070474720704748207047492020
:1016500070474A2070474B20704738207047392028
:1016600070470020704700003838142825D2DFE882
:1016700000F02022242424242424240A0C0E1012F6
:101680001416181A1C1E0EA070470FA0704711A048
:10169000704713A0704715A0704717A0704719A096
:1016A00070471BA070471DA070471EA0704720A068
:1016B000704721A0704723A0704725A07047000005
:1016C000464F52574152440046524F4E545F524982
:1016D000474854005455524E5F5249474854000001
:1016E0004241434B5F524947485400004241434BFB
:1016F00057415244000000004241434B5F4C454675
:10170000540000005455524E5F4C454654000000B2
:1017100046524F4E545F4C45465400004752415686
:10172000495459004A4F59535449434B0000000053
:10173000425554544F4E000053504545445F555058
:101740000000000053504545445F444F574E000091
:10175000554E4B4E4F574E0070B5EFF3108272B698
:10176000074B9C68DD685E789B7866F3070163F33E
:101770000F2102B962B60460C0E9015170BD0000DA
:1017800044000020044800218180C1808160C16044
:101790004170817000F038B84400002038B505462B
:1017A0000C46684600F00EF800280AD014B19DF8E7
:1017B0000000207025B19DF80000FFF729FF287078
:1017C000012038BD30B503004FF0000015D0EFF315
:1017D000108272B60A498C88CD88AC4209D009487B
:1017E000CC88005D1870C888401C00F03F00C8809D
:1017F0000120002A00D162B630BD002030BD0000BB
:10180000440000200001002001220249024801F0AA
:101810006BBA0000440000206002002010B5006890
:101820000649884209D1064801F040F8BDE8104059
:1018300001220449024801F057BA10BD0048004097
:10184000600200204400002010B500681149884261
:101850001ED1114A10789188D388491C01F03F01AC
:1018600099420BD00D4B9488185591805070FFF71A
:10187000CFFE90709068401C906002E0D068401CE1
:10188000D060BDE8104001220349054801F02CBAA0
:1018900010BD00000048004044000020000100206E
:1018A00060020020FEE770472DE9F0410E46074632
:1018B0000021144608461D46091BA84102DB0020F2
:1018C000BDE8F081002E4FF002024FF000032046E9
:1018D000294604DBFEF7ABFCC019714104E0FEF7BA
:1018E000A6FC381A66EB010122462B46FEF79FFC48
:1018F000E6E700000148C068704700000C000020C7
:101900000148C068704700002400002010B5054859
:1019100000F027F8044800F024F8BDE8104000F07B
:1019200005B8000088010020D001002010B507484C
:1019300000F00EF80548183000F00AF800F03EFA02
:10194000024908390860486010BD00000C00002002
:1019500001680968496A818000218160C160016174
:10196000704710B53C2100F01DFE002803D0BDE8F3
:10197000104000F04DB810BD70B500F01FFA0D4DCD
:1019800004462868261AB6F57A7F03D9BDE8704068
:10199000FFF7CCBF0A2E0BD30648314608302C6027
:1019A00000F00AF803483146203000F005F86C607A
:1019B00070BD0000040000202DE9F04107460068DA
:1019C0000A460068406AB988B880411A387D0CB26E
:1019D00008B1604204B2B8684EF660232044B86093
:1019E0000948A2FB032384FB000115461E46FFF7AE
:1019F0005BFFF86005482A4684FB00013346FFF789
:101A000053FF3861BDE8F081B06C3C01808D5B0014
:101A100072B6FEE710B590F821100022022905D019
:101A20000421816380F82020012010BD01680B682B
:101A300023F00E030B6001680B6823F001030B60B9
:101A400090F84030C46B012101FA03F3636080F821
:101A5000211080F82020104610BD00002DE9F05F15
:101A600090F821100024022903D00421816301246D
:101A700085E001680A6822F00E020A6001680A68BF
:101A800022F001020A603F4E3E4FB215DFF8F4C06B
:101A9000DFF8F090DFF8ECA0DFF8E8B0DFF8E4E082
:101AA0000168783F13011502ACF1640CA9F15009EB
:101AB000AAF13C0AABF1280BAEF1140E4FF48018DA
:101AC000B14227D9B9420ED0614512D049451DD047
:101AD000514518D0594518D0714501D1424615E0FD
:101AE000294EB14201D1012210E0274E1436B142F5
:101AF00001D110220AE0244E2836B14206D0224AF3
:101B00003C32914201D11A4600E02A461E49091F83
:101B10000A602BE0B94213D0614517D0494522D065
:101B200051451DD059451DD0714501D142461AE09D
:101B3000B14202D14FF0807215E0134EB14201D193
:101B4000012210E0104E1436B14201D110220AE0F9
:101B50000D4E2836B14206D00B4A3C32914201D19B
:101B60001A4600E02A46074980394A60012180F878
:101B70002110002180F82010416B01B188472046D8
:101B8000BDE8F09F800002400804024070B50446A2
:101B900000F014F90546601C02D0044800780444A3
:101BA00000F00CF9401BA042FAD370BDB800002031
:101BB0002DE9F84FDFF8C8910024A9F1040B234662
:101BC0000F2709F1040AABF1040ED1E00125A5406D
:101BD00006EA0502AA4276D1DFF8A8C14E68A6EB54
:101BE0000C0866452BD00DDC032E34D005DC36B353
:101BF000012E19D0022E2FD11BE0112E16D0122E3D
:101C00002AD119E0B8F5881F19D006DCB8F5803F55
:101C100015D0B8F5801F1FD111E0B8F5001F0ED008
:101C2000B8F5041F18D10AE0CB6815E0CB681B1D7E
:101C300012E0CB6808330FE0CB680C330CE08B6804
:101C40002BB1012B4FF0080303D0456104E00423BE
:101C500002E0056100E00023FF2A01D8064601E00A
:101C600000F104064FEA840501D9A5F12005D6F854
:101C7000008007FA05FC28EA0C0803FA05F548EA93
:101C80000508C6F800804D68ED0070D53E4DAE6980
:101C900046F00106AE61AD6924F0030605F00105CA
:101CA00000953A4D06EB050CDCF80850A607360FF8
:101CB00007FA06F825EA0805DFF8D480404503D185
:101CC0004FF0000825E052E0DFF8C880404502D11F
:101CD0004FF001081DE0DFF8C080404502D14FF011
:101CE000020816E0DFF8B480404502D14FF0030847
:101CF0000FE0DFF8AC80404502D14FF0040808E067
:101D0000DFF8A080404502D14FF0050801E04FF018
:101D1000060808FA06F848EA0508CCF808804D6875
:101D2000D9F80060ED024D4601D5164300E0964318
:101D30002E604D68DAF80060AD02554601D51643B5
:101D400000E096432E604D68DBF80060AD035D4611
:101D500001D5164300E096432E604D68DEF8006022
:101D6000ED03754601D5164300E096432E60641CD2
:101D70000A681646E2407FF429AFBDE8F88F0000FC
:101D80000804014000001110001002400000014052
:101D900000080140000C0140001001400014014007
:101DA00000180140001C01408068084000D001205C
:101DB00070470AB1016170470904FBE70148806878
:101DC00070470000B8000020024881680278114482
:101DD00081607047B8000020074810B5016841F0E5
:101DE00010010160032000F075F80F2000F006F8E4
:101DF00000F024F8002010BD0020024070B50D4D09
:101E000004464FF47A712878B1FBF0F00A4909686A
:101E1000B1FBF0F000F0DCFA48B9102C07D2002238
:101E20002146501E00F036F800206C6070BD012085
:101E300070BD0000B8000020C40000200C4808B5A8
:101E4000816941F001018161816901F00101009125
:101E5000C16941F08051C161C06900F080500090BB
:101E60000448416821F0E06141F00071416008BD23
:101E70000010024000000140002809DB00F01F02B2
:101E8000012191404009800000F1E020C0F80011DC
:101E900070470000F0B40E4B1B680C46C3F30223DE
:101EA000C3F10705042D00D90425191D072901D206
:101EB000002300E0DB1E012606FA05F1491E214041
:101EC00099409E40761E16403143F0BC02F04BBA5A
:101ED0000CED00E0064900F0070208684FF6FF032A
:101EE000184040EA0220034A10430860704700008F
:101EF0000CED00E00000FA052DE9F0470F46050063
:101F000061D0434E306800F00700B84209D2306813
:101F100020F0070038433060306800F00700B84216
:101F200051D128683B4C810712D5400703D5606822
:101F300040F4E06060602878000703D5606840F4F2
:101F4000605060606068A96820F0F000084360603D
:101F50002878C00728D06868012810D02168022896
:101F600010D0890700292EDA616821F003010143AE
:101F70006160FFF723FF804641F288390DE0216858
:101F80008903EFE78901EDE7FFF718FFA0EB0801F0
:101F9000494502D90320BDE8F0876068696800F010
:101FA0000C00B0EB810FEFD1306800F00700B842B1
:101FB0000BD9306820F0070038433060306800F0FB
:101FC0000700B84201D00120E5E72878400705D591
:101FD0006068E96820F4E0600843606028780007E2
:101FE00006D56068296920F4605040EAC10060604D
:101FF00000F038F86168084AC1F30311515CC84029
:102000000649086006480068FFF7F8FE0020C2E7AE
:10201000002002400010024024890008C400002073
:10202000BC0000200448054900684968044AC1F31F
:102030000221515CC8407047C400002000100240DB
:10204000348900080448054900684968044AC1F316
:10205000C221515CC8407047C400002000100240FB
:10206000348900080E4A51680E4801F00C03042B15
:1020700011D0082B0FD10C48C1F38343C903C05CB6
:102080000AD55168084AC1F34041921E515C054A85
:102090005043B0FBF1F070470449484370470000DB
:1020A0000010024000127A001489000800093D0067
:1020B0002DE9F84F040070D02078C04DC00749D0FA
:1020C0006868C0F38100012807D06868C0F3810008
:1020D000022809D16868C00306D52868800339D56D
:1020E00060680028E7D035E06068B0F5803F0BD02D
:1020F00010B1B0F5A02F11D0286820F480302860EE
:10210000286820F4802002E0286840F480302860AD
:10211000606890B1FFF752FE06460AE0286840F476
:1021200080202860F0E700BFFFF748FE801B64288E
:1021300073D828688003F7D50CE0FFF73FFE06460A
:1021400005E000BFFFF73AFE801B6428F0D828683E
:102150008003F7D420789A4E80074FF001094FF0A2
:10216000000839D5686810F00C0F07D06868C0F314
:102170008100022809D16868C00306D42868800756
:1021800014D52069012808D110E02069B0B1C6F843
:102190000090FFF713FE074605E00AE1FFF70EFE89
:1021A000C01B0228C4D828688007F7D52868616951
:1021B00020F0F80040EAC10028600DE0C6F8008079
:1021C000FFF7FCFD074604E0FFF7F8FDC01B0228FF
:1021D00023D828688007F7D4207800072CD57948C1
:1021E000A169D9B1C0F80090FFF7E8FD074604E007
:1021F000FFF7E4FDC01B02280FD8686A8007F7D5F7
:1022000071484FF4FA510068B0FBF1F0009000BF44
:102210000098411E0091FAD20EE080E0C0F80080E4
:10222000FFF7CCFD074604E0FFF7C8FDC01B0228FE
:1022300075D8686A8007F7D42078400760D5E869C8
:102240000027C00008D4E86940F08050E861E869E0
:10225000012700F0805000905C480168C90513D444
:102260000168834641F480710160FFF7A7FD824653
:1022700006E000BFFFF7A2FDA0EB0A0064284ED8DD
:10228000DBF80000C005F5D5E06801280AD008B1E8
:10229000052813D0286A20F001002862286A20F05F
:1022A000040002E0286A40F001002862E06841F280
:1022B000883B98B1FFF782FD82460BE0286A40F028
:1022C00004002862EEE700BFFFF778FDA0EB0A01EB
:1022D00059455AD8286A8007F6D50CE0FFF76EFDFD
:1022E000824605E0FFF76AFDA0EB0A0159454CD88C
:1022F000286A8007F6D41FB1E86920F08050E861B1
:10230000E06988B36968C1F38101022944D00228D9
:10231000C6F8608004D0FFF751FD044638E034E091
:10232000FFF74CFD074604E0FFF748FDC01B0228FD
:102330002BD828688001F7D4206AB0F5803F05D1FA
:102340006868A16820F4003008436860D4E9080197
:102350000843696821F4741108436860C6F8609006
:10236000FFF72CFD044606E025E000BFFFF726FD41
:10237000001B022809D828688001F7D51BE000BFA0
:10238000FFF71CFD001B022802D90320BDE8F88FCF
:1023900028688001F4D40EE00128F7D06868226A2A
:1023A00000F48031914204D1616A00F470108842D7
:1023B00001D00120EAE70020E8E700000010024019
:1023C0000000424280044242C400002000700040ED
:1023D00010B5401EB0F1807F01D3012010BD4FF039
:1023E000E02460610F21601701F0BDFF0020A061B3
:1023F00007202061002010BD70B590F83C20012A14
:102400002CD0012480F83C40022280F83D20036853
:102410005A689D6822F070060A6832435A60104B71
:1024200002689A420ED00F4B9A420BD0B2F1804F05
:1024300008D00D4B9A4205D00C4B9A4202D00C4B5F
:102440009A4204D1496825F080031943916080F8CD
:102450003D40002180F83C10084670BD022070BD50
:10246000002C0140003401400004004000080040FE
:10247000000C00402DE9F0410D46040003D094F813
:102480003D0018B108E00120BDE8F081002084F88B
:102490003C00204600F040F8022084F83D0020680F
:1024A000816844F2070291438160211D206801F098
:1024B000D5FC226890689169166A2B68AF6903435E
:1024C00040F20330814341EA0721A868EF690843DD
:1024D0004FF6FC418843E96840EA07200143286938
:1024E0002F6A000140EA0730084369686D6926F0E9
:1024F000220646EA0515294393602268906154F844
:10250000460B0162012004F81F09E0752076E07691
:102510002077A0750020B7E700B585B000210091B5
:102520000191029103911A4B02681A48C0219A4204
:1025300013D1C26942F00402C261C26902F004020E
:102540000492826942F0080282618069009100F081
:10255000080004906946104815E0104B9A4214D1C7
:10256000826942F400528261826902F4005204924C
:10257000826942F0100282618069009100F01000CF
:10258000049069460648FFF713FB05B000BD000044
:102590000008004000100240000C014000340140DF
:1025A0000010014070B590F83E60044690F83F502E
:1025B00090F8423090F84320022021B104290ED037
:1025C000012E1BD114E0012E18D1012B16D184F855
:1025D0003E0084F8420001220021206820E0012D05
:1025E0000CD1012A0AD184F83F0084F8430014E09A
:1025F000012D03D1012B01D1012A01D0012070BD91
:1026000084F83E0084F83F0084F8420084F84300D8
:1026100001220021206801F06FFC012204212068C2
:1026200001F06AFC2068016841F0010101600020AE
:1026300070BD000010B586B000210091019102919B
:10264000039100681349884221D11348816941F000
:1026500004018161816901F004010491816941F003
:10266000080181618069022400F008000490C02004
:10267000CDE90004694609480394FFF799FA03205D
:10268000CDE90004694606480394FFF791FA06B0C5
:1026900010BD00000004004000100240000801408E
:1026A000000C014070B5044690F83C0000260D4631
:1026B00001280FD0012084F83C006AB1042A1DD003
:1026C000082A2FD00C2A3FD00126002084F83C0095
:1026D000304670BD022070BD206801F01BFC2068F0
:1026E000816941F0080181612068816921F004015C
:1026F0008161206881692A69114311E0206801F035
:1027000039FC2068816941F4006181612068816938
:1027100021F480618161206881692A6941EA02218E
:102720008161D2E7206801F05BFC2068C16941F05B
:102730000801C1612068C16921F00401C1612068FC
:10274000C1692A69114311E0206801F07DFC20680D
:10275000C16941F40061C1612068C16921F48061EF
:10276000C1612068C1692A6941EA0221C161ACE7FF
:1027700010B5040003D094F83D0010B107E001202B
:1027800010BD002084F83C00204600F01FF8022015
:1027900084F83D00211D206801F060FB012084F8D1
:1027A000460084F83E0084F83F0084F8400084F836
:1027B000410084F8420084F8430084F8440084F81F
:1027C000450084F83D00002010BD000008B50068F9
:1027D0000649884208D10648C16941F00201C16139
:1027E000C06900F00200009008BD00000004004035
:1027F0000010024010B50446022249B104290ED04F
:10280000082913D094F84100012816D0012010BDEA
:1028100094F83E000128F9D184F83E200FE094F8A6
:102820003F000128F2D184F83F2008E094F84000EE
:102830000128EBD184F8402001E084F841200122F6
:10284000206801F059FB13492068134A884201D0DF
:10285000904203D1436C43F40043436420688842B0
:102860000DD090420BD0B0F1804F08D00B49884278
:1028700005D00B49884202D00A49884204D18168B8
:1028800001F00701062903D0016841F00101016050
:10289000002010BD002C0140003401400004004025
:1028A00000080040000C00407047704770B50446B7
:1028B00020680C3050E8001F21F4907140E80012AD
:1028C000002AF5D12068143050E8001F21F00101E2
:1028D00040E80012002AF5D1206B012809D12068B8
:1028E0000C3050E8001F21F0100140E80012002ACF
:1028F000F5D1206840694FF0200241064FF00000FA
:1029000015D52168143151E8003F23F0400341E818
:102910000035002DF5D1E16B49B109484863E06B02
:10292000FFF79CF850B1E06B416B884706E0E0850B
:1029300084F8422020632046FFF7B7FF002070BDD7
:10294000A9400008FEF76ABFF8B5016804460868A8
:10295000CA684B6910F00F0F4FF0000559D003F013
:10296000010602F49077374365D0C10705D0D10541
:1029700003D5616C41F001016164410705D5D907B8
:1029800003D0616C41F002016164810705D5D9076C
:1029900003D0616C41F004016164010707D502F0C6
:1029A0002001314303D0616C41F008016164616C26
:1029B00000293AD0800604D5900602D5204601F0C1
:1029C000A5FB20684069616CC0F38010090700D442
:1029D00060B3204601F073FB20684069400621D5B2
:1029E0002068143050E8001F21F0400140E8001238
:1029F000002AF5D1E06BA8B16D494163E06BFFF7A8
:102A00002DF8002811D0E06B416B01B0BDE8F0401B
:102A1000084783060FD593060DD52046BDE8F8403C
:102A200001F074BB2046FFF78DFFF8BD2046FFF78D
:102A300089FF6564F8BD266B2023012E7CD1C60674
:102A40007AD5D60678D508684868009048694FF06E
:102A50000206400640D5E16B086840680004000C9F
:102A6000E8D0A28D8242E5D9E085886920282DD062
:102A700020680C3050E8001F21F4807140E80012FB
:102A8000002AF5D12068143050E8001F21F0010120
:102A900040E80012002AF5D12068143050E8001FE9
:102AA00021F0400140E80012002AF5D184F84230BC
:102AB000256320680C3050E8001F21F0100140E829
:102AC0000012002AF5D1E06BFEF7A4FF6663A08D2B
:102AD000E18D401A81B22AE0A08DE18D401A81B2C9
:102AE000E08D0028A6D00029A4D022680C3252E83C
:102AF000000F20F4907042E80007002FF5D1206805
:102B0000143050E8002F22F0010240E80027002F87
:102B1000F5D184F84230256320680C3050E8002F4E
:102B200022F0100240E80023002BF5D16663204616
:102B3000FFF7BAFEF8BDFFE705062BD5150629D528
:102B400094F841002128F5D1A068B0F5805F01D14B
:102B50002069B0B1206A411C216221680078486078
:102B6000E08C401E0004000CE084E3D12068C168C2
:102B700021F08001C1602068C16841F04001C1605E
:102B8000D8E7206A0088C0F308004860206A801CEB
:102B90002062E5E74006CDD55006CBD5CA68204671
:102BA00022F04002CA6084F8413000F0FDF8C1E72D
:102BB0009940000870B5040004D094F84100002545
:102BC00010B106E0012070BD84F84050204600F0AE
:102BD00023F8242084F841002068C16821F40051C2
:102BE000C160204601F0F4FA2068016921F49041A7
:102BF00001612068416921F02A0141612068C168B2
:102C000041F40051C1606564202084F8410084F8DB
:102C100042006563002070BD70B586B0002400944A
:102C200001940294039403682B482A4E0221032244
:102C30000515B34221D1836943F4804383618369DD
:102C400003F480430493836943F004038361806940
:102C5000224E00F0040004900802CDE90001039226
:102C600069463046FEF7A4FFCDE900546946304678
:102C70000294FEF79DFF06B070BD194EB342FAD123
:102C8000C36943F48023C361C36903F480230493BD
:102C9000836943F0080383618069CDE9005100F046
:102CA0000800CDE903200F4D69462846FEF780FF56
:102CB000E814CDE90004694628460294FEF778FF3F
:102CC000002211462720FFF7E5F82720FFF7D4F868
:102CD000D1E7000000380140001002400008014028
:102CE00000480040000C014090F84230202B01D0F9
:102CF0000220704721B11AB10023036301F0C4BA66
:102D000001207047FEF7A0BD2DE9F843044690F876
:102D10004100984616460D46202802D00220BDE804
:102D2000F88385B17EB100206064212084F84100E1
:102D3000FFF744F8A6848146E684A0682027B0F512
:102D4000805F02D003E00120E9E7206910B12E4640
:102D500000250EE000260CE08021204601F0AFFAAD
:102D6000A8B9C6B116F8010B21684860E08C401E76
:102D7000E084E08C4B464FF00002CDF80080002844
:102D8000EAD14FF04001204601F099FA40B184F8B1
:102D900041700320C3E735F8020BC0F30800E3E7F6
:102DA00084F841700020BAE77047FEE72DE9F04152
:102DB000082405464FF40048E602134F18E000BF10
:102DC000FEF7F7FF00F0A4F8280601D5012200E085
:102DD000002241463846FEF7ECFF6806050E00F07B
:102DE00097F8012231463846FEF7E3FF00F090F8ED
:102DF000641EE4B24FF0000231463846E0D2BDE82E
:102E0000F041FEF7D6BF0000000C014070B5012272
:102E1000144DD40321462846FEF7CBFF012291032F
:102E20002846FEF7C6FF00F073F821462846FEF755
:102E3000BBFF00280CD0002221462846FEF7B9FF30
:102E400000F066F821462846FEF7AEFF08B10020E4
:102E500070BD002221462846FEF7ABFF00F058F86F
:102E6000012070BD000C014070B5114D4FF480443D
:102E7000002221462846FEF79CFF00F049F8660034
:102E8000002231462846FEF794FF00F041F8012267
:102E900021462846FEF78DFF00F03AF80122314620
:102EA0002846FEF786FFBDE8704000F031B800000C
:102EB000000C014070B5154C4FF4804500222946A6
:102EC0002046FEF776FF00F023F80122D6033146B4
:102ED0002046FEF76EFF00F01BF80122294620462F
:102EE000FEF767FF00F014F831462046FEF75CFF5E
:102EF00000284FF000022946204603D0FEF759FF74
:102F0000002070BDFEF755FF012070BD000C014090
:102F100008B50A200090401E0090FCD108BD0000BA
:102F20002DE9F04F8DB00CA906A8CDE900010025D0
:102F30000BAB07AA04A902A801F03CFF18B10020BE
:102F40000DB0BDE8F08FBDF818006F4CC0057DD501
:102F5000079804F0ADFC6FF01D05294604F077FEDC
:102F60000746E060089804F0A3FC294604F06FFED1
:102F700080462061099804F09BFC294604F067FE16
:102F8000064660610A9804F093FC294604F05FFE4F
:102F90000546A0610121384604F059FE314604F08F
:102FA000B3FC06464FF040473946404604F0ACFCBF
:102FB000294604F0A9FC314604F014FB04F0E6FABB
:102FC00001F092FADFF844914FF0663842464B46E2
:102FD00004F002F803F07EFDE0616069012105461E
:102FE00004F035FE8246294604F08EFC0546206931
:102FF0003946074604F088FC394604F085FC29462A
:1030000004F04EFD4FF07E5104F0ECFA04F0BEFAED
:1030100005460E460121E06804F019FE394604F029
:1030200073FC07465046A16904F06EFC394604F073
:10303000D9FA04F0ABFA2A46334601F09DFC424629
:103040004B4603F0C9FF03F045FD00E041E020627C
:10305000A1690191084604F057FC616907460846DA
:10306000009104F051FC216906468B46584604F055
:103070004BFCE16805468A46504604F045FC29466B
:1030800004F0B0FA314604F00BFD394604F008FDB7
:1030900004F07CFA05460E465046019904F034FCD3
:1030A00007465846009904F02FFC394604F09AFA76
:1030B000012104F0CCFD04F069FA2A46334601F000
:1030C0005BFC42464B4603F087FF03F003FD606262
:1030D0000125BDF9180010F0700F08D0BDF80810D8
:1030E000E180BDF80A102181BDF80C106181000754
:1030F00008D5BDF810002080BDF812006080BDF832
:103100001400A08028461BE75800002066A64C400B
:1031100070B502F087FE08B1002070BD2FA0FDF74A
:10312000ABF8782003F078FB08B135A04EE03FA063
:10313000FDF7A2F8782002F0A7FD08B143A045E012
:103140004EA0FDF799F8322003F026FB08B154A0F9
:103150003CE05CA0FDF790F801F022FE08B163A00E
:1031600034E071A0FDF788F87C48044602F0B2FC18
:103170000546E01C02F0AEFC45EAC005A01D02F0C9
:10318000A9FC45EA801080B201F0C8FF08B174A024
:103190001CE07FA0FDF770F840F2731001F0D8FC3E
:1031A00008B185A012E090A0FDF766F8322001F08A
:1031B0001DFF08B195A009E09FA0FDF75DF803F0A1
:1031C000B9FB012003F00EFA18B1A4A0FDF754F8E2
:1031D000A2E7ADA0FDF750F8012070BD6D7075201D
:1031E000696E697469616C697A6174696F6E206374
:1031F0006F6D706C6574652E2E2E2E2E2E0A0000BB
:103200006D70755F7365745F73656E736F72206345
:103210006F6D65206163726F7373206572726F7278
:10322000202E2E2E2E2E2E0A000000006D70755FAF
:103230007365745F73656E736F7220636F6D706C0E
:10324000657465202E2E2E2E2E2E0A006D70755F51
:10325000636F6E6669677572655F6669666F206326
:103260006F6D65206163726F7373206572726F7228
:10327000202E2E2E2E2E2E0A000000006D70755F5F
:10328000636F6E6669677572655F6669666F2063F6
:103290006F6D706C657465202E2E2E2E2E2E0A00FA
:1032A0006D70755F7365745F73616D706C655F726F
:1032B000617465206572726F72202E2E2E2E2E2E56
:1032C0000A0000006D70755F7365745F73616D70E7
:1032D0006C655F7261746520636F6D706C65746599
:1032E000202E2E2E2E2E2E0A00000000646D705F00
:1032F0006C6F61645F6D6F74696F6E5F6472697625
:1033000065725F6669726D7761726520636F6D6566
:10331000206163726F7373206572726F72202E2E3C
:103320002E2E2E2E0A000000646D705F6C6F61649B
:103330005F6D6F74696F6E5F6472697665725F66E8
:1033400069726D7761726520636F6D706C6574650D
:10335000202E2E2E2E2E2E0A00000000800000208F
:10336000646D705F7365745F6F7269656E746174AC
:10337000696F6E20636F6D65206163726F73732078
:103380006572726F72202E2E2E2E2E2E0A000000D5
:10339000646D705F7365745F6F7269656E7461747C
:1033A000696F6E20636F6D706C657465202E2E2EB4
:1033B0002E2E2E0A00000000646D705F656E616243
:1033C0006C655F6665617475726520636F6D6520FD
:1033D0006163726F7373206572726F72202E2E2E6E
:1033E0002E2E2E0A00000000646D705F656E616213
:1033F0006C655F6665617475726520636F6D706C76
:10340000657465202E2E2E2E2E2E0A00646D705FA0
:103410007365745F6669666F5F7261746520636F60
:103420006D65206163726F7373206572726F7220B5
:103430002E2E2E2E2E2E0A00646D705F7365745F23
:103440006669666F5F7261746520636F6D706C652D
:103450007465202E2E2E2E2E2E0A00006D70755FA4
:103460007365745F646D705F737461746520636FFE
:103470006D65206163726F7373206572726F722065
:103480002E2E2E2E2E2E0A006D70755F7365745FC2
:10349000646D705F737461746520636F6D706C65CB
:1034A0007465202E2E2E2E2E2E0A00002DE9F041BE
:1034B00086B0002424480094019402940394816906
:1034C00041F010018161816901F01001049181696D
:1034D00041F020018161816901F02001049181693D
:1034E00041F004018161816901F004010491816965
:1034F00041F0080181618069144F00F0080044F236
:103500000C050490002229463846FEF752FCDFF8ED
:103510004080002238214046FEF74BFC00950226F1
:1035200001250396CDE9015469463846FEF740FB74
:103530003820CDE90005CDE9024669464046FEF750
:1035400037FB06B0BDE8F0810010024000100140DA
:10355000000C014010B58AB0002407941C21684675
:103560000894FCF7B5FF22482049C0E9001440F652
:103570000F61C0E9024104618461FFF7F9F808B105
:10358000FEF746FA079407A919480894FEF734FF96
:1035900008B1FEF73DFA6020CDE900040294002254
:1035A000694613480494FFF77DF808B1FEF730FA36
:1035B000042269460E48FFF775F808B1FEF728FAAD
:1035C000082269460A48FFF76DF808B1FEF720FAAD
:1035D0000C2269460648FFF765F808B1FEF718FAAD
:1035E0000348FFF727F80AB010BD000000040040B0
:1035F0004001002010B58CB024216846FCF768FF1C
:1036000000241648099414490A94C0E900144FF69E
:10361000FF71C0E90241046184610320CDE9000427
:103620000120CDE902040494CDE9054007946946E0
:103630000A480894FEF71EFF08B1FEF7E9F909945D
:1036400009A906480A94FEF7D7FE002801D0FEF724
:10365000DFF90CB010BD0000000800408801002018
:1036600010B58CB024216846FCF732FF00241648C0
:10367000099414490A94C0E900144FF6FF71C0E997
:1036800002410461446184610320CDE9000401200A
:10369000CDE902040494CDE90540079469460A483F
:1036A0000894FEF7E7FE08B1FEF7B2F9099409A9FC
:1036B00005480A94FEF7A0FE002801D0FEF7A8F9FD
:1036C0000CB010BD00340140D00100200C4810B5F2
:1036D0000A4901604FF4E1314160002181600C2210
:1036E000C160C0E904128161C161FFF763FA00287B
:1036F00003D0BDE81040FEF78BB910BD0038014083
:10370000180200200C4810B50A4901604FF4165108
:103710004160002181600C22C160C0E90412816116
:10372000C161FFF747FA002803D0BDE81040FEF75B
:103730006FB910BD004800406002002000F00F008B
:103740000A2801D23030704737307047FEE700005A
:10375000642800D964200549C9684A1C4243642092
:10376000B2FBF0F0884200D90846704740010020C3
:1037700010B500F063F8002000F05AF8002811D1CD
:10378000042000F055F800280CD1082000F050F873
:10379000002807D10C2000F04BF8002802D100F0DF
:1037A0004DF8002010BD642801DD642070476FF0E3
:1037B00063018842FADA08467047000070B50E4689
:1037C000FFF7F1FF0025194C002805DD80B2FFF757
:1037D000BFFF216848630CE009DAC0F1000080B245
:1037E000FFF7B6FF21684D632168886303E0206816
:1037F0004563206885633046FFF7D5FF002807DD65
:1038000080B2FFF7A5FF2168CD632168086470BD11
:1038100007DAC0F1000080B2FFF79AFF2168C863A1
:1038200001E02068C5632068056470BD4001002088
:1038300001460148FEF7DEBF400100200548002197
:1038400002685163026891630268D1630068016491
:10385000704700004001002010B502F05DF86420C0
:10386000FEF794F9FFF754FC20B105A0FCF704FD26
:10387000012010BD07A0FCF7FFFC002010BD0000D8
:1038800070697463682C726F6C6C2C7961770D0AA7
:10389000000000006D707520646D7020696E6974A1
:1038A000206661696C65640D0A0000002DE9FF4126
:1038B000FEF784FA11490A68821A052A1BD30860A8
:1038C000FFF72EFB002816D00D48006803F05EFEBF
:1038D00006460C480F46006803F058FE04460A48A6
:1038E0000D46006803F052FE8DE8F00002460B46DC
:1038F00006A0FCF7C1FCBDE8FF810000000000202D
:103900007C0000207400002078000020252E326604
:103910002C252E32662C252E32660D0A0000000062
:10392000FEE7000030B40021084B0A465FF00000BB
:1039300003EBC004401CC0B262548028F8D3491C79
:10394000C9B20829F2D330BC00F09AB8B8020020FE
:1039500010B57F2816D83F2914D80723A3EBD1032D
:1039600001F00701C1F107040121A140064CDBB2BF
:1039700004EBC000002AC25CC9B201D00A4300E0D7
:103980008A43C25410BD0000B802002010B53B4C61
:10399000002210212046FEF70CFA6420FEF7F6F80C
:1039A000012210212046FEF704FA0021AE2000F08B
:1039B00031F90021D52000F02DF90021502000F030
:1039C00029F90021A82000F025F900213F2000F06E
:1039D00021F90021D32000F01DF90021084600F054
:1039E00019F90021402000F015F900218D2000F088
:1039F00011F90021142000F00DF90021202000F021
:103A000009F90021022000F005F90021A12000F0B1
:103A100001F90021C02000F0FDF80021DA2000F0BB
:103A2000F9F80021122000F0F5F80021812000F0C3
:103A3000F1F80021EF2000F0EDF80021D92000F08E
:103A4000E9F80021F12000F0E5F80021DB2000F08A
:103A5000E1F80021302000F0DDF80021A42000F082
:103A6000D9F80021A62000F0D5F80021AF2000F001
:103A7000D1F8BDE81040FFF755BF0000000C014031
:103A800070B5114E002400BF04F1B000C0B2002197
:103A900000F0C0F80021084600F0BCF8002110201A
:103AA00000F0B8F85FF0000506EBC5000121005DED
:103AB00000F0B0F86D1CEDB2802DF5D3641CE4B2BB
:103AC000082CE1D370BD0000B80200202DE9FF4FA3
:103AD000203A1F460C46894602F0FF0A0025DDF811
:103AE00034B032E00C2F09D01A4901EB0A104FF024
:103AF0000008465D300607D55A4609E016490AEB2C
:103B00004A0001EB8000F2E7BBF1000F12D0002267
:103B100021460098FFF71CFF7006641C060EE4B2F5
:103B2000A4EB0900B84207D100984C46401CC0B233
:103B3000009008E00122EBE708F1010000F0FF0827
:103B4000B8F1080FD6D36D1CEDB2BD42CAD3BDE8A3
:103B5000FF8F0000B08D00083C8900082DE9FF4F61
:103B600081B00026DDF838A01D46934681463446D4
:103B70004FF001084FEA5A0727E0281B401EC1B248
:103B80000A2002F0CFFEBBFBF0F00A21B0FBF1F2FD
:103B900001FB120026B9691E8C4201DA48B10126E8
:103BA0003030C2B207FB0490C0B25346CDF800805B
:103BB00006E007FB0490C0B253462022CDF80080F7
:103BC0000299FFF783FF641CE4B2AC42D5D305B081
:103BD000BDE8F08FF8B516460D460446012714E0FF
:103BE0007A2C02D900241035EDB23A2D03D90024E5
:103BF0002546FFF797FE009732780C23294620468A
:103C0000FFF764FF0834E4B2761C30780028E7D16F
:103C1000F8BD00002DE9F041174E054609B101221B
:103C200000E0002208213046FEF7C3F8B046134FEB
:103C300000244FF48046002231463846FEF7B9F89A
:103C4000280601D5012200E0002220214046FEF78F
:103C5000B0F8012231463846FEF7ABF86806641C1E
:103C6000050EE4B2082CE6D34046BDE8F04101223F
:103C70000821FEF79EB80000000C01400010014032
:103C80007047704710B5064800F08CF804481C30A7
:103C900000F088F8FEF792F802490860486010BD0D
:103CA000C80000203C0000202DE9FE43124C206893
:103CB00000F032F88146606800F02EF804F11C052F
:103CC0008046286800F028F80746686800F024F865
:103CD0000646206900F020F80446286900F01CF828
:103CE0000096CDE901403B464246494603A0FCF719
:103CF000C3FABDE8FE830000C8000020256C642CD8
:103D0000256C642C256C642C256C642C256C642C2F
:103D1000256C640D0A0000006421002801DB3230AC
:103D200000E0323890FBF1F070470000642250430D
:103D3000034A10606420414302F11C000160704797
:103D4000C800002070B5FEF739F8144D0446286805
:103D5000201A0A2820D32C60FDF7CCFD014610481C
:103D600000F02BF80646FDF7CBFD01460C481C3051
:103D700000F023F8642290FBF2F001B296FBF2F01F
:103D800000B2FFF71BFD6868201A322804D36C606C
:103D9000BDE87040FFF788BF70BD00003C00002008
:103DA000C80000200021016041608160C1600161A4
:103DB0001421416102218161704741600268521AF9
:103DC0008260C1684369511A5943836903FB021138
:103DD0004FF47A7391FBF3F10369194442F21073C3
:103DE0000161994202DC5B42994200DA1946C0E95E
:103DF000032108467047FDF7E7BF30B58FB0282193
:103E00006846FCF765FB14210AA8FCF761FB012159
:103E10000804CDE900100024029402250491CDE9A4
:103E200007504FF4E01009906846FEF741F908B1D9
:103E300072B6FEE70F20CDE90A054FF48060CDE9A8
:103E40000C4002210AA80E94FEF756F8002801D073
:103E500072B6FEE70FB030BD70470000F0B50268E3
:103E6000204C214D214E224F224B4FF0804CA0423E
:103E700009D0984207D0604505D0A84203D0B0428F
:103E800001D0B84204D122F0700E4A6842EA0E0214
:103E9000A04209D0984207D0604505D0A84203D07F
:103EA000B04201D0B84203D122F44075CA682A4317
:103EB0004D6922F080022A4302608A68C2620A6861
:103EC0008262A04201D0984201D1096901630121B7
:103ED00041610169C90703D0016921F00101016154
:103EE000F0BD0000002C014000040040000800402C
:103EF000000C00400034014010B501F01F03012107
:103F0000046A99408C430462016A9A401143016239
:103F100010BD0000F0B5036A026A22F001020262DD
:103F200042688469124E24F073050C682C4323F018
:103F300002058B682B430D4DA84201D0B04205D13C
:103F400023F00807CB683B4323F00403A84201D0C9
:103F5000B04205D14D6922F4407215438A692A4363
:103F600042608461496841630362F0BD002C0140F6
:103F700000340140F0B5026A036A23F010030362C3
:103F8000436884690D6824F4E64444EA05248D6896
:103F900022F0200242EA05120F4D104EA84201D035
:103FA000B04206D1CF6822F0800242EA071222F026
:103FB0004002A84201D0B04207D14D6923F44063CA
:103FC00043EA85038D6943EA850343608461496858
:103FD00081630262F0BD0000002C0140003401400A
:103FE000F0B5026A036A23F4807303624368C4690C
:103FF00022F4007224F073050C68124E2C438D6875
:1040000042EA05220E4DA84201D0B04206D1CF6847
:1040100022F4006242EA072222F48062A84201D020
:10402000B04207D14D6923F4405343EA05138D692B
:1040300043EA05134360C4614968C1630262F0BD8D
:10404000002C01400034014030B5046A026A22F4B9
:10405000805202624268C3690D6823F4E64343EA72
:1040600005238D6824F4005444EA0534084DA84221
:1040700002D0084DA84204D14D6922F4804242EAA0
:1040800085124260C36149680164046230BD00006A
:10409000002C01400034014010B5406A0021C18568
:1040A000C184FEF74FFC10BD10B5406A0021C185E8
:1040B000202280F842200163FEF7F7FB10BD016863
:1040C0000C3151E8002F22F4907241E80023002BBC
:1040D000F5D10168143151E8002F22F0010241E8C6
:1040E0000023002BF5D1016B012909D101680C31A6
:1040F00051E8002F22F0100241E80023002BF5D1F7
:10410000202180F8421000210163704708B590F823
:104110004210222901D0022008BD82684FF480534A
:104120009A4201D1016921B1816A9A421BD04AB1F8
:104130000AE00268816A5268C2F308020A80816A52
:10414000891C08E0026972B10268526802F07F02BD
:104150000A70816A491C8162C18D491E0904090CDB
:10416000C18503D01BE002685268F1E70168CA68A4
:1041700022F02002CA600168CA6822F48072CA6014
:1041800001684A6922F001024A61202180F8421048
:1041900000214163026B012A03D0FEF7B3FD00202A
:1041A00008BD016301680C3151E8002F22F01002B4
:1041B00041E80023002BF5D101680A68D20602D538
:1041C0000A6849680091818DFEF76EFBE7E7000001
:1041D00070B5044600680169E26821F4405111435A
:1041E00001612169A0680843616908432168CA68C0
:1041F00041F20C639A430243CA6020684169A26994
:1042000021F44071114341611E492068884202D166
:10421000FDF718FF01E0FDF705FF00EBC00101EB22
:104220000012606864218000B2FBF0F3B3FBF1F38D
:104230006FF018067343B2FBF0F5B2FBF0F605EB36
:104240008305322303EB0515B5FBF1F5B6FBF1F65B
:1042500005F0F00505EB0615B2FBF0F6B2FBF0F049
:10426000B0FBF1F06FF01802504306EB800003EB57
:104270000010B0FBF1F0216800F00F0028448860C6
:1042800070BD00000038014081628285C285002136
:104290004164222180F84210016921B10168CA6895
:1042A00042F48072CA6001684A6942F001024A61C0
:1042B0000068C16841F02001C160002070472DE90D
:1042C000F843984617460D460446089E24E0701CA5
:1042D00022D0FDF773FDA0EB0800B0421AD8CEB192
:1042E0002068C168490717D5802D15D0402D13D0FF
:1042F0000168C94309070FD4016800254068009090
:104300002046FFF7DCFE0820606484F8405001205E
:10431000BDE8F8830320FBE72068006835EA000069
:1043200004D00020B842D2D00020F1E70120F9E704
:104330000148FEF709BB000060020020FEE74900CB
:1043400050EAC12018BF04204A0D18BF40F00100F8
:1043500040F2FF72B2EB515F08BF40F0020001284B
:1043600008BF052070470907090E002804DB00F18B
:10437000E02080F80014704700F00F0000F1E0200A
:1043800080F8141D70472DE9F0414F1E00EBC70166
:104390000446D1E9000115461E4637F006020DD04D
:1043A0002A46334602F018FE7F1E04EBC703D3E90A
:1043B000002302F0C1FB37F00602F1D1022F25D015
:1043C000042F13D0062F18BFBDE8F0812A463346CC
:1043D00002F002FED4E90A2302F0AEFB2A4633467D
:1043E00002F0FAFDD4E9082302F0A6FB2A46334680
:1043F00002F0F2FDD4E9062302F09EFB2A46334682
:1044000002F0EAFDD4E9042302F096FB2A46334683
:1044100002F0E2FDD4E9022302F08EFB2A46334685
:1044200002F0DAFDD4E90023BDE8F04102F084BBDC
:10443000012203F0DEBB02F07FBB002213461046D0
:10444000114602F035BC0000024A0020110703F0BB
:10445000D0BB000001FDFFFF30380A2801D2012047
:1044600070470020704770472DE9FE4F07460E4603
:104470000025684601F006F800246FF00F0AE846B0
:104480004FF0010957F8240056F82410401A00D5BF
:10449000404203F00DFA514603F0D9FB58F82410BE
:1044A00011F0FF4F0BD003F005F94FF07E5103F0F0
:1044B000F7FA0A4920F00040884205DC07E0084985
:1044C00008440849884202D309FA04F00543641CF1
:1044D000032CD7DB2846BDE8FE8F0000295C0F3E89
:1044E000666666C19A99D9002DE9F04D8D4F21F08D
:1044F000004A86B005460C46BA452ADBAAEB0700FF
:1045000028430AD08848824501DC1AD1CDB106B0D3
:104510002846BDE8F04DFFF78BBF844A844B284600
:1045200002F05AFD07460E46824A834B2846214632
:1045300002F052FD06B03A463346BDE8F04D02F0B7
:10454000FBBA0120FCF76BF806B0BDE8F04DFFF7B1
:1045500074BF7A48824542DABAF1795F0BDA2846AD
:10456000FFF7EDFE042808BFFFF76EFF284606B0F0
:104570002146BDE8F08D2A460B46104602F02CFD80
:10458000834602466E480E460B4606217844FFF7E6
:10459000FAFE5A46334602F01FFD804669488A46B5
:1045A0005A46334604217844FFF7EDFE5A46334617
:1045B00002F012FD00223B4602F0BEFA02460B4614
:1045C0004046514602F074FB2A46234602F004FDA1
:1045D00006B02A462346BDE8F04D02F0ADBA2846A3
:1045E00024F0004100223D463B4602F0F3FD4FF02F
:1045F000FF3203F0FEFA0646024653480F460B46CA
:1046000006217844FFF7BFFE32463B4602F0E4FC49
:10461000CDE900014D4832463B4604217844FFF77E
:10462000B2FE32463B4602F0D7FC00222B4602F097
:1046300083FA834602913046394602F00FFA8046EB
:1046400043480D46504517DCDDE900015A46029B00
:1046500002F02EFB42462B4602F0BEFC42462B46A1
:1046600002F06AFA012203F0C4FA304A304B02F039
:10467000A3FE304A304B4CE04FF0000A52460B4646
:10468000404602F059FACDE9031052462B46104637
:10469000194602F0A1FC32463B4602F09BFDDDE9E3
:1046A000033202F005FB06460F46DDE900015A46DB
:1046B000029B02F0FDFA8346009101223046394602
:1046C00003F097FA194A1A4B02F084FD06460F468A
:1046D00001224046294603F08CFA5A46009B02F01C
:1046E0007BFC32463B4602F067FE06460F4601223F
:1046F0005046294603F07DFA0E4DDFF858802A46D1
:10470000434602F067FD32463B4602F063FD2A460F
:10471000434602F05FFD002CD8BF81F0004106B097
:10472000BDE8F08D0000F03F0000F07F075C14331F
:1047300026A6913C182D4454FB21F93F0000E03F90
:10474000104E0000264E00009A4D0000B04D0000B3
:104750003333EF3FFB21E93F2DE9F84F04460D4687
:1047600021F0004000917349814211DC7249884276
:1047700001DC06D12CB120462946BDE8F84FFFF7F1
:1047800057BE6E48002DCCBF6D496E49BDE8F88F0D
:104790006D49814211DD6D498142D8BF4FF0FF362E
:1047A0006DDD20462946FFF7CAFD042808BFFFF744
:1047B0004BFE20462946BDE8F88F6549654F25F038
:1047C0000045814233DD6449814219DD00263246CD
:1047D0004FF080432046294602F0AEF980468A46D3
:1047E00001222046294603F004FA00223B4602F04B
:1047F000E3FD4246534602F05BFA04460D463EE0B6
:1048000001260022BA463B462046294602F094F98A
:1048100080460F46002253462046294602F0CCFD32
:1048200042463B4602F044FA04460D4627E04B4917
:1048300081421BDDDFF828A10226002253462046D4
:10484000294602F0C9FB00223B4602F075F980467A
:104850000F46002253462046294602F0ADFD42464F
:104860003B4602F025FA04460D4608E003262246A0
:104870002B4600203B4902F01BFA04460D46224617
:104880002B461046194602F0A7FB8B46824602468D
:104890000B4602F0A1FB07460246334888460B460A
:1048A00006217844FFF76FFD52465B4602F094FB09
:1048B00082462E488B463A46434605217844FFF708
:1048C00062FD3A46434602F087FB02460B46002E45
:1048D000504659460CDA02F02FF922462B4602F0D8
:1048E0007BFB01B022462B46BDE8F04F02F072BCC4
:1048F00002F022F922462B4602F06EFB1C4A7A4453
:1049000002EBC603D3E9002302F056FD22462B46F4
:1049100002F052FD174A7A4402EBC603D3E90023A2
:1049200002F058FC009A002AB8BF81F00041BDE8AF
:10493000F88F0000000010440000F07F182D445450
:10494000FB21F93FFB21F9BF0000DC3F0000203EC6
:104950000000F33F0000F03F0000E63F008003400E
:104960000000F83F0000F0BFB24B0000704B0000A9
:104970000E4B0000D64A00002DE9F04D9446CCF1D4
:10498000000423F000464CEA0404594F46EAD4746C
:104990009A46884621F00042BC4206D8454240EA89
:1049A000050442EAD474BC4204D9BDE8F04D624625
:1049B000FFF741BDAAF14055A5F17F6555EA0C040A
:1049C0000BD0022404EAAA744A4DDFF82CE144EA31
:1049D000D87452EA000B04D00CE0BDE8F04DFFF7AC
:1049E000BBBE002C14BF012CBDE8F08D022C30D0D2
:1049F000032C32D056EA0C0B0AD0BE4220D1BA4268
:104A000009D126F0804622F080423346114617E055
:104A100000291ADB25E0DFF8E4B0FB44002C04BFDA
:104A2000DBE90001BDE8F08D012C02BFDBE90001EC
:104A300081F00041BDE8F08D022C0AD0032C0CD08F
:104A4000BA4212D1B8F1000F0BDA2A482C49BDE85E
:104A5000F08D28462B49BDE8F08D28467146BDE80B
:104A6000F08D24482849BDE8F08D921B12153C2A90
:104A7000C4BF204F244E10DCBAF1000FBEBF12F1AC
:104A80003C0F00273E4608DB624602F011F921F098
:104A90000041FFF761FE07460E4694B1012C08BFA6
:104AA00086F000460DD0194A194B022C3846314683
:104AB00015D002F081FC2A46BDE8F04D114B02F002
:104AC0007BBC002213463846314602F049FA04BF47
:104AD0000220FBF7A4FD38463146BDE8F08D02F018
:104AE0006BFC2A46BDE8F04D064B02F073BB00009C
:104AF0000000F07F182D4454FB2109C06A4A0000D1
:104B0000FB21F9BFFB210940FB21F93F075C14336E
:104B100026A6A13C08B560B120208DF80000282011
:104B20008DF8010030208DF8020038208DF8030048
:104B300004E0A32204216846FBF7C2FC6A46042174
:104B400040F69E2001F0C4FE01F082FB08BD00008B
:104B50003EB5044602208DF80000CA208DF8010001
:104B6000E3208DF8020009208DF803006A46042135
:104B7000682001F0ADFEA3208DF80000610609D584
:104B8000C0218DF80110C8218DF80210C2218DF8C6
:104B9000031005E08DF801008DF802008DF8030088
:104BA00014F4C07F09D0C4218DF80410CC218DF8F5
:104BB0000510C6218DF8061005E08DF804008DF86B
:104BC00005008DF806008DF808008DF807008DF8B7
:104BD00009006A460A2140F6A72001F079FEA007E5
:104BE0004FF0D80503D020208DF8000001E08DF8AB
:104BF00000506A46012140F6B62001F069FEA00689
:104C000001D5012000E0002000F08EF814F4C07FF0
:104C10001ED0E0050AD5B2208DF800008B208DF85B
:104C20000100B6208DF802009B2009E0B0208DF82D
:104C3000000080208DF80100B4208DF80200902043
:104C40008DF803006A46042140F6A22001F040FEE0
:104C5000E1074FF40B6022D0F8218DF800106A466E
:104C6000012101F035FEFA21072000F047FB072063
:104C700000F012FB012000F02FFB642000F0D2FBBB
:104C80004FF4FA7000F0DEFBC821254800F0CCFAA2
:104C9000282000F0E1FA0A2000F0EEFA05E08DF895
:104CA00000506A46012101F013FEA00703D5D92068
:104CB0008DF8000001E08DF800506A46012140F2B5
:104CC0003D7001F005FE600701D5012000E00020E5
:104CD00000F048F8E00601D5012000E00020FFF7D1
:104CE00019FF104D44F00800688101F0B1FA00206E
:104CF000A873600601D50620A87314F4C07F02D003
:104D0000A87B801DA87314F0140F02D0A87B10306C
:104D1000A873A00702D0A87B001DA87300203EBD89
:104D200009E3CA02A80200200EB54FF4976310B140
:104D300006A107C901E008A207CA8DE807006A4674
:104D40000921184601F0C4FD0EBD0000B8AAB38DBC
:104D5000B4980D355D000000B8AAAAAAB088C3C5F2
:104D6000C700000008B560B1C0208DF80000C22067
:104D70008DF80100C4208DF80200C6208DF80300D4
:104D800004E08B2204216846FBF79AFB6A46042163
:104D900040F6982001F09CFD01F05AFA08BD000091
:104DA000C8234FF48062024940F6F63001F032B970
:104DB0001C7D00082DE9F04F89B01746DDE912523D
:104DC0000024534E884681462C80A246B07B69461B
:104DD00001F0CCF94FF0FF3B18B1584609B0BDE8DF
:104DE000F08F708910F0140F4CD0BDF800109DF8B2
:104DF000022049BA090441EA02239DF803100B433B
:104E00003B60BDF804109DF8062049BA090441EA48
:104E100002229DF807101B140A437A60BDF808109F
:104E20009DF80A4049BA090441EA04219DF80B4063
:104E300012142143B960BDF80C409DF80EC064BA4D
:104E4000240444EA0C2C9DF80F4009144CEA040C8D
:104E5000C7F80CC04FEA2C475B43494302FB0232C0
:104E600007FB071111441024A1F17061B1F1007F1B
:104E700004D901F0EDF9A5F800A0AEE7298841F4C6
:104E8000807129804206694611D50A19A41D13882C
:104E90005BBAA8F8003053885BBAA8F80230928851
:104EA00052BAA8F804202A8842F008022A8010F496
:104EB000C07F11D00A19A41D13885BBAA9F800306D
:104EC00053885BBAA9F80230928852BAA9F8042034
:104ED0002A8842F070022A80800716D00C44E078BD
:104EE00000F0C00500F03F016078C00706D0C80898
:104EF00001F007013268491C02B190476078000751
:104F000003D5716809B1A8098847002066E7000049
:104F1000A80200202DE9FF41044603A800F0FCFE92
:104F2000BDF80C00410CC3032F48008900F00302B8
:104F300054F82250420700D56D42C0F3C1028606E4
:104F400054F8222000D55242C0F38116C00554F80F
:104F5000264000D56442A5FB0367E81700FB0370F9
:104F600005FB0100850045EA9670A2FB0367D51793
:104F700005FB037502FB0152950045EA9672A4FBFE
:104F80000367E51705FB037304FB01318B0043EA5C
:104F90009671030E8DF80030030C8DF80130030A72
:104FA0008DF802308DF80300100E8DF80400100CFF
:104FB0008DF80500100A8DF80600080E8DF808001F
:104FC000080C8DF80900080A8DF80A008DF80720F2
:104FD0008DF80B106A460C214FF4257001F078FC17
:104FE00004B0BDE8F0810000A802002030B50446FE
:104FF00013A285B007CA8DE807004FF0FF35C82C13
:1050000016D8C820B0FBF4F1491E080A8DF80C0030
:105010008DF80D1003AA022140F2162001F058FC71
:1050200030B96A460C2140F6C12001F051FC10B1A4
:10503000284605B030BD054884810020F9E700000E
:10504000FEF2ABC4AAF1DFDFBBAFDFDFA8020020B6
:10505000F8B53049098901F0030250F822404A07A7
:1050600000D56442C1F3C1028B0650F8222000D55E
:105070005242C1F3811350F82330C80500D55B427A
:10508000254984FB0140850045EA947082FB01427A
:10509000A40F44EA820483FB0121950F45EA8105B0
:1050A000010E8DF80010010C8DF80110010A8DF829
:1050B00002108DF803006A4604214FF4747001F069
:1050C00007FC4FF0FF3688B9200E8DF80000200C49
:1050D0008DF80100200A8DF802008DF803406A4621
:1050E00004214FF4757001F0F3FB08B13046F8BDB0
:1050F000280E8DF80000280C8DF80100280A8DF884
:1051000002008DF803506A4604214FF4767001F0D6
:10511000DFFBF8BDA802002009E3CA022DE9FF4128
:1051200004463CA004F00303006802903AA0006823
:1051300003903AA006683AA0056802A8C15C8DF801
:105140000010C4F3C101425C8DF80120C4F3811248
:10515000805C8DF8020003A8C35C8DF80430415CCC
:105160008DF80510805C8DF806006A46032140F238
:10517000264001F0ADFB4FF0FF37E0BB01AA032151
:1051800040F22A4001F0A4FBA8BBCDE9006560070E
:105190000BD59DF8000040F001008DF800009DF84F
:1051A000040040F001008DF80400A0060BD59DF826
:1051B000010040F001008DF801009DF8050040F06D
:1051C00001008DF80500E0050BD59DF8020040F0C8
:1051D00001008DF802009DF8060040F001008DF8F6
:1051E00006006A4603214FF4886001F071FB10B994
:1051F00001AA032100E004E040F2314001F068FB25
:1052000018B1384604B0BDE8F0810648048100209A
:10521000F8E700004CCD6C000CC92C003656760027
:1052200026466600A80200204FF47A7290FBF2F046
:1052300008B54843010E8DF80010010C8DF80110DF
:10524000010A8DF802108DF803006A4604214FF41C
:10525000AE7001F03DFB08BD0521B0FBF1F008B5D3
:10526000010A8DF800108DF801006A4602214FF402
:10527000AD7001F02DFB08BD0521B0FBF1F008B5C4
:10528000010A8DF800108DF801006A4602214FF4E2
:10529000AC7001F01DFB08BD08B500218DF80010B1
:1052A000C10702D030218DF80010810705D59DF887
:1052B000001041F00C018DF80010400705D59DF855
:1052C000000040F003008DF800006A4601214FF411
:1052D000A47001F0FDFA08BD08B560B1042800D93A
:1052E0000420401E8DF800006A46012140F24F1054
:1052F00001F0EEFA08BD0120F3E700002DE9FC41C2
:10530000054640074FF0FF367CD0B1F5C86F79D81D
:10531000084602F0E5FA3E4902F0CCF9074601A83A
:1053200000F0DCFC9DF80400022806D004280DD013
:1053300008282ED0102865D134E00E21384602F01E
:1053400086FC02F095FA84B2324907E00D21384616
:1053500002F07DFC02F08CFA2F4984B2384602F04C
:10536000D3FA02F085FA210A8DF8001080B28DF888
:105370000140010A8DF802108DF80300E8076C4621
:1053800020D0224602214FF4EA7001F0A1FAC8BBF6
:1053900011E00C21384602F05AFC02F069FA84B29E
:1053A0001E49DBE70B21384602F051FC02F060FA9F
:1053B00084B21B49D2E7A21C02214FF4927001F083
:1053C00087FAF8B9A8070DD56A4602214FF4EC70A8
:1053D00001F07EFAB0B9A21C02214FF4947001F0E2
:1053E00077FA78B9680710D56A4602214FF4EE7053
:1053F00001F06EFA30B9A21C02214FF4967001F050
:1054000067FA10B13046BDE8FC810020FBE70000E0
:1054100000004843000040460000C04500004045F1
:105420000000C0440521B0FBF1F008B5010A8DF879
:1054300000108DF801006A4602214FF4EF7001F070
:1054400047FA08BD0521B0FBF1F008B5010A8DF857
:1054500000108DF801006A4602214FF4ED7001F052
:1054600037FA08BD38B504468DF800004FF0FF3319
:10547000012269460248FDF747FC204638BD00007E
:10548000180200202DE9FE430646264801AB0422FF
:1054900040680D21007800F00BFB10B10720BDE83B
:1054A000FE839DF804101C2000EAD1029DF807102D
:1054B000DFF87490C1F301131A438DF800209DF8B2
:1054C0000520C1F3810300EAD2021A438DF80120BE
:1054D0009DF8062001F0030100EAD20008430024F1
:1054E000124F8DF80200A0466D46285D10B146F8B7
:1054F00024900AE046F824800DE000BF56F824000E
:10550000394602F001FA46F82400285D401E10F0EA
:10551000FF002855F2D1641CE4B2032CE5D300202F
:10552000BDE700008C0000207B14AE3E1D5A843F76
:105530002DE9FE4F05460120C14E8DF800004FF0C9
:1055400000088DF8018030680C461746817C706831
:105550006B460222007800F0B4FA4FF0FF3A0028C0
:105560007AD1C820FCF712FB8DF8008030686B46BA
:105570000122C17B7068007800F0A3FA0028EFD107
:1055800030686B46012241797068007800F099FA22
:105590000028E5D130686B460122817C7068007874
:1055A00000F08FFA0028DBD130686B460122C17D04
:1055B0007068007800F085FA0028D1D130686B4619
:1055C000012201797068007800F07BFA0028C7D1C9
:1055D0004FF00C098DF8009030686B46012201797C
:1055E0007068007800F06DFA002835D10F20FCF7C4
:1055F000CDFAB06A6B460122407A8DF8000030681F
:1056000081787068007800F05CFA002824D1B06AD4
:105610006B460122007A8DF800003068417870688E
:10562000007800F04EFA002873D1B06A807A0FB18A
:1056300040F0E0008DF8000030686B46012281796F
:105640007068007800F03DFA002862D12FB1B06A8E
:10565000C07A40F0E00001E04AE018208DF8000038
:1056600030686B460122C1797068007800F029FA31
:10567000F0BB17B1C820FCF789FA40208DF8000074
:1056800030686B46012201797068007800F019FAE1
:1056900070BB78208DF8000030686B46012241799C
:1056A0007068007800F00DFA10BB3220FCF76EFA3B
:1056B0008DF80080306847466B464179706801225A
:1056C000007800F0FEF998B931687068B046897AC0
:1056D00000786B46022200F0EBF948B9BDF80000F3
:1056E000AF6040BAB0FBF9F06F60C6B22F6000E067
:1056F0000FE0A76067602760002739E0D8F8001046
:10570000D8F804006B46C97A00780C2200F0D0F972
:1057100010B15046BDE8FE8FBDF80000236840BAC6
:1057200002B2BDF80200BDF804101A44226040BA6B
:10573000626800B21044606049BAA06809B20844C7
:10574000A060BDF806002B6840BA01B2BDF80800A1
:10575000BDF80A201944296040BA696800B20844BB
:10576000686052BAA86812B210447F1CFFB2A860E9
:10577000B742C3D328688322C117090441EA104104
:1057800000040023FAF753FD32460023FAF74FFDD9
:10579000286068688322C117090441EA10410004A7
:1057A0000023FAF744FD32460023FAF740FD686013
:1057B000A8688322C117090441EA104100040023AC
:1057C000FAF735FD32460023FAF731FDA86020686C
:1057D0004FF40065C117090441EA104100042A464C
:1057E0000023FAF724FD32460023FAF720FD20605B
:1057F00060682A46C117090441EA104100040023E9
:10580000FAF715FD32460023FAF711FD6060A06833
:105810002A46C117090441EA104100040023FAF79F
:1058200006FD32460023FAF702FDA060002802DDE3
:10583000A0F5803001E000F58030A060002069E72D
:105840008C0000202DE9F84F81462E48884600251F
:1058500040686B46032200780D2100F029F910B151
:105860000720BDE8F88F9DF80000002400F01F001D
:105870008DF800009DF801006FF00F0B00F01F0085
:105880008DF801009DF802006E4600F01F008DF8B3
:1058900002004FF0010A00BF59F8241058F8240004
:1058A000081A00D5404202F003F8594602F0CFF939
:1058B0000746305DC0B1144802E0144902F024F8F4
:1058C000315D491E11F0FF013155F6D101463846D0
:1058D00001F0F0FE4FF07E5102F0E2F80C4920F0AA
:1058E0000040884205DC07E00A483844B0F1D97F1F
:1058F00002D90AFA04F00543641C032CCCDB2846C9
:10590000AFE700008C0000200000C84154E3853F51
:10591000295C0F3E0000E0BE1FB54FF4404001215E
:10592000009003911120CDE90101084C6946204601
:10593000FCF73EF9012291032046FCF73AFA0122D6
:10594000D1032046FCF735FA1FBD0000000C0140D2
:105950002DE9F047994616460D460446FDF756FADE
:1059600000281ED06006000EFDF720FAFDF7A2FA0F
:10597000A0B12846FDF71AFAFDF79CFAFDF746FAA2
:10598000012000EB4400C0B2FDF710FAFDF792FAD7
:105990004FF4004A304D4FF4804850E0FDF764FA70
:1059A0000020BDE8F0870024012251462846FCF77C
:1059B00000FA07276006040E002241462846FCF73D
:1059C000F8F9FDF7A5FA012241462846FCF7F1F95E
:1059D000FDF79EFA51462846FCF7E6F908B144F077
:1059E00001047F1EFFB2E5D2002247464146284609
:1059F000FCF7DFF989F80040012E4FF0000239462C
:105A0000284622D0FCF7D5F9FDF782FA002251464C
:105A10002846FCF7CEF9FDF77BFA012239462846E5
:105A2000FCF7C7F9FDF774FA002239462846FCF75F
:105A3000C0F9FDF76DFA761E09F10109F6B2002EE4
:105A4000B1D1FDF711FA0120ABE7FCF7B2F9FDF790
:105A50005FFA0122DBE70000000C01402DE9F04174
:105A60001E4615460F460446FDF7D0F9002819D00A
:105A70006006000EFDF79AF9FDF71CFAA0B1384652
:105A8000FDF794F9FDF716FA002406E0305DFDF706
:105A90008DF9FDF70FFA38B1641CAC42F6DBFDF767
:105AA000E3F90120BDE8F081FDF7DEF90020F9E718
:105AB00010B5FFF74DFF08B1002010BD4FF0FF30CB
:105AC00010BD10B5FFF7CAFF08B1002010BD4FF0A0
:105AD000FF3010BD90F90010002902DD4FF00000EA
