:020000040800F2
:10000000100C0020D5010008751A00080D17000813
:100010006919000831070008672300080000000084
:10002000000000000000000000000000D71D0008D4
:100030003307000800000000D51D00084B1F000812
:10004000EF010008EF010008EF010008EF010008D0
:10005000EF010008EF010008EF010008EF010008C0
:10006000EF010008EF010008EF010008EF010008B0
:10007000EF010008EF010008EF010008EF010008A0
:10008000EF010008EF010008EF010008EF01000890
:10009000EF010008EF010008EF010008EF01000880
:1000A000EF010008EF010008EF010008EF01000870
:1000B000EF010008EF010008EF010008EF01000860
:1000C000EF010008EF010008EF010008EF01000850
:1000D000EF010008EF010008EF010008EF01000840
:1000E000EF010008EF010008EF010008EF01000830
:1000F000EF010008EF010008EF010008EF01000820
:10010000EF010008EF010008EF010008EF0100080F
:10011000EF010008EF010008EF010008EF010008FF
:10012000EF010008EF010008EF010008EF010008EF
:1001300000F002F800F03FF80AA090E8000C8244BA
:100140008344AAF10107DA4501D100F034F8AFF297
:10015000090EBAE80F0013F0010F18BFFB1A43F0A5
:1001600001031847782D0000982D0000103A24BF95
:1001700078C878C1FAD8520724BF30C830C144BF0C
:1001800004680C607047000000230024002500264E
:10019000103A28BF78C1FBD8520728BF30C148BFEA
:1001A0000B607047642900F06780002070471FB51E
:1001B0001FBD10B510BD00F08DFA1146FFF7F7FF17
:1001C00002F0FAF800F0ABFA03B4FFF7F2FF03BC59
:1001D00002F0E1F80948804709480047FEE7FEE7DA
:1001E000FEE7FEE7FEE7FEE7FEE7FEE7FEE7FEE7E7
:1001F00004480549054A064B70470000AD1F00083A
:100200003101000810060020100C0020100800200A
:1002100010080020704710B54C1084EA530404D530
:100220004042C1F1000138BF491E1B4204D5524271
:10023000C3F1000338BF5B1E00F049F914F0804F92
:1002400004D04042C1F1000138BF491E14F0004FF4
:1002500004D05242C3F1000338BF5B1E10BD000042
:100260000FB4044910B503AA029800F001FA10BCBB
:100270005DF814FB400000202DE9F0410646002403
:1002800010687529314616A510D0AFF300800028FC
:1002900002DA404213A507E031688A0701D512A5AA
:1002A00002E0490704D511A5012401E0AFF3008065
:1002B00000210A2206F1240709E0B0FBF2FCB0FBA2
:1002C000F2F302FB1C00303078541846491C002819
:1002D000F3D123462A463046BDE8F04100F06EB91E
:1002E000000000002D0000002B0000002000000096
:1002F0002DE9F05F894604464FF0000ADFF874B13B
:10030000FB44C0F820A02046E1688847002874D04C
:10031000252806D0D4E901219047206A401C20629C
:10032000F1E700265F462046E16888472028054619
:1003300007DB312D05D2781910F8200C08B10643DF
:10034000F1E7B00701D526F00406C4F81CA0002789
:10035000C4F818A02A2D09D0284602F015F838B3A1
:1003600004EB8708303DC8F8185019E059F8041B11
:10037000204604EB87029161E1688847012F05461A
:1003800018D1E069002820DA26F020061DE0D8F810
:10039000180000EB800005EB40003038C8F818006A
:1003A0002046E1688847054601F0EEFF0028EED1BF
:1003B000012F0AD02E2D08D12046E16888477F1CE6
:1003C0000546022F46F02006C4DBA069002803DAA8
:1003D000404246F00106A061F00701D026F0100669
:1003E0006C2D0BD0682D09D04C2D39D06A2D35D00D
:1003F000742D35D07A2D33D016E038E0E1682F46E1
:1004000020468847B842054609D16C2F26D04FF4C4
:100410008060E168064320468847054604E06C2F6B
:100420001AD04FF4807006430DB3A5F1410019288E
:1004300002D8203546F400664A4629462046266002
:100440004E46FFF7AFFE80B101280BD0F61D26F017
:10045000070000F1080956E74020E4E78020D8E7CC
:100460000020D6E706F104094DE7284652E7206A46
:10047000BDE8F09FC62B00004FF0000200B5134608
:1004800094469646203922BFA0E80C50A0E80C50B4
:10049000B1F12001BFF4F7AF090728BFA0E80C5065
:1004A00048BF0CC05DF804EB890028BF40F8042B5E
:1004B00008BF704748BF20F8022B11F0804F18BFCB
:1004C00000F8012B7047704770477047704753EA38
:1004D000020C00F069802DE9F04B4FF00006002B74
:1004E0001FBFB3FA83F503FA05F424FA05F65E405C
:1004F00012BF1643B2FA82F502FA05F4C5F12005DF
:100500001EBF22FA05FC44EA0C04203556EA044CCE
:100510004FEA144418BF641C4FF000084FF0000964
:10052000904271EB030C39D3002919BFB1FA81F75E
:1005300001FA07F6B0FA80F700FA07F6C7F12007CC
:100540001EBF20FA07FC46EA0C062037B6FBF4FC77
:10055000A7EB0507103F07F01F0BCBF120060CFAA5
:100560000BFB2CFA06F644BFB3460026202FA4BF8F
:100570005E464FF0000B5BEA060C08BF4FF0010B24
:1005800019EB0B09ABFB027C48EB0608C01B06FB12
:1005900002CC0BFB03CC71EB0C01C1E70B4602460E
:1005A00041464846BDE8F08B13B54FF000004FF0D0
:1005B0000001AFF30080BDE81C4070472DE9F04713
:1005C0000D4699469246044600F1240801688806C3
:1005D00004D5E06921F01001216000E00120A8426B
:1005E00001DD471B00E00027A1697A1902EB090031
:1005F000081AA0612078C00602D42046AFF300801C
:10060000002608E0D4E901211AF806009047206A84
:10061000401C761C20624E45F4DB2078C0060AD5CB
:100620002046AFF3008006E0D4E901213020904756
:10063000206A401C2062381EA7F10107F4DC07E0A5
:10064000D4E9012118F805009047206A401C206277
:10065000281EA5F10105F3DC2046AFF300802078C9
:10066000000602D50220BDE8F0870120FBE700006C
:10067000074B70B50D467B4400F011F80446284640
:1006800000F020F810B14FF0FF3070BD204670BD73
:100690001F1D000001694A1C02610878704700B5FF
:1006A0008FB0CDE901310021059105497944CDE9AB
:1006B000031011466846FFF71BFE0FB000BD000097
:1006C000E5FFFFFF007B00F08000704700487047A7
:1006D000AC0500207546FFF7F9FFAE4605006946F8
:1006E000534620F00700854618B020B5FFF780FD7F
:1006F000BDE820404FF000064FF000074FF0000823
:100700004FF0000B21F00701AC46ACE8C009ACE8A3
:10071000C009ACE8C009ACE8C0098D46704710B507
:100720000446AFF300802046BDE81040FFF74CBD03
:10073000FEE770472DE9F0410E46074600211446BA
:1007400008461D46091BA84102DB0020BDE8F081D8
:10075000002E4FF002024FF000032046294604DB32
:10076000FFF759FDC019714104E0FFF754FD381A35
:1007700066EB010122462B46FFF74DFDE6E7000040
:100780000148C06870470000080000200148C068A8
:10079000704700002000002010B5054800F027F841
:1007A000044800F024F8BDE8104000F005B800004F
:1007B000D40000201C01002010B5074800F00EF8FE
:1007C0000548183000F00AF800F07EF902490839AF
:1007D0000860486010BD000008000020016809683A
:1007E000496A818000218160C1600161704710B554
:1007F0003C2100F04FFD002803D0BDE8104000F080
:100800004DB810BD70B500F05FF90D4D0446286875
:10081000261AB6F57A7F03D9BDE87040FFF7CCBF42
:100820000A2E0BD30648314608302C6000F00AF837
:1008300003483146203000F005F86C6070BD0000C0
:10084000000000202DE9F041074600680A460068D4
:10085000406AB988B880411A387D0CB208B160424C
:1008600004B2B8684EF660232044B8600948A2FB81
:10087000032384FB000115461E46FFF75BFFF8606B
:1008800005482A4684FB00013346FFF753FF3861D1
:10089000BDE8F081B06C3C01808D5B0072B6FEE774
:1008A00070B5044600F010F90546601C02D00448FB
:1008B0000078044400F008F9401BA042FAD370BD50
:1008C000440000202DE9F84FDFF8C8910024A9F179
:1008D000040B23460F2709F1040AABF1040ED1E003
:1008E0000125A54006EA0502AA4276D1DFF8A8C193
:1008F0004E68A6EB0C0866452BD00DDC032E34D0D9
:1009000005DC36B3012E19D0022E2FD11BE0112E9B
:1009100016D0122E2AD119E0B8F5881F19D006DC9E
:10092000B8F5803F15D0B8F5801F1FD111E0B8F59C
:10093000001F0ED0B8F5041F18D10AE0CB6815E0EF
:10094000CB681B1D12E0CB6808330FE0CB680C337B
:100950000CE08B682BB1012B4FF0080303D04561ED
:1009600004E0042302E0056100E00023FF2A01D82F
:10097000064601E000F104064FEA840501D9A5F11D
:100980002005D6F8008007FA05FC28EA0C0803FACF
:1009900005F548EA0508C6F800804D68ED0070D5F9
:1009A0003E4DAE6946F00106AE61AD6924F0030626
:1009B00005F0010500953A4D06EB050CDCF80850F2
:1009C000A607360F07FA06F825EA0805DFF8D480EF
:1009D000404503D14FF0000825E052E0DFF8C88021
:1009E000404502D14FF001081DE0DFF8C0804045CE
:1009F00002D14FF0020816E0DFF8B480404502D182
:100A00004FF003080FE0DFF8AC80404502D14FF013
:100A1000040808E0DFF8A080404502D14FF0050847
:100A200001E04FF0060808FA06F848EA0508CCF895
:100A300008804D68D9F80060ED024D4601D5164397
:100A400000E096432E604D68DAF80060AD0255462E
:100A500001D5164300E096432E604D68DBF8006038
:100A6000AD035D4601D5164300E096432E604D6808
:100A7000DEF80060ED03754601D5164300E09643AD
:100A80002E60641C0A681646E2407FF429AFBDE878
:100A9000F88F00000804014000001110001002400F
:100AA0000000014000080140000C0140001001401E
:100AB0000014014000180140001C01400AB101610E
:100AC00070470904FBE70000014880687047000098
:100AD0004400002002488168027811448160704718
:100AE00044000020074810B5016841F01001016082
:100AF000032000F067F80F2000F006F800F024F85B
:100B0000002010BD0020024070B50D4D04464FF48A
:100B10007A712878B1FBF0F00A490968B1FBF0F06E
:100B200000F0CEFA48B9102C07D200222146501E00
:100B300000F028F800206C6070BD012070BD00003E
:100B400044000020500000200C4808B5816941F0A5
:100B500001018161816901F001010091C16941F0E8
:100B60008051C161C06900F0805000900448416824
:100B700021F0E06141F00071416008BD00100240C9
:100B800000000140F0B40E4B1B680C46C3F3022377
:100B9000C3F10705042D00D90425191D072901D229
:100BA000002300E0DB1E012606FA05F1491E214064
:100BB00099409E40761E16403143F0BC01F0D4BBF4
:100BC0000CED00E0064900F0070208684FF6FF034D
:100BD000184040EA0220034A1043086070470000B2
:100BE0000CED00E00000FA052DE9F0470F46050086
:100BF00061D0434E306800F00700B84209D2306837
:100C000020F0070038433060306800F00700B84239
:100C100051D128683B4C810712D5400703D5606845
:100C200040F4E06060602878000703D5606840F415
:100C3000605060606068A96820F0F0000843606060
:100C40002878C00728D06868012810D021680228B9
:100C500010D0890700292EDA616821F003010143D1
:100C60006160FFF731FF804641F288390DE021686D
:100C70008903EFE78901EDE7FFF726FFA0EB080105
:100C8000494502D90320BDE8F0876068696800F033
:100C90000C00B0EB810FEFD1306800F00700B842D4
:100CA0000BD9306820F0070038433060306800F01E
:100CB0000700B84201D00120E5E72878400705D5B4
:100CC0006068E96820F4E060084360602878000705
:100CD00006D56068296920F4605040EAC100606070
:100CE00000F038F86168084AC1F30311515CC8404C
:100CF0000649086006480068FFF706FF0020C2E7C3
:100D000000200240001002404E2400085000002045
:100D1000480000200448054900684968044AC1F3B6
:100D20000221515CC8407047500000200010024072
:100D30005E2400080448054900684968044AC1F374
:100D4000C221515CC8407047500000200010024092
:100D50005E2400080E4A51680E4801F00C03042B73
:100D600011D0082B0FD10C48C1F38343C903C05CD9
:100D70000AD55168084AC1F34041921E515C054AA8
:100D80005043B0FBF1F070470449484370470000FE
:100D90000010024000127A003E24000800093D00C5
:100DA0002DE9F84F040070D02078C04DC00749D01D
:100DB0006868C0F38100012807D06868C0F381002B
:100DC000022809D16868C00306D52868800339D590
:100DD00060680028E7D035E06068B0F5803F0BD050
:100DE00010B1B0F5A02F11D0286820F48030286011
:100DF000286820F4802002E0286840F480302860D1
:100E0000606890B1FFF760FE06460AE0286840F48B
:100E100080202860F0E700BFFFF756FE801B6428A3
:100E200073D828688003F7D50CE0FFF74DFE06461F
:100E300005E000BFFFF748FE801B6428F0D8286853
:100E40008003F7D420789A4E80074FF001094FF0C5
:100E5000000839D5686810F00C0F07D06868C0F337
:100E60008100022809D16868C00306D42868800779
:100E700014D52069012808D110E02069B0B1C6F866
:100E80000090FFF721FE074605E00AE1FFF71CFE90
:100E9000C01B0228C4D828688007F7D52868616974
:100EA00020F0F80040EAC10028600DE0C6F800809C
:100EB000FFF70AFE074604E0FFF706FEC01B022804
:100EC00023D828688007F7D4207800072CD57948E4
:100ED000A169D9B1C0F80090FFF7F6FD074604E01C
:100EE000FFF7F2FDC01B02280FD8686A8007F7D50C
:100EF00071484FF4FA510068B0FBF1F0009000BF68
:100F00000098411E0091FAD20EE080E0C0F8008007
:100F1000FFF7DAFD074604E0FFF7D6FDC01B022805
:100F200075D8686A8007F7D42078400760D5E869EB
:100F30000027C00008D4E86940F08050E861E86903
:100F4000012700F0805000905C480168C90513D467
:100F50000168834641F480710160FFF7B5FD824668
:100F600006E000BFFFF7B0FDA0EB0A0064284ED8F2
:100F7000DBF80000C005F5D5E06801280AD008B10B
:100F8000052813D0286A20F001002862286A20F082
:100F9000040002E0286A40F001002862E06841F2A3
:100FA000883B98B1FFF790FD82460BE0286A40F03D
:100FB00004002862EEE700BFFFF786FDA0EB0A0100
:100FC00059455AD8286A8007F6D50CE0FFF77CFD12
:100FD000824605E0FFF778FDA0EB0A0159454CD8A1
:100FE000286A8007F6D41FB1E86920F08050E861D4
:100FF000E06988B36968C1F38101022944D00228FD
:10100000C6F8608004D0FFF75FFD044638E034E0A6
:10101000FFF75AFD074604E0FFF756FDC01B022804
:101020002BD828688001F7D4206AB0F5803F05D11D
:101030006868A16820F4003008436860D4E90801BA
:101040000843696821F4741108436860C6F8609029
:10105000FFF73AFD044606E025E000BFFFF734FD48
:10106000001B022809D828688001F7D51BE000BFC3
:10107000FFF72AFD001B022802D90320BDE8F88FE4
:1010800028688001F4D40EE00128F7D06868226A4D
:1010900000F48031914204D1616A00F470108842FA
:1010A00001D00120EAE70020E8E70000001002403C
:1010B0000000424280044242500000200070004084
:1010C00010B5401EB0F1807F01D3012010BD4FF05C
:1010D000E02460610F21601701F046F90020A06153
:1010E00007202061002010BD70B590F83C20012A37
:1010F0002CD0012480F83C40022280F83D20036877
:101100005A689D6822F070060A6832435A60104B94
:1011100002689A420ED00F4B9A420BD0B2F1804F28
:1011200008D00D4B9A4205D00C4B9A4202D00C4B82
:101130009A4204D1496825F080031943916080F8F0
:101140003D40002180F83C10084670BD022070BD73
:10115000002C014000340140000400400008004021
:10116000000C00402DE9F0410D46040003D094F836
:101170003D0018B108E00120BDE8F081002084F8AE
:101180003C00204600F040F8022084F83D00206832
:10119000816844F2070291438160211D206800F0BC
:1011A00007FF226890689169166A2B68AF6903434C
:1011B00040F20330814341EA0721A868EF69084300
:1011C0004FF6FC418843E96840EA0720014328695B
:1011D0002F6A000140EA0730084369686D6926F00C
:1011E000220646EA0515294393602268906154F867
:1011F000460B0162012004F81F09E0752076E076B5
:101200002077A0750020B7E700B585B000210091D8
:101210000191029103911A4B02681A48C0219A4227
:1012200013D1C26942F00402C261C26902F0040231
:101230000492826942F0080282618069009100F0A4
:10124000080004906946104815E0104B9A4214D1EA
:10125000826942F400528261826902F4005204926F
:10126000826942F0100282618069009100F01000F2
:10127000049069460648FFF725FB05B000BD000055
:101280000008004000100240000C01400034014002
:101290000010014070B590F83E60044690F83F5051
:1012A00090F8423090F84320022021B104290ED05A
:1012B000012E1BD114E0012E18D1012B16D184F878
:1012C0003E0084F8420001220021206820E0012D28
:1012D0000CD1012A0AD184F83F0084F8430014E0BD
:1012E000012D03D1012B01D1012A01D0012070BDB4
:1012F00084F83E0084F83F0084F8420084F84300FC
:1013000001220021206800F0A1FE012204212068B2
:1013100000F09CFE2068016841F00101016000209E
:1013200070BD000010B586B00021009101910291BE
:10133000039100681349884221D11348816941F023
:1013400004018161816901F004010491816941F026
:10135000080181618069022400F008000490C02027
:10136000CDE90004694609480394FFF7ABFA03206E
:10137000CDE90004694606480394FFF7A3FA06B0D6
:1013800010BD0000000400400010024000080140B1
:10139000000C014070B5044690F83C0000260D4654
:1013A00001280FD0012084F83C006AB1042A1DD026
:1013B000082A2FD00C2A3FD00126002084F83C00B8
:1013C000304670BD022070BD206800F04DFE2068E0
:1013D000816941F0080181612068816921F004017F
:1013E0008161206881692A69114311E0206800F059
:1013F0006BFE2068816941F4006181612068816928
:1014000021F480618161206881692A6941EA0221B1
:101410008161D2E7206800F08DFE2068C16941F04B
:101420000801C1612068C16921F00401C16120681F
:10143000C1692A69114311E0206800F0AFFE2068FD
:10144000C16941F40061C1612068C16921F4806112
:10145000C1612068C1692A6941EA0221C161ACE722
:1014600010B5040003D094F83D0010B107E001204E
:1014700010BD002084F83C00204600F01FF8022038
:1014800084F83D00211D206800F092FD012084F8C1
:10149000460084F83E0084F83F0084F8400084F859
:1014A000410084F8420084F8430084F8440084F842
:1014B000450084F83D00002010BD000008B500681C
:1014C0000649884208D10648C16941F00201C1615C
:1014D000C06900F00200009008BD00000004004058
:1014E0000010024010B50446022249B104290ED072
:1014F000082913D094F84100012816D0012010BD0E
:1015000094F83E000128F9D184F83E200FE094F8C9
:101510003F000128F2D184F83F2008E094F8400011
:101520000128EBD184F8402001E084F84120012219
:10153000206800F08BFD13492068134A884201D0CF
:10154000904203D1436C43F40043436420688842D3
:101550000DD090420BD0B0F1804F08D00B4988429B
:1015600005D00B49884202D00A49884204D18168DB
:1015700001F00701062903D0016841F00101016073
:10158000002010BD002C0140003401400004004048
:1015900000080040000C004070B5040004D094F82E
:1015A0004100002510B106E0012070BD84F84050D4
:1015B000204600F023F8242084F841002068C16808
:1015C00021F40051C160204600F038FE2068016916
:1015D00021F4904101612068416921F02A014161B3
:1015E0002068C16841F40051C1606564202084F81E
:1015F000410084F842006563002070BD30B585B0BD
:1016000000240094019402940394006814498842D1
:1016100024D11448816941F480418161816901F4D8
:1016200080410491816941F00401816180690E4D1E
:1016300000F0040004904FF400700090022001902C
:101640000320039069462846FFF73CF92815CDE9A9
:101650000004694628460294FFF734F905B030BD0E
:101660000038014000100240000801402DE9F84315
:10167000044690F84100984616460D46202802D0B0
:101680000220BDE8F88385B17EB10020606421208E
:1016900084F84100FFF718FAA6848146E684A06822
:1016A0002027B0F5805F02D003E00120E9E7206940
:1016B00010B12E4600250EE000260CE080212046C9
:1016C00000F018FEA8B9C6B116F8010B21684860F1
:1016D000E08C401EE084E08C4B464FF00002CDF8D9
:1016E00000800028EAD14FF04001204600F002FEC1
:1016F00040B184F841700320C3E735F8020BC0F312
:101700000800E3E784F841700020BAE7FEE7000034
:101710002DE9F04186B000242448009401940294FD
:101720000394816941F010018161816901F0100128
:101730000491816941F020018161816901F02001FA
:101740000491816941F004018161816901F0040122
:101750000491816941F0080181618069144F00F0B2
:10176000080044F20C050490002229463846FFF791
:10177000A5F9DFF84080002238214046FFF79EF9A6
:101780000095022601250396CDE9015469463846A5
:10179000FFF798F83820CDE90005CDE90246694603
:1017A0004046FFF78FF806B0BDE8F0810010024018
:1017B00000100140000C014010B58AB000240794CD
:1017C0001C2168460894FEF757FE22482049C0E9CC
:1017D000001440F60F61C0E9024104618461FFF723
:1017E0003FFE08B1FFF75AF8079407A91948089473
:1017F000FFF77AFC08B1FFF751F86020CDE900044B
:1018000002940022694613480494FFF7C3FD08B10F
:10181000FFF744F8042269460E48FFF7BBFD08B104
:10182000FFF73CF8082269460A48FFF7B3FD08B104
:10183000FFF734F80C2269460648FFF7ABFD08B104
:10184000FFF72CF80348FFF76DFD0AB010BD00004C
:10185000000400408C00002010B58CB024216846A4
:10186000FEF70AFE00241648099414490A94C0E9B8
:1018700000144FF6FF71C0E9024104618461032046
:10188000CDE900040120CDE902040494CDE905402E
:10189000079469460A480894FFF764FC08B1FEF70C
:1018A000FDFF099409A906480A94FFF71DFC0028CA
:1018B00001D0FEF7F3FF0CB010BD0000000800409F
:1018C000D400002010B58CB024216846FEF7D4FD6A
:1018D00000241648099414490A94C0E900144FF6EC
:1018E000FF71C0E902410461446184610320CDE9D4
:1018F00000040120CDE902040494CDE905400794D9
:1019000069460A480894FFF72DFC08B1FEF7C6FFA8
:10191000099409A905480A94FFF7E6FB002801D0BD
:10192000FEF7BCFF0CB010BD003401401C010020CC
:101930000C4810B50A4901604FF4E13141600021C3
:1019400081600C22C160C0E904128161C161FFF7AE
:1019500023FE002803D0BDE81040FEF79FBF10BD56
:101960000038014064010020FEE70000642800D92F
:1019700064200549C9684A1C42436420B2FBF0F068
:10198000884200D9084670478C00002010B500F04E
:1019900063F8002000F05AF8002811D1042000F06C
:1019A00055F800280CD1082000F050F8002807D185
:1019B0000C2000F04BF8002802D100F04DF8002078
:1019C00010BD642801DD642070476FF06301884218
:1019D000FADA08467047000070B50E46FFF7F1FFCF
:1019E0000025194C002805DD80B2FFF7BFFF2168F4
:1019F00048630CE009DAC0F1000080B2FFF7B6FFDF
:101A000021684D632168886303E02068456320688E
:101A100085633046FFF7D5FF002807DD80B2FFF76A
:101A2000A5FF2168CD632168086470BD07DAC0F1A5
:101A3000000080B2FFF79AFF2168C86301E02068C8
:101A4000C5632068056470BD8C0000200146014814
:101A5000FFF748BD8C000020054800210268516353
:101A6000026891630268D1630068016470470000F6
:101A70008C000020FEE7000030B40021084B0A462D
:101A80005FF0000003EBC004401CC0B26254802829
:101A9000F8D3491CC9B20829F2D330BC00F09AB877
:101AA000AC01002010B57F2816D83F2914D8072391
:101AB000A3EBD10301F00701C1F107040121A1400B
:101AC000064CDBB204EBC000002AC25CC9B201D0F4
:101AD0000A4300E08A43C25410BD0000AC0100205C
:101AE00010B53B4C002210212046FEF7E7FF642092
:101AF000FEF7D6FE012210212046FEF7DFFF00216F
:101B0000AE2000F031F90021D52000F02DF90021A0
:101B1000502000F029F90021A82000F025F900212B
:101B20003F2000F021F90021D32000F01DF9002111
:101B3000084600F019F90021402000F015F90021B5
:101B40008D2000F011F90021142000F00DF9002182
:101B5000202000F009F90021022000F005F9002101
:101B6000A12000F001F90021C02000F0FDF80021C3
:101B7000DA2000F0F9F80021122000F0F5F8002139
:101B8000812000F0F1F80021EF2000F0EDF80021B5
:101B9000D92000F0E9F80021F12000F0E5F800215B
:101BA000DB2000F0E1F80021302000F0DDF800211A
:101BB000A42000F0D9F80021A62000F0D5F80021DB
:101BC000AF2000F0D1F8BDE81040FFF755BF00008E
:101BD000000C014070B5114E002400BF04F1B000AC
:101BE000C0B2002100F0C0F80021084600F0BCF8A7
:101BF0000021102000F0B8F85FF0000506EBC500EA
:101C00000121005D00F0B0F86D1CEDB2802DF5D320
:101C1000641CE4B2082CE1D370BD0000AC010020CC
:101C20002DE9FF4F203A1F460C46894602F0FF0A75
:101C30000025DDF834B032E00C2F09D01A4901EB51
:101C40000A104FF00008465D300607D55A4609E0F5
:101C500016490AEB4A0001EB8000F2E7BBF1000FE6
:101C600012D0002221460098FFF71CFF7006641C6A
:101C7000060EE4B2A4EB0900B84207D100984C4626
:101C8000401CC0B2009008E00122EBE708F101001F
:101C900000F0FF08B8F1080FD6D36D1CEDB2BD42BD
:101CA000CAD3BDE8FF8F0000DA28000866240008C8
:101CB0002DE9FF4F81B00026DDF838A01D46934680
:101CC000814634464FF001084FEA5A0727E0281BA7
:101CD000401EC1B20A2000F0A9FBBBFBF0F00A21B4
:101CE000B0FBF1F201FB120026B9691E8C4201DA49
:101CF00048B101263030C2B207FB0490C0B253464F
:101D0000CDF8008006E007FB0490C0B253462022C5
:101D1000CDF800800299FFF783FF641CE4B2AC4267
:101D2000D5D305B0BDE8F08FF8B516460D4604468C
:101D3000012714E07A2C02D900241035EDB23A2D97
:101D400003D900242546FFF797FE009732780C232D
:101D500029462046FFF764FF0834E4B2761C307849
:101D60000028E7D1F8BD00002DE9F041174E0546E7
:101D700009B1012200E0002208213046FEF79EFE54
:101D8000B046134F00244FF48046002231463846B7
:101D9000FEF794FE280601D5012200E00022202152
:101DA0004046FEF78BFE012231463846FEF786FE9E
:101DB0006806641C050EE4B2082CE6D34046BDE874
:101DC000F04101220821FEF779BE0000000C01401D
:101DD000001001407047704710B5064800F08CF8BD
:101DE00004481C3000F088F8FEF76EFE02490860D7
:101DF000486010BD54000020380000202DE9FE434B
:101E0000124C206800F032F88146606800F02EF82D
:101E100004F11C058046286800F028F80746686829
:101E200000F024F80646206900F020F804462869EE
:101E300000F01CF80096CDE901403B464246494679
:101E400003A0FEF70DFABDE8FE8300005400002059
:101E5000256C642C256C642C256C642C256C642CFE
:101E6000256C642C256C640D0A0000006421002898
:101E700001DB323000E0323890FBF1F070470000B7
:101E800064225043034A10606420414302F11C0065
:101E9000016070475400002070B5FEF715FE144D28
:101EA00004462868201A0A2820D32C60FEF768FC14
:101EB0000146104800F02BF80646FEF767FC014685
:101EC0000C481C3000F023F8642290FBF2F001B2C1
:101ED00096FBF2F000B2FFF77FFD6868201A322807
:101EE00004D36C60BDE87040FFF788BF70BD000090
:101EF0003800002054000020002101604160816012
:101F0000C16001611421416102218161704741601A
:101F10000268521A8260C1684369511A5943836941
:101F200003FB02114FF47A7391FBF3F10369194437
:101F300042F210730161994202DC5B42994200DA7D
:101F40001946C0E9032108467047FEF7C3BD30B506
:101F50008FB028216846FEF78FFA14210AA8FEF7F1
:101F60008BFA01210804CDE9001000240294022517
:101F70000491CDE907504FF4E01009906846FEF750
:101F80000FFF08B172B6FEE70F20CDE90A054FF446
:101F90008060CDE90C4002210AA80E94FEF724FED1
:101FA000002801D072B6FEE70FB030BD70470000C8
:101FB000F0B50268204C214D214E224F224B4FF0AC
:101FC000804CA04209D0984207D0604505D0A84275
:101FD00003D0B04201D0B84204D122F0700E4A685A
:101FE00042EA0E02A04209D0984207D0604505D0CF
:101FF000A84203D0B04201D0B84203D122F44075C8
:10200000CA682A434D6922F080022A4302608A6826
:10201000C2620A688262A04201D0984201D1096975
:102020000163012141610169C90703D0016921F000
:1020300001010161F0BD0000002C014000040040DE
:1020400000080040000C00400034014010B501F0D1
:102050001F030121046A99408C430462016A9A407B
:102060001143016210BD0000F0B5036A026A22F05C
:102070000102026242688469124E24F073050C6802
:102080002C4323F002058B682B430D4DA84201D051
:10209000B04205D123F00807CB683B4323F004038B
:1020A000A84201D0B04205D14D6922F440721543D7
:1020B0008A692A4342608461496841630362F0BDD2
:1020C000002C014000340140F0B5026A036A23F09D
:1020D00010030362436884690D6824F4E64444EA0B
:1020E00005248D6822F0200242EA05120F4D104EA1
:1020F000A84201D0B04206D1CF6822F0800242EA65
:10210000071222F04002A84201D0B04207D14D6927
:1021100023F4406343EA85038D6943EA8503436002
:102120008461496881630262F0BD0000002C0140B7
:1021300000340140F0B5026A036A23F4807303623D
:102140004368C46922F4007224F073050C68124ECF
:102150002C438D6842EA05220E4DA84201D0B042C0
:1021600006D1CF6822F4006242EA072222F480629C
:10217000A84201D0B04207D14D6923F4405343EA4D
:1021800005138D6943EA05134360C4614968C1635F
:102190000262F0BD002C01400034014030B5046AF9
:1021A000026A22F4805202624268C3690D6823F415
:1021B000E64343EA05238D6824F4005444EA0534D9
:1021C000084DA84202D0084DA84204D14D6922F41E
:1021D000804242EA85124260C36149680164046238
:1021E00030BD0000002C01400034014001680C317A
:1021F00051E8002F22F4907241E80023002BF5D122
:102200000168143151E8002F22F0010241E8002357
:10221000002BF5D1016B012909D101680C3151E87E
:10222000002F22F0100241E80023002BF5D12021DD
:1022300080F84210002101637047000070B5044629
:1022400000680169E26821F440511143016121698C
:10225000A0680843616908432168CA6841F20C63B9
:102260009A430243CA6020684169A26921F440711F
:10227000114341611E492068884202D1FEF75AFD90
:1022800001E0FEF747FD00EBC00101EB00126068C2
:1022900064218000B2FBF0F3B3FBF1F36FF018069A
:1022A0007343B2FBF0F5B2FBF0F605EB8305322386
:1022B00003EB0515B5FBF1F5B6FBF1F605F0F005FE
:1022C00005EB0615B2FBF0F6B2FBF0F0B0FBF1F057
:1022D0006FF01802504306EB800003EB0010B0FBD8
:1022E000F1F0216800F00F002844886070BD000004
:1022F000003801402DE9F843984617460D4604463C
:10230000089E24E0701C22D0FEF7DEFBA0EB080044
:10231000B0421AD8CEB12068C168490717D5802DC0
:1023200015D0402D13D00168C94309070FD40168A7
:102330000025406800902046FFF758FF08206064A1
:1023400084F840500120BDE8F8830320FBE72068B3
:10235000006835EA000004D00020B842D2D0002046
:10236000F1E70120F9E7FEE70907090E002804DB81
:1023700000F1E02080F80014704700F00F0000F139
:10238000E02080F8141D704730380A2801D201205F
:10239000704700207047704738B504468DF800003C
:1023A0004FF0FF33012269460248FFF75FF92046EC
:1023B00038BD00006401002008B5FEF793FBFFF76D
:1023C000C6FDFFF7A5F9FFF78BFBFFF755FB0021D3
:1023D00014A20846FFF7A8FC0C200090042340F24A
:1023E000D24210210020FFF763FCFFF7F3FBFFF759
:1023F000E3F9FFF731FAFFF765FAFFF799FAFFF70C
:10240000C5FAFEF7C9F9FFF7E7FC4FF4FA70014689
:10241000FFF736FDFEF7F6F9FFF73EFD0120FEF768
:102420003FFAF7E74F4C4544204F4B00024601204E
:1024300000E05043491EC9B2FBD2704701020203BB
:102440000405060708090A0B0C0D0E0F10100000FA
:102450000000000000000102030406070809000054
:102460000000010203040000000000000000000062
:102470000000000000003F400000000000000000DD
:102480003000400030004000000009000BC03D005B
:102490000BC03D00090018C024407FE0224031807D
:1024A0000000180024C01B000D8032400180038012
:1024B0001C4027401C8007400040100060000000C6
:1024C0000000000000000000000000001F8020400D
:1024D00040200000402020401F8000000000090034
:1024E00006001F80060009000000040004003F8071
:1024F0000400040000000010006000000000000064
:1025000000000400040004000400040000000000B7
:1025100000400000000000000000002001C0060094
:102520003800400000001F802040204020401F80D5
:102530000000000010403FC000400000000018C034
:1025400021402240244018400000108020402440B8
:1025500024401B80000002000D0011003FC001401C
:1025600000003C80244024402440238000001F8041
:10257000244024403440038000003000200027C065
:102580003800200000001B802440244024401B8091
:1025900000001C0022C0224022401F8000000000DA
:1025A000000008400000000000000000000004607F
:1025B000000000000000000004000A00110020805C
:1025C000404009000900090009000900000000005E
:1025D0004040208011000A00040018002000234021
:1025E0002400180000001F802040274029401F4081
:1025F0000000004007C039000F0001C0004020402B
:102600003FC0244024401B8000001F802040204009
:1026100020403080000020403FC0204020401F80EC
:10262000000020403FC024402E4030C00000204029
:102630003FC024402E00300000000F0010802040DA
:1026400022403380020020403FC0040004003FC00D
:102650002040204020403FC020402040000000603B
:10266000202020203FC02000200020403FC02440E8
:102670000B0030C0204020403FC0204000400040C0
:1026800000C03FC03C0003C03C003FC000002040F1
:102690003FC00C4023003FC020001F80204020404E
:1026A00020401F80000020403FC02440240018002C
:1026B00000001F802140214020E01FA0000020409A
:1026C0003FC02440260019C0004018C024402440C8
:1026D000224031800000300020403FC020403000C8
:1026E000000020003F80004000403F80200020008C
:1026F0003E0001C0070038002000380007C03C0041
:1027000007C038000000204039C0060039C0204012
:1027100000002000384007C0384020000000304052
:1027200021C02640384020C00000000000007FE0AB
:10273000402040200000000070000C00038000409A
:1027400000000000402040207FE00000000000006A
:1027500020004000200000000000001000100010C9
:1027600000100010001000000000400000000000F9
:102770000000000002800540054003C0004020002A
:102780003FC0044004400380000000000380044078
:1027900004400640000000000380044024403FC085
:1027A0000040000003800540054003400000000099
:1027B00004401FC0244024402000000002E00550D7
:1027C00005500650042020403FC00440040003C0D0
:1027D00000400000044027C000400000000000103E
:1027E0000010041027E00000000020403FC001401E
:1027F000070004C00440204020403FC0004000408B
:10280000000007C0040007C0040003C0000004402B
:1028100007C00440040003C00040000003800440DF
:10282000044003800000041007F0045004400380BB
:102830000000000003800440045007F00010044032
:1028400007C00240040004000000000006400540EC
:10285000054004C00000000004001F800440004048
:102860000000040007800040044007C0004004004E
:10287000070004C0018006000400060001C0070034
:1028800001C006000000044006C0010006C004406C
:1028900000000410071004E001800600040000009E
:1028A000044005C006400440000000000000040091
:1028B0007BE040200000000000000000FFF000006E
:1028C0000000000040207BE0040000000000400009
:1028D00080004000200020004000000000000000B8
:1028E00000000000000000000000000000000000E8
:1028F0001FCC000C000000000000000008003000A9
:1029000060000800300060000000022003FC1E2070
:10291000022003FC1E200220000000000E181104FB
:102920003FFF10840C78000000000F0010840F3867
:1029300000C0077818840078000000780F8410C465
:1029400011240E9800E4008400080800680070005C
:102950000000000000000000000000000000000077
:1029600007E0181820044002000000004002200484
:10297000181807E00000000000000240024001803B
:102980000FF00180024002400000008000800080C3
:102990000FF800800080008000000001000D000E94
:1029A0000000000000000000000000000080008027
:1029B000008000800080008000800000000C000C7F
:1029C00000000000000000000000000000060018E9
:1029D00000600180060018002000000007F00808D1
:1029E00010041004080807F00000000008040804A0
:1029F0001FFC000400040000000000000E0C101476
:102A00001024104411840E0C000000000C18100457
:102A10001104110412880C700000000000E0032073
:102A2000042408241FFC0024000000001F981084C8
:102A300011041104108810700000000007F00888CD
:102A40001104110418880070000000001C00100020
:102A500010FC13001C001000000000000E38114490
:102A60001084108411440E38000000000700088C08
:102A700010441044088807F0000000000000000027
:102A8000030C030C00000000000000000000000127
:102A9000010600000000000000000000008001406E
:102AA0000220041008081004000002200220022066
:102AB000022002200220022000000000100408086A
:102AC0000410022001400080000000000E001200EF
:102AD000100C106C10800F00000003E00C1813E4C1
:102AE000142417C4082807D000000004003C03C4C5
:102AF0001C40074000E4001C000410041FFC1104EB
:102B0000110411040E880070000003E00C1810047A
:102B10001004100410081C10000010041FFC100406
:102B200010041004080807F0000010041FFC110432
:102B3000110417C410040818000010041FFC11042D
:102B4000110017C010000800000003E00C1810046A
:102B5000100410441C780040000010041FFC108476
:102B60000080008010841FFC10040000100410047A
:102B70001FFC1004100400000000000300011001FD
:102B800010011FFE10001000000010041FFC1104B3
:102B900003801464181C1004000010041FFC1004AF
:102BA000000400040004000C000010041FFC1F00BF
:102BB00000FC1F001FFC1004000010041FFC0C048C
:102BC000030000E010181FFC100007F008081004B4
:102BD00010041004080807F0000010041FFC108403
:102BE0001080108010800F00000007F008181024DB
:102BF0001024101C080A07F2000010041FFC110426
:102C0000110011C011300E0C000400000E1C110444
:102C10001084108410441C380000180010001004A8
:102C20001FFC100410001800000010001FF8100412
:102C30000004000410041FF8100010001E0011E032
:102C4000001C007013801C0010001FC0103C00E02E
:102C50001F0000E0103C1FC000001004180C1634C8
:102C600001C001C01634180C100410001C0013041D
:102C700000FC13041C00100000000804101C106469
:102C8000108413041C041018000000000000000051
:102C90007FFE4002400240020000000030000C00B5
:102CA00003800060001C000300000000400240029E
:102CB00040027FFE00000000000000000000200035
:102CC0004000400040002000000000010001000121
:102CD000000100010001000100010000400040006F
:102CE0002000000000000000000000000098012407
:102CF00001440144014400FC000410001FFC008852
:102D000001040104008800700000000000700088C9
:102D10000104010401040088000000000070008824
:102D20000104010411081FFC0004000000F8014424
:102D300001440144014400C80000000001040104F2
:102D40000FFC1104110411001800000000D6012925
:102D50000129012901C90106000010041FFC00849B
:102D600001000100010400FC00040000010419043A
:102D700019FC000400040000000000000003000132
:102D80000101190119FE0000000010041FFC0024BD
:102D9000004001B4010C0104000000001004100404
:102DA0001FFC0004000400000000010401FC0104F9
:102DB000010001FC0104010000FC010401FC00848D
:102DC00001000100010400FC0004000000F80104FF
:102DD00001040104010400F80000010101FF008565
:102DE00001040104008800700000000000700088E9
:102DF00001040104010501FF00010104010401FCBB
:102E000000840104010001800000000000CC0124C6
:102E100001240124012401980000000001000100A8
:102E200007F80104010400000000010001F800049B
:102E300000040004010801FC00040100018001708D
:102E4000000C001001600180010001F0010C003055
:102E500001C00030010C01F0010000000104018CF0
:102E600000740170018C01040000010101810171F5
:102E7000000E001801600180010000000184010CB7
:102E8000013401440184010C000000000000000036
:102E9000000001003EFC4002400200000000000073
:102EA0000000FFFF000000000000000040024002A0
:102EB0003EFC0100000000000000000060008000F7
:102EC00080004000400020002000040000080000B6
:102ED000000000000002000100001000FC2E0008AD
:102EE00000000020540000006C010008502F000872
:102EF00054000020BC0B0000880100080000000006
:102F000000000000D40000200000000000000000CD
:102F10000000000000000000000000001C01002074
:102F200000000000000000000000000000000000A1
:102F30000100000000000000000000000000000090
:102F400001000000100000000000000000127A00E4
:0400000508000131BD
:00000001FF
